{
  "_format": "hh-sol-artifact-1",
  "contractName": "StakingPackage",
  "sourceName": "contracts/dao/staking/packages/StakingPackage.sol",
  "abi": [
    {
      "anonymous": false,
      "inputs": [
        {
          "indexed": true,
          "internalType": "bool",
          "name": "oldFlag",
          "type": "bool"
        },
        {
          "indexed": true,
          "internalType": "bool",
          "name": "newFlag",
          "type": "bool"
        }
      ],
      "name": "EarlyWithdrawalFlagSet",
      "type": "event"
    },
    {
      "anonymous": false,
      "inputs": [
        {
          "indexed": true,
          "internalType": "uint256",
          "name": "oldMaxLockPositions",
          "type": "uint256"
        },
        {
          "indexed": true,
          "internalType": "uint256",
          "name": "newMaxLockPositions",
          "type": "uint256"
        }
      ],
      "name": "MaxLockPositionsSet",
      "type": "event"
    },
    {
      "anonymous": false,
      "inputs": [
        {
          "indexed": true,
          "internalType": "uint256",
          "name": "streamId",
          "type": "uint256"
        },
        {
          "indexed": true,
          "internalType": "address",
          "name": "account",
          "type": "address"
        },
        {
          "indexed": true,
          "internalType": "uint256",
          "name": "pendings",
          "type": "uint256"
        }
      ],
      "name": "Pending",
      "type": "event"
    },
    {
      "anonymous": false,
      "inputs": [
        {
          "indexed": true,
          "internalType": "uint256",
          "name": "streamId",
          "type": "uint256"
        },
        {
          "indexed": true,
          "internalType": "address",
          "name": "user",
          "type": "address"
        },
        {
          "indexed": false,
          "internalType": "uint256",
          "name": "pendingAmount",
          "type": "uint256"
        }
      ],
      "name": "Released",
      "type": "event"
    },
    {
      "anonymous": false,
      "inputs": [
        {
          "indexed": true,
          "internalType": "bytes32",
          "name": "role",
          "type": "bytes32"
        },
        {
          "indexed": true,
          "internalType": "bytes32",
          "name": "previousAdminRole",
          "type": "bytes32"
        },
        {
          "indexed": true,
          "internalType": "bytes32",
          "name": "newAdminRole",
          "type": "bytes32"
        }
      ],
      "name": "RoleAdminChanged",
      "type": "event"
    },
    {
      "anonymous": false,
      "inputs": [
        {
          "indexed": true,
          "internalType": "bytes32",
          "name": "role",
          "type": "bytes32"
        },
        {
          "indexed": true,
          "internalType": "address",
          "name": "account",
          "type": "address"
        },
        {
          "indexed": true,
          "internalType": "address",
          "name": "sender",
          "type": "address"
        }
      ],
      "name": "RoleGranted",
      "type": "event"
    },
    {
      "anonymous": false,
      "inputs": [
        {
          "indexed": true,
          "internalType": "bytes32",
          "name": "role",
          "type": "bytes32"
        },
        {
          "indexed": true,
          "internalType": "address",
          "name": "account",
          "type": "address"
        },
        {
          "indexed": true,
          "internalType": "address",
          "name": "sender",
          "type": "address"
        }
      ],
      "name": "RoleRevoked",
      "type": "event"
    },
    {
      "anonymous": false,
      "inputs": [
        {
          "indexed": false,
          "internalType": "address",
          "name": "account",
          "type": "address"
        },
        {
          "indexed": true,
          "internalType": "uint256",
          "name": "streamShares",
          "type": "uint256"
        },
        {
          "indexed": true,
          "internalType": "uint256",
          "name": "nVEMainTkn",
          "type": "uint256"
        },
        {
          "indexed": true,
          "internalType": "uint256",
          "name": "lockId",
          "type": "uint256"
        }
      ],
      "name": "Staked",
      "type": "event"
    },
    {
      "anonymous": false,
      "inputs": [
        {
          "indexed": true,
          "internalType": "uint256",
          "name": "streamId",
          "type": "uint256"
        },
        {
          "indexed": true,
          "internalType": "address",
          "name": "owner",
          "type": "address"
        },
        {
          "indexed": true,
          "internalType": "address",
          "name": "token",
          "type": "address"
        },
        {
          "indexed": false,
          "internalType": "uint256",
          "name": "tokenAmount",
          "type": "uint256"
        }
      ],
      "name": "StreamCreated",
      "type": "event"
    },
    {
      "anonymous": false,
      "inputs": [
        {
          "indexed": true,
          "internalType": "uint256",
          "name": "streamId",
          "type": "uint256"
        },
        {
          "indexed": true,
          "internalType": "address",
          "name": "streamOwner",
          "type": "address"
        },
        {
          "indexed": false,
          "internalType": "uint256",
          "name": "mainTknStreamOwnerReward",
          "type": "uint256"
        }
      ],
      "name": "StreamOwnerRewardReleased",
      "type": "event"
    },
    {
      "anonymous": false,
      "inputs": [
        {
          "indexed": true,
          "internalType": "uint256",
          "name": "streamId",
          "type": "uint256"
        },
        {
          "indexed": true,
          "internalType": "address",
          "name": "owner",
          "type": "address"
        },
        {
          "indexed": true,
          "internalType": "address",
          "name": "token",
          "type": "address"
        }
      ],
      "name": "StreamProposalCancelled",
      "type": "event"
    },
    {
      "anonymous": false,
      "inputs": [
        {
          "indexed": true,
          "internalType": "uint256",
          "name": "streamId",
          "type": "uint256"
        },
        {
          "indexed": true,
          "internalType": "address",
          "name": "streamOwner",
          "type": "address"
        },
        {
          "indexed": true,
          "internalType": "address",
          "name": "rewardToken",
          "type": "address"
        },
        {
          "indexed": false,
          "internalType": "uint256",
          "name": "maxDepositAmount",
          "type": "uint256"
        }
      ],
      "name": "StreamProposed",
      "type": "event"
    },
    {
      "anonymous": false,
      "inputs": [
        {
          "indexed": true,
          "internalType": "uint256",
          "name": "streamId",
          "type": "uint256"
        },
        {
          "indexed": true,
          "internalType": "address",
          "name": "owner",
          "type": "address"
        },
        {
          "indexed": true,
          "internalType": "address",
          "name": "token",
          "type": "address"
        }
      ],
      "name": "StreamRemoved",
      "type": "event"
    },
    {
      "anonymous": false,
      "inputs": [
        {
          "indexed": true,
          "internalType": "address",
          "name": "oldTreasuryAddress",
          "type": "address"
        },
        {
          "indexed": true,
          "internalType": "address",
          "name": "newTreasuryAddress",
          "type": "address"
        }
      ],
      "name": "TreasuryAddressSet",
      "type": "event"
    },
    {
      "anonymous": false,
      "inputs": [
        {
          "indexed": true,
          "internalType": "address",
          "name": "account",
          "type": "address"
        },
        {
          "indexed": true,
          "internalType": "uint256",
          "name": "amount",
          "type": "uint256"
        },
        {
          "indexed": true,
          "internalType": "uint256",
          "name": "lockId",
          "type": "uint256"
        }
      ],
      "name": "Unstaked",
      "type": "event"
    },
    {
      "inputs": [],
      "name": "DEFAULT_ADMIN_ROLE",
      "outputs": [
        {
          "internalType": "bytes32",
          "name": "",
          "type": "bytes32"
        }
      ],
      "stateMutability": "view",
      "type": "function"
    },
    {
      "inputs": [],
      "name": "GOVERNANCE_ROLE",
      "outputs": [
        {
          "internalType": "bytes32",
          "name": "",
          "type": "bytes32"
        }
      ],
      "stateMutability": "view",
      "type": "function"
    },
    {
      "inputs": [],
      "name": "PAUSE_ROLE",
      "outputs": [
        {
          "internalType": "bytes32",
          "name": "",
          "type": "bytes32"
        }
      ],
      "stateMutability": "view",
      "type": "function"
    },
    {
      "inputs": [],
      "name": "STREAM_MANAGER_ROLE",
      "outputs": [
        {
          "internalType": "bytes32",
          "name": "",
          "type": "bytes32"
        }
      ],
      "stateMutability": "view",
      "type": "function"
    },
    {
      "inputs": [],
      "name": "admin",
      "outputs": [
        {
          "internalType": "address",
          "name": "",
          "type": "address"
        }
      ],
      "stateMutability": "view",
      "type": "function"
    },
    {
      "inputs": [
        {
          "internalType": "uint256",
          "name": "flags",
          "type": "uint256"
        }
      ],
      "name": "adminPause",
      "outputs": [],
      "stateMutability": "nonpayable",
      "type": "function"
    },
    {
      "inputs": [
        {
          "internalType": "uint256[]",
          "name": "streamIds",
          "type": "uint256[]"
        },
        {
          "internalType": "uint256",
          "name": "lockId",
          "type": "uint256"
        }
      ],
      "name": "batchClaimRewards",
      "outputs": [],
      "stateMutability": "nonpayable",
      "type": "function"
    },
    {
      "inputs": [
        {
          "internalType": "uint256",
          "name": "streamId",
          "type": "uint256"
        }
      ],
      "name": "cancelStreamProposal",
      "outputs": [],
      "stateMutability": "nonpayable",
      "type": "function"
    },
    {
      "inputs": [
        {
          "internalType": "uint256",
          "name": "lockId",
          "type": "uint256"
        }
      ],
      "name": "claimAllRewards",
      "outputs": [],
      "stateMutability": "nonpayable",
      "type": "function"
    },
    {
      "inputs": [
        {
          "internalType": "uint256",
          "name": "streamId",
          "type": "uint256"
        },
        {
          "internalType": "uint256",
          "name": "lockId",
          "type": "uint256"
        }
      ],
      "name": "claimRewards",
      "outputs": [],
      "stateMutability": "nonpayable",
      "type": "function"
    },
    {
      "inputs": [
        {
          "internalType": "uint256",
          "name": "amount",
          "type": "uint256"
        },
        {
          "internalType": "uint256",
          "name": "unlockTime",
          "type": "uint256"
        }
      ],
      "name": "createLock",
      "outputs": [],
      "stateMutability": "nonpayable",
      "type": "function"
    },
    {
      "inputs": [
        {
          "internalType": "uint256",
          "name": "streamId",
          "type": "uint256"
        },
        {
          "internalType": "uint256",
          "name": "rewardTokenAmount",
          "type": "uint256"
        }
      ],
      "name": "createStream",
      "outputs": [],
      "stateMutability": "nonpayable",
      "type": "function"
    },
    {
      "inputs": [
        {
          "internalType": "uint256",
          "name": "lockId",
          "type": "uint256"
        }
      ],
      "name": "earlyUnlock",
      "outputs": [],
      "stateMutability": "nonpayable",
      "type": "function"
    },
    {
      "inputs": [],
      "name": "earlyWithdrawPenaltyWeight",
      "outputs": [
        {
          "internalType": "uint64",
          "name": "",
          "type": "uint64"
        }
      ],
      "stateMutability": "view",
      "type": "function"
    },
    {
      "inputs": [
        {
          "internalType": "address",
          "name": "account",
          "type": "address"
        }
      ],
      "name": "getAllLocks",
      "outputs": [
        {
          "components": [
            {
              "internalType": "uint128",
              "name": "amountOfMAINTkn",
              "type": "uint128"
            },
            {
              "internalType": "uint128",
              "name": "amountOfveMAINTkn",
              "type": "uint128"
            },
            {
              "internalType": "uint128",
              "name": "mainTknShares",
              "type": "uint128"
            },
            {
              "internalType": "uint128",
              "name": "positionStreamShares",
              "type": "uint128"
            },
            {
              "internalType": "uint64",
              "name": "end",
              "type": "uint64"
            },
            {
              "internalType": "address",
              "name": "owner",
              "type": "address"
            }
          ],
          "internalType": "struct LockedBalance[]",
          "name": "",
          "type": "tuple[]"
        }
      ],
      "stateMutability": "view",
      "type": "function"
    },
    {
      "inputs": [
        {
          "internalType": "uint256",
          "name": "streamId",
          "type": "uint256"
        }
      ],
      "name": "getLatestRewardsPerShare",
      "outputs": [
        {
          "internalType": "uint256",
          "name": "",
          "type": "uint256"
        }
      ],
      "stateMutability": "view",
      "type": "function"
    },
    {
      "inputs": [
        {
          "internalType": "address",
          "name": "account",
          "type": "address"
        },
        {
          "internalType": "uint256",
          "name": "lockId",
          "type": "uint256"
        }
      ],
      "name": "getLockInfo",
      "outputs": [
        {
          "components": [
            {
              "internalType": "uint128",
              "name": "amountOfMAINTkn",
              "type": "uint128"
            },
            {
              "internalType": "uint128",
              "name": "amountOfveMAINTkn",
              "type": "uint128"
            },
            {
              "internalType": "uint128",
              "name": "mainTknShares",
              "type": "uint128"
            },
            {
              "internalType": "uint128",
              "name": "positionStreamShares",
              "type": "uint128"
            },
            {
              "internalType": "uint64",
              "name": "end",
              "type": "uint64"
            },
            {
              "internalType": "address",
              "name": "owner",
              "type": "address"
            }
          ],
          "internalType": "struct LockedBalance",
          "name": "",
          "type": "tuple"
        }
      ],
      "stateMutability": "view",
      "type": "function"
    },
    {
      "inputs": [
        {
          "internalType": "uint256",
          "name": "streamId",
          "type": "uint256"
        },
        {
          "internalType": "address",
          "name": "account",
          "type": "address"
        }
      ],
      "name": "getPending",
      "outputs": [
        {
          "internalType": "uint256",
          "name": "",
          "type": "uint256"
        }
      ],
      "stateMutability": "view",
      "type": "function"
    },
    {
      "inputs": [
        {
          "internalType": "bytes32",
          "name": "role",
          "type": "bytes32"
        }
      ],
      "name": "getRoleAdmin",
      "outputs": [
        {
          "internalType": "bytes32",
          "name": "",
          "type": "bytes32"
        }
      ],
      "stateMutability": "view",
      "type": "function"
    },
    {
      "inputs": [
        {
          "internalType": "uint256",
          "name": "streamId",
          "type": "uint256"
        }
      ],
      "name": "getStream",
      "outputs": [
        {
          "internalType": "address",
          "name": "streamOwner",
          "type": "address"
        },
        {
          "internalType": "address",
          "name": "rewardToken",
          "type": "address"
        },
        {
          "internalType": "uint256",
          "name": "rewardDepositAmount",
          "type": "uint256"
        },
        {
          "internalType": "uint256",
          "name": "rewardClaimedAmount",
          "type": "uint256"
        },
        {
          "internalType": "uint256",
          "name": "maxDepositAmount",
          "type": "uint256"
        },
        {
          "internalType": "uint256",
          "name": "rps",
          "type": "uint256"
        },
        {
          "internalType": "uint256",
          "name": "tau",
          "type": "uint256"
        },
        {
          "internalType": "enum StreamStatus",
          "name": "status",
          "type": "uint8"
        }
      ],
      "stateMutability": "view",
      "type": "function"
    },
    {
      "inputs": [
        {
          "internalType": "address",
          "name": "account",
          "type": "address"
        }
      ],
      "name": "getUserTotalDeposit",
      "outputs": [
        {
          "internalType": "uint256",
          "name": "",
          "type": "uint256"
        }
      ],
      "stateMutability": "view",
      "type": "function"
    },
    {
      "inputs": [
        {
          "internalType": "address",
          "name": "account",
          "type": "address"
        },
        {
          "internalType": "uint256",
          "name": "streamId",
          "type": "uint256"
        }
      ],
      "name": "getUsersPendingRewards",
      "outputs": [
        {
          "internalType": "uint256",
          "name": "",
          "type": "uint256"
        }
      ],
      "stateMutability": "view",
      "type": "function"
    },
    {
      "inputs": [],
      "name": "govnContract",
      "outputs": [
        {
          "internalType": "address",
          "name": "",
          "type": "address"
        }
      ],
      "stateMutability": "view",
      "type": "function"
    },
    {
      "inputs": [
        {
          "internalType": "bytes32",
          "name": "role",
          "type": "bytes32"
        },
        {
          "internalType": "address",
          "name": "account",
          "type": "address"
        }
      ],
      "name": "grantRole",
      "outputs": [],
      "stateMutability": "nonpayable",
      "type": "function"
    },
    {
      "inputs": [
        {
          "internalType": "bytes32",
          "name": "role",
          "type": "bytes32"
        },
        {
          "internalType": "address",
          "name": "account",
          "type": "address"
        }
      ],
      "name": "hasRole",
      "outputs": [
        {
          "internalType": "bool",
          "name": "",
          "type": "bool"
        }
      ],
      "stateMutability": "view",
      "type": "function"
    },
    {
      "inputs": [
        {
          "internalType": "address",
          "name": "_vault",
          "type": "address"
        },
        {
          "internalType": "address",
          "name": "_mainTkn",
          "type": "address"
        },
        {
          "internalType": "address",
          "name": "_veMAINTkn",
          "type": "address"
        },
        {
          "components": [
            {
              "internalType": "uint32",
              "name": "maxWeightShares",
              "type": "uint32"
            },
            {
              "internalType": "uint32",
              "name": "minWeightShares",
              "type": "uint32"
            },
            {
              "internalType": "uint32",
              "name": "maxWeightPenalty",
              "type": "uint32"
            },
            {
              "internalType": "uint32",
              "name": "minWeightPenalty",
              "type": "uint32"
            },
            {
              "internalType": "uint32",
              "name": "penaltyWeightMultiplier",
              "type": "uint32"
            }
          ],
          "internalType": "struct Weight",
          "name": "_weight",
          "type": "tuple"
        },
        {
          "internalType": "address",
          "name": "streamOwner",
          "type": "address"
        },
        {
          "internalType": "uint256[]",
          "name": "scheduleTimes",
          "type": "uint256[]"
        },
        {
          "internalType": "uint256[]",
          "name": "scheduleRewards",
          "type": "uint256[]"
        },
        {
          "internalType": "uint256",
          "name": "tau",
          "type": "uint256"
        },
        {
          "internalType": "uint256",
          "name": "_voteShareCoef",
          "type": "uint256"
        },
        {
          "internalType": "uint256",
          "name": "_voteLockWeight",
          "type": "uint256"
        },
        {
          "internalType": "uint256",
          "name": "_maxLocks",
          "type": "uint256"
        }
      ],
      "name": "initializeStaking",
      "outputs": [],
      "stateMutability": "nonpayable",
      "type": "function"
    },
    {
      "inputs": [],
      "name": "mainTkn",
      "outputs": [
        {
          "internalType": "address",
          "name": "",
          "type": "address"
        }
      ],
      "stateMutability": "view",
      "type": "function"
    },
    {
      "inputs": [],
      "name": "maxLockPositions",
      "outputs": [
        {
          "internalType": "uint256",
          "name": "",
          "type": "uint256"
        }
      ],
      "stateMutability": "view",
      "type": "function"
    },
    {
      "inputs": [],
      "name": "paused",
      "outputs": [
        {
          "internalType": "uint256",
          "name": "",
          "type": "uint256"
        }
      ],
      "stateMutability": "view",
      "type": "function"
    },
    {
      "inputs": [
        {
          "internalType": "address",
          "name": "streamOwner",
          "type": "address"
        },
        {
          "internalType": "address",
          "name": "rewardToken",
          "type": "address"
        },
        {
          "internalType": "uint256",
          "name": "maxDepositAmount",
          "type": "uint256"
        },
        {
          "internalType": "uint256",
          "name": "minDepositAmount",
          "type": "uint256"
        },
        {
          "internalType": "uint256[]",
          "name": "scheduleTimes",
          "type": "uint256[]"
        },
        {
          "internalType": "uint256[]",
          "name": "scheduleRewards",
          "type": "uint256[]"
        },
        {
          "internalType": "uint256",
          "name": "tau",
          "type": "uint256"
        }
      ],
      "name": "proposeStream",
      "outputs": [],
      "stateMutability": "nonpayable",
      "type": "function"
    },
    {
      "inputs": [
        {
          "internalType": "uint256",
          "name": "streamId",
          "type": "uint256"
        },
        {
          "internalType": "address",
          "name": "streamFundReceiver",
          "type": "address"
        }
      ],
      "name": "removeStream",
      "outputs": [],
      "stateMutability": "nonpayable",
      "type": "function"
    },
    {
      "inputs": [
        {
          "internalType": "bytes32",
          "name": "role",
          "type": "bytes32"
        },
        {
          "internalType": "address",
          "name": "account",
          "type": "address"
        }
      ],
      "name": "renounceRole",
      "outputs": [],
      "stateMutability": "nonpayable",
      "type": "function"
    },
    {
      "inputs": [
        {
          "internalType": "bytes32",
          "name": "role",
          "type": "bytes32"
        },
        {
          "internalType": "address",
          "name": "account",
          "type": "address"
        }
      ],
      "name": "revokeRole",
      "outputs": [],
      "stateMutability": "nonpayable",
      "type": "function"
    },
    {
      "inputs": [
        {
          "internalType": "bool",
          "name": "_flag",
          "type": "bool"
        }
      ],
      "name": "setEarlyWithdrawalFlag",
      "outputs": [],
      "stateMutability": "nonpayable",
      "type": "function"
    },
    {
      "inputs": [
        {
          "internalType": "address",
          "name": "_govnContract",
          "type": "address"
        }
      ],
      "name": "setGovernanceContract",
      "outputs": [],
      "stateMutability": "nonpayable",
      "type": "function"
    },
    {
      "inputs": [
        {
          "internalType": "uint8",
          "name": "_maxLockPositions",
          "type": "uint8"
        }
      ],
      "name": "setMaxLockPositions",
      "outputs": [],
      "stateMutability": "nonpayable",
      "type": "function"
    },
    {
      "inputs": [
        {
          "internalType": "address",
          "name": "_treasury",
          "type": "address"
        }
      ],
      "name": "setTreasuryAddress",
      "outputs": [],
      "stateMutability": "nonpayable",
      "type": "function"
    },
    {
      "inputs": [
        {
          "internalType": "bytes4",
          "name": "interfaceId",
          "type": "bytes4"
        }
      ],
      "name": "supportsInterface",
      "outputs": [
        {
          "internalType": "bool",
          "name": "",
          "type": "bool"
        }
      ],
      "stateMutability": "view",
      "type": "function"
    },
    {
      "inputs": [],
      "name": "totalAmountOfStakedMAINTkn",
      "outputs": [
        {
          "internalType": "uint256",
          "name": "",
          "type": "uint256"
        }
      ],
      "stateMutability": "view",
      "type": "function"
    },
    {
      "inputs": [],
      "name": "totalAmountOfveMAINTkn",
      "outputs": [
        {
          "internalType": "uint256",
          "name": "",
          "type": "uint256"
        }
      ],
      "stateMutability": "view",
      "type": "function"
    },
    {
      "inputs": [],
      "name": "totalMAINTknShares",
      "outputs": [
        {
          "internalType": "uint256",
          "name": "",
          "type": "uint256"
        }
      ],
      "stateMutability": "view",
      "type": "function"
    },
    {
      "inputs": [],
      "name": "totalPenaltyBalance",
      "outputs": [
        {
          "internalType": "uint256",
          "name": "",
          "type": "uint256"
        }
      ],
      "stateMutability": "view",
      "type": "function"
    },
    {
      "inputs": [],
      "name": "totalStreamShares",
      "outputs": [
        {
          "internalType": "uint256",
          "name": "",
          "type": "uint256"
        }
      ],
      "stateMutability": "view",
      "type": "function"
    },
    {
      "inputs": [
        {
          "internalType": "uint256",
          "name": "lockId",
          "type": "uint256"
        }
      ],
      "name": "unlock",
      "outputs": [],
      "stateMutability": "nonpayable",
      "type": "function"
    },
    {
      "inputs": [
        {
          "internalType": "address",
          "name": "",
          "type": "address"
        }
      ],
      "name": "users",
      "outputs": [
        {
          "internalType": "uint128",
          "name": "veMAINTknBalance",
          "type": "uint128"
        },
        {
          "internalType": "uint128",
          "name": "veMAINTknReleased",
          "type": "uint128"
        }
      ],
      "stateMutability": "view",
      "type": "function"
    },
    {
      "inputs": [],
      "name": "vault",
      "outputs": [
        {
          "internalType": "address",
          "name": "",
          "type": "address"
        }
      ],
      "stateMutability": "view",
      "type": "function"
    },
    {
      "inputs": [],
      "name": "veMAINTkn",
      "outputs": [
        {
          "internalType": "address",
          "name": "",
          "type": "address"
        }
      ],
      "stateMutability": "view",
      "type": "function"
    },
    {
      "inputs": [],
      "name": "voteLockWeight",
      "outputs": [
        {
          "internalType": "uint256",
          "name": "",
          "type": "uint256"
        }
      ],
      "stateMutability": "view",
      "type": "function"
    },
    {
      "inputs": [
        {
          "internalType": "uint256",
          "name": "streamId",
          "type": "uint256"
        }
      ],
      "name": "withdraw",
      "outputs": [],
      "stateMutability": "nonpayable",
      "type": "function"
    },
    {
      "inputs": [],
      "name": "withdrawAll",
      "outputs": [],
      "stateMutability": "nonpayable",
      "type": "function"
    },
    {
      "inputs": [
        {
          "internalType": "address",
          "name": "penaltyReceiver",
          "type": "address"
        }
      ],
      "name": "withdrawPenalty",
      "outputs": [],
      "stateMutability": "nonpayable",
      "type": "function"
    }
  ],
  "bytecode": "0x60806040523480156200001157600080fd5b50600160148190555061a2ee806200002a6000396000f3fe608060405234801561001057600080fd5b50600436106102f15760003560e01c80636605bfda1161019d57806391d14854116100e9578063cb6a496d116100a2578063f36c8f5c1161007c578063f36c8f5c14610908578063f604037314610926578063f851a44014610944578063fbfa77cf14610962576102f1565b8063cb6a496d146108b2578063d547741f146108d0578063eb55a47c146108ec576102f1565b806391d14854146107b7578063a217fddf146107e7578063a4c828dc14610805578063a87430ba14610835578063a8d85f7014610866578063b52c05fe14610896576102f1565b80637f37df3b11610156578063894e9a0d11610130578063894e9a0d146107185780638d40bd031461074f578063904033221461076b5780639113281214610787576102f1565b80637f37df3b146106c0578063853828b6146106f05780638659ef62146106fa576102f1565b80636605bfda14610614578063670d2dfc146106305780636a5212af1461064c5780636db8e53d146106685780637e583913146106865780637ebd739f146106a4576102f1565b80632f2ff15d1161025c5780633a3f15111161021557806355021b3a116101ef57806355021b3a146105a2578063594dd432146105be5780635c975abb146105da5780636198e339146105f8576102f1565b80633a3f15111461054a5780633ba31abf146105685780633ea005c814610584576102f1565b80632f2ff15d1461049c578063338e3078146104b857806336085c51146104d657806336568abe146104f2578063369bd2c51461050e578063389ed2671461052c576102f1565b8063248a9ca3116102ae578063248a9ca3146103cc5780632692c59f146103fc578063277d96b7146104185780632851ed12146104485780632b6a7221146104645780632e1a7d4d14610480576102f1565b806301ffc9a7146102f65780631129753f1461032657806315b9672c14610342578063160d3fee1461037257806319e220a4146103905780631f5b2ac0146103ae575b600080fd5b610310600480360381019061030b91906175f0565b610980565b60405161031d9190617638565b60405180910390f35b610340600480360381019061033b91906176b1565b6109fa565b005b61035c60048036038101906103579190617714565b610a93565b604051610369919061782c565b60405180910390f35b61037a610d4e565b6040516103879190617856565b60405180910390f35b610398610d54565b6040516103a59190617880565b60405180910390f35b6103b6610d7a565b6040516103c39190617856565b60405180910390f35b6103e660048036038101906103e191906178d1565b610d80565b6040516103f3919061790d565b60405180910390f35b61041660048036038101906104119190617928565b610da0565b005b610432600480360381019061042d9190617928565b610e06565b60405161043f9190617856565b60405180910390f35b610462600480360381019061045d9190617b7b565b610e18565b005b61047e600480360381019061047991906176b1565b6113d0565b005b61049a60048036038101906104959190617928565b6114aa565b005b6104b660048036038101906104b19190617cab565b6115a9565b005b6104c06115ca565b6040516104cd9190617cfa565b60405180910390f35b6104f060048036038101906104eb9190617928565b6115e4565b005b61050c60048036038101906105079190617cab565b6119b5565b005b610516611a38565b6040516105239190617856565b60405180910390f35b610534611a3e565b604051610541919061790d565b60405180910390f35b610552611a62565b60405161055f9190617856565b60405180910390f35b610582600480360381019061057d9190617d15565b611a68565b005b61058c611d57565b604051610599919061790d565b60405180910390f35b6105bc60048036038101906105b79190617d55565b611d7b565b005b6105d860048036038101906105d39190617e2f565b61217e565b005b6105e2612278565b6040516105ef9190617856565b60405180910390f35b610612600480360381019061060d9190617928565b61227e565b005b61062e600480360381019061062991906176b1565b6125fa565b005b61064a60048036038101906106459190617e9b565b61270d565b005b61066660048036038101906106619190617f23565b61279c565b005b610670612898565b60405161067d9190617856565b60405180910390f35b61068e61289e565b60405161069b9190617880565b60405180910390f35b6106be60048036038101906106b99190617928565b6128c4565b005b6106da60048036038101906106d59190617d15565b6129bc565b6040516106e79190617856565b60405180910390f35b6106f8612a1a565b005b610702612b31565b60405161070f9190617880565b60405180910390f35b610732600480360381019061072d9190617928565b612b57565b604051610746989796959493929190617ffa565b60405180910390f35b61076960048036038101906107649190617e2f565b612c1a565b005b61078560048036038101906107809190617928565b61303c565b005b6107a1600480360381019061079c9190617714565b6131d9565b6040516107ae9190617856565b60405180910390f35b6107d160048036038101906107cc9190617cab565b613237565b6040516107de9190617638565b60405180910390f35b6107ef6132a2565b6040516107fc919061790d565b60405180910390f35b61081f600480360381019061081a91906176b1565b6132a9565b60405161082c9190617856565b60405180910390f35b61084f600480360381019061084a91906176b1565b6133b8565b60405161085d929190618087565b60405180910390f35b610880600480360381019061087b91906176b1565b613414565b60405161088d91906181da565b60405180910390f35b6108b060048036038101906108ab9190617e2f565b613662565b005b6108ba6139d4565b6040516108c79190617856565b60405180910390f35b6108ea60048036038101906108e59190617cab565b6139da565b005b61090660048036038101906109019190618235565b6139fb565b005b610910613a41565b60405161091d919061790d565b60405180910390f35b61092e613a65565b60405161093b9190617856565b60405180910390f35b61094c613a6b565b6040516109599190617880565b60405180910390f35b61096a613a91565b6040516109779190617880565b60405180910390f35b60007f7965db0b000000000000000000000000000000000000000000000000000000007bffffffffffffffffffffffffffffffffffffffffffffffffffffffff1916827bffffffffffffffffffffffffffffffffffffffffffffffffffffffff191614806109f357506109f282613ab7565b5b9050919050565b7f71840dc4906352362b0cdaf79870196c8e42acafade72d5d5a6d59291253ceb1610a2481613b21565b610a4e7f71840dc4906352362b0cdaf79870196c8e42acafade72d5d5a6d59291253ceb183613b35565b81601360006101000a81548173ffffffffffffffffffffffffffffffffffffffff021916908373ffffffffffffffffffffffffffffffffffffffff1602179055505050565b610a9b61747c565b601060008473ffffffffffffffffffffffffffffffffffffffff1673ffffffffffffffffffffffffffffffffffffffff16815260200190815260200160002080549050821115610b20576040517f08c379a0000000000000000000000000000000000000000000000000000000008152600401610b17906182bf565b60405180910390fd5b601060008473ffffffffffffffffffffffffffffffffffffffff1673ffffffffffffffffffffffffffffffffffffffff168152602001908152602001600020600183610b6c919061830e565b81548110610b7d57610b7c618342565b5b90600052602060002090600302016040518060c00160405290816000820160009054906101000a90046fffffffffffffffffffffffffffffffff166fffffffffffffffffffffffffffffffff166fffffffffffffffffffffffffffffffff1681526020016000820160109054906101000a90046fffffffffffffffffffffffffffffffff166fffffffffffffffffffffffffffffffff166fffffffffffffffffffffffffffffffff1681526020016001820160009054906101000a90046fffffffffffffffffffffffffffffffff166fffffffffffffffffffffffffffffffff166fffffffffffffffffffffffffffffffff1681526020016001820160109054906101000a90046fffffffffffffffffffffffffffffffff166fffffffffffffffffffffffffffffffff166fffffffffffffffffffffffffffffffff1681526020016002820160009054906101000a900467ffffffffffffffff1667ffffffffffffffff1667ffffffffffffffff1681526020016002820160089054906101000a900473ffffffffffffffffffffffffffffffffffffffff1673ffffffffffffffffffffffffffffffffffffffff1673ffffffffffffffffffffffffffffffffffffffff1681525050905092915050565b60035481565b600c60009054906101000a900473ffffffffffffffffffffffffffffffffffffffff1681565b60055481565b600060156000838152602001908152602001600020600101549050919050565b60175481601754161480610dbd5750610dbc6000801b33613237565b5b610dfc576040517f08c379a0000000000000000000000000000000000000000000000000000000008152600401610df3906183bd565b60405180910390fd5b8060178190555050565b6000610e1182613c16565b9050919050565b60008054906101000a900460ff1615610e66576040517f08c379a0000000000000000000000000000000000000000000000000000000008152600401610e5d90618429565b60405180910390fd5b610eab878b87600081518110610e7f57610e7e618342565b5b602002602001015188600081518110610e9b57610e9a618342565b5b60200260200101518a8a8a613cc4565b610eba8a8a8a8e87878761418d565b600d60009054906101000a900473ffffffffffffffffffffffffffffffffffffffff1673ffffffffffffffffffffffffffffffffffffffff1663240028e88b6040518263ffffffff1660e01b8152600401610f159190617880565b602060405180830381865afa158015610f32573d6000803e3d6000fd5b505050506040513d601f19601f82011682018060405250810190610f56919061845e565b610f95576040517f08c379a0000000000000000000000000000000000000000000000000000000008152600401610f8c906184d7565b60405180910390fd5b610f9f6000614530565b610fc97f930802d0eadfb856cb83e01d1c4daa3c89e9c6d9f74cfbe13124decf2b33128a33613b35565b610ff37f71840dc4906352362b0cdaf79870196c8e42acafade72d5d5a6d59291253ceb133613b35565b6000806040518060400160405280898152602001888152509050600f6040518061016001604052808b73ffffffffffffffffffffffffffffffffffffffff1681526020018b73ffffffffffffffffffffffffffffffffffffffff168152602001600b60009054906101000a900473ffffffffffffffffffffffffffffffffffffffff1673ffffffffffffffffffffffffffffffffffffffff16815260200160008152602001600081526020016000815260200160008152602001888152602001600081526020018381526020016002808111156110d3576110d2617f83565b5b81525090806001815401808255809150506001900390600052602060002090600c020160009091909190915060008201518160000160006101000a81548173ffffffffffffffffffffffffffffffffffffffff021916908373ffffffffffffffffffffffffffffffffffffffff16021790555060208201518160010160006101000a81548173ffffffffffffffffffffffffffffffffffffffff021916908373ffffffffffffffffffffffffffffffffffffffff16021790555060408201518160020160006101000a81548173ffffffffffffffffffffffffffffffffffffffff021916908373ffffffffffffffffffffffffffffffffffffffff160217905550606082015181600301556080820151816004015560a0820151816005015560c0820151816006015560e08201518160070155610100820151816008015561012082015181600901600082015181600001908051906020019061123792919061751a565b50602082015181600101908051906020019061125492919061751a565b50505061014082015181600b0160006101000a81548160ff0219169083600281111561128357611282617f83565b5b021790555050506001601360146101000a81548160ff02191690831515021790555060016000806101000a81548160ff0219169083151502179055508b73ffffffffffffffffffffffffffffffffffffffff168973ffffffffffffffffffffffffffffffffffffffff16837f16284487ea0f1368a3aac8128c3dd7d8e577839303a834c010386a8aea2265708a60008151811061132357611322618342565b5b60200260200101516040516113389190617856565b60405180910390a48b73ffffffffffffffffffffffffffffffffffffffff168973ffffffffffffffffffffffffffffffffffffffff16837f4396d7c3edc1447dac8dd2b7143af95840c926a210524a0d3198012c7fdf37c78a6000815181106113a4576113a3618342565b5b60200260200101516040516113b99190617856565b60405180910390a450505050505050505050505050565b60016000816017541614806113ee57506113ed6000801b33613237565b5b61142d576040517f08c379a000000000000000000000000000000000000000000000000000000000815260040161142490618543565b60405180910390fd5b7f71840dc4906352362b0cdaf79870196c8e42acafade72d5d5a6d59291253ceb161145781613b21565b60006007541161149c576040517f08c379a0000000000000000000000000000000000000000000000000000000008152600401611493906185af565b60405180910390fd5b6114a5836145dc565b505050565b60016000816017541614806114c857506114c76000801b33613237565b5b611507576040517f08c379a00000000000000000000000000000000000000000000000000000000081526004016114fe90618543565b60405180910390fd5b600e60003373ffffffffffffffffffffffffffffffffffffffff1673ffffffffffffffffffffffffffffffffffffffff168152602001908152602001600020600201600083815260200190815260200160002054421161159c576040517f08c379a00000000000000000000000000000000000000000000000000000000081526004016115939061861b565b60405180910390fd5b6115a5826146bb565b5050565b6115b282610d80565b6115bb81613b21565b6115c58383613b35565b505050565b600860149054906101000a900467ffffffffffffffff1681565b6115ec61485d565b600160008160175416148061160a57506116096000801b33613237565b5b611649576040517f08c379a000000000000000000000000000000000000000000000000000000000815260040161164090618543565b60405180910390fd5b60011515601360149054906101000a900460ff1615151461169f576040517f08c379a000000000000000000000000000000000000000000000000000000000815260040161169690618687565b60405180910390fd5b600082036116e2576040517f08c379a00000000000000000000000000000000000000000000000000000000081526004016116d9906186f3565b60405180910390fd5b601060003373ffffffffffffffffffffffffffffffffffffffff1673ffffffffffffffffffffffffffffffffffffffff16815260200190815260200160002080549050821115611767576040517f08c379a000000000000000000000000000000000000000000000000000000000815260040161175e9061875f565b60405180910390fd5b6000601060003373ffffffffffffffffffffffffffffffffffffffff1673ffffffffffffffffffffffffffffffffffffffff1681526020019081526020016000206001846117b5919061830e565b815481106117c6576117c5618342565b5b9060005260206000209060030201905060008160000160009054906101000a90046fffffffffffffffffffffffffffffffff166fffffffffffffffffffffffffffffffff161161184b576040517f08c379a0000000000000000000000000000000000000000000000000000000008152600401611842906187cb565b60405180910390fd5b428160020160009054906101000a900467ffffffffffffffff1667ffffffffffffffff16116118af576040517f08c379a00000000000000000000000000000000000000000000000000000000081526004016118a690618837565b60405180910390fd5b3373ffffffffffffffffffffffffffffffffffffffff168160020160089054906101000a900473ffffffffffffffffffffffffffffffffffffffff1673ffffffffffffffffffffffffffffffffffffffff1614611941576040517f08c379a0000000000000000000000000000000000000000000000000000000008152600401611938906188a3565b60405180910390fd5b6119496148ac565b60006003548260010160009054906101000a90046fffffffffffffffffffffffffffffffff166fffffffffffffffffffffffffffffffff1660025461198e91906188c3565b611998919061894c565b90506119a784828385336149bd565b5050506119b2614b08565b50565b6119bd614b12565b73ffffffffffffffffffffffffffffffffffffffff168173ffffffffffffffffffffffffffffffffffffffff1614611a2a576040517f08c379a0000000000000000000000000000000000000000000000000000000008152600401611a21906189ef565b60405180910390fd5b611a348282614b1a565b5050565b600a5481565b7f139c2898040ef16910dc9f44dc697df79363da767d8bc92f2e310312b816e46d81565b60125481565b7f930802d0eadfb856cb83e01d1c4daa3c89e9c6d9f74cfbe13124decf2b33128a611a9281613b21565b60008303611ad5576040517f08c379a0000000000000000000000000000000000000000000000000000000008152600401611acc90618a5b565b60405180910390fd5b6000600f8481548110611aeb57611aea618342565b5b90600052602060002090600c02019050600280811115611b0e57611b0d617f83565b5b81600b0160009054906101000a900460ff166002811115611b3257611b31617f83565b5b14611b72576040517f08c379a0000000000000000000000000000000000000000000000000000000008152600401611b6990618ac7565b60405180910390fd5b600081600b0160006101000a81548160ff02191690836002811115611b9a57611b99617f83565b5b0217905550600081600401548260030154611bb5919061830e565b90506000611be68360020160009054906101000a900473ffffffffffffffffffffffffffffffffffffffff16614bfc565b9050600d60009054906101000a900473ffffffffffffffffffffffffffffffffffffffff1673ffffffffffffffffffffffffffffffffffffffff1663da0c1a88868560020160009054906101000a900473ffffffffffffffffffffffffffffffffffffffff1684861115611c5a5784611c5c565b855b6040518463ffffffff1660e01b8152600401611c7a93929190618ae7565b600060405180830381600087803b158015611c9457600080fd5b505af1158015611ca8573d6000803e3d6000fd5b505050508260020160009054906101000a900473ffffffffffffffffffffffffffffffffffffffff1673ffffffffffffffffffffffffffffffffffffffff168360000160009054906101000a900473ffffffffffffffffffffffffffffffffffffffff1673ffffffffffffffffffffffffffffffffffffffff16877f661da9ced4b5d786f5b5f451a5f68af24721a01b0a65bb47fa4fdf70b80b887c60405160405180910390a4505050505050565b7f930802d0eadfb856cb83e01d1c4daa3c89e9c6d9f74cfbe13124decf2b33128a81565b7f930802d0eadfb856cb83e01d1c4daa3c89e9c6d9f74cfbe13124decf2b33128a611da581613b21565b611db488888888888888613cc4565b600d60009054906101000a900473ffffffffffffffffffffffffffffffffffffffff1673ffffffffffffffffffffffffffffffffffffffff1663240028e8886040518263ffffffff1660e01b8152600401611e0f9190617880565b602060405180830381865afa158015611e2c573d6000803e3d6000fd5b505050506040513d601f19601f82011682018060405250810190611e50919061845e565b611e8f576040517f08c379a0000000000000000000000000000000000000000000000000000000008152600401611e8690618b6a565b60405180910390fd5b600060405180604001604052808681526020018581525090506000600f805490509050600f6040518061016001604052808c73ffffffffffffffffffffffffffffffffffffffff1681526020013373ffffffffffffffffffffffffffffffffffffffff1681526020018b73ffffffffffffffffffffffffffffffffffffffff16815260200160008152602001600081526020018a81526020018981526020018681526020016000815260200184815260200160016002811115611f5557611f54617f83565b5b81525090806001815401808255809150506001900390600052602060002090600c020160009091909190915060008201518160000160006101000a81548173ffffffffffffffffffffffffffffffffffffffff021916908373ffffffffffffffffffffffffffffffffffffffff16021790555060208201518160010160006101000a81548173ffffffffffffffffffffffffffffffffffffffff021916908373ffffffffffffffffffffffffffffffffffffffff16021790555060408201518160020160006101000a81548173ffffffffffffffffffffffffffffffffffffffff021916908373ffffffffffffffffffffffffffffffffffffffff160217905550606082015181600301556080820151816004015560a0820151816005015560c0820151816006015560e0820151816007015561010082015181600801556101208201518160090160008201518160000190805190602001906120b992919061751a565b5060208201518160010190805190602001906120d692919061751a565b50505061014082015181600b0160006101000a81548160ff0219169083600281111561210557612104617f83565b5b021790555050508873ffffffffffffffffffffffffffffffffffffffff168a73ffffffffffffffffffffffffffffffffffffffff16827f16284487ea0f1368a3aac8128c3dd7d8e577839303a834c010386a8aea2265708b60405161216a9190617856565b60405180910390a450505050505050505050565b600160008160175416148061219c575061219b6000801b33613237565b5b6121db576040517f08c379a00000000000000000000000000000000000000000000000000000000081526004016121d290618543565b60405180910390fd5b601060003373ffffffffffffffffffffffffffffffffffffffff1673ffffffffffffffffffffffffffffffffffffffff16815260200190815260200160002080549050821115612260576040517f08c379a00000000000000000000000000000000000000000000000000000000081526004016122579061875f565b60405180910390fd5b6122686148ac565b612273338484614ca1565b505050565b60175481565b61228661485d565b60016000816017541614806122a457506122a36000801b33613237565b5b6122e3576040517f08c379a00000000000000000000000000000000000000000000000000000000081526004016122da90618543565b60405180910390fd5b60008203612326576040517f08c379a000000000000000000000000000000000000000000000000000000000815260040161231d906186f3565b60405180910390fd5b601060003373ffffffffffffffffffffffffffffffffffffffff1673ffffffffffffffffffffffffffffffffffffffff168152602001908152602001600020805490508211156123ab576040517f08c379a00000000000000000000000000000000000000000000000000000000081526004016123a29061875f565b60405180910390fd5b6000601060003373ffffffffffffffffffffffffffffffffffffffff1673ffffffffffffffffffffffffffffffffffffffff1681526020019081526020016000206001846123f9919061830e565b8154811061240a57612409618342565b5b9060005260206000209060030201905060008160000160009054906101000a90046fffffffffffffffffffffffffffffffff166fffffffffffffffffffffffffffffffff161161248f576040517f08c379a0000000000000000000000000000000000000000000000000000000008152600401612486906187cb565b60405180910390fd5b428160020160009054906101000a900467ffffffffffffffff1667ffffffffffffffff1611156124f4576040517f08c379a00000000000000000000000000000000000000000000000000000000081526004016124eb90618bd6565b60405180910390fd5b3373ffffffffffffffffffffffffffffffffffffffff168160020160089054906101000a900473ffffffffffffffffffffffffffffffffffffffff1673ffffffffffffffffffffffffffffffffffffffff1614612586576040517f08c379a000000000000000000000000000000000000000000000000000000000815260040161257d906188a3565b60405180910390fd5b61258e6148ac565b60006003548260010160009054906101000a90046fffffffffffffffffffffffffffffffff166fffffffffffffffffffffffffffffffff166002546125d391906188c3565b6125dd919061894c565b90506125ec84828385336150c8565b5050506125f7614b08565b50565b7f71840dc4906352362b0cdaf79870196c8e42acafade72d5d5a6d59291253ceb161262481613b21565b6000600860009054906101000a900473ffffffffffffffffffffffffffffffffffffffff16905082600860006101000a81548173ffffffffffffffffffffffffffffffffffffffff021916908373ffffffffffffffffffffffffffffffffffffffff160217905550600860009054906101000a900473ffffffffffffffffffffffffffffffffffffffff1673ffffffffffffffffffffffffffffffffffffffff168173ffffffffffffffffffffffffffffffffffffffff167f1db696c9becb6c7e5b140934fe902d723d35791ef36d36c9b1586f6a502fd29760405160405180910390a3505050565b7f71840dc4906352362b0cdaf79870196c8e42acafade72d5d5a6d59291253ceb161273781613b21565b6000601360149054906101000a900460ff16905082601360146101000a81548160ff0219169083151502179055508215158115157f6cd354be06b6c3ce9871ee8831b718be7a99ce8fe7c914e03ee420fa85bc6a7560405160405180910390a3505050565b60016000816017541614806127ba57506127b96000801b33613237565b5b6127f9576040517f08c379a00000000000000000000000000000000000000000000000000000000081526004016127f090618543565b60405180910390fd5b601060003373ffffffffffffffffffffffffffffffffffffffff1673ffffffffffffffffffffffffffffffffffffffff1681526020019081526020016000208054905082111561287e576040517f08c379a00000000000000000000000000000000000000000000000000000000081526004016128759061875f565b60405180910390fd5b6128866148ac565b6128923385858561529e565b50505050565b60045481565b601360009054906101000a900473ffffffffffffffffffffffffffffffffffffffff1681565b60016000816017541614806128e257506128e16000801b33613237565b5b612921576040517f08c379a000000000000000000000000000000000000000000000000000000000815260040161291890618543565b60405180910390fd5b601060003373ffffffffffffffffffffffffffffffffffffffff1673ffffffffffffffffffffffffffffffffffffffff168152602001908152602001600020805490508211156129a6576040517f08c379a000000000000000000000000000000000000000000000000000000000815260040161299d9061875f565b60405180910390fd5b6129ae6148ac565b6129b83383615361565b5050565b6000600e60008373ffffffffffffffffffffffffffffffffffffffff1673ffffffffffffffffffffffffffffffffffffffff168152602001908152602001600020600101600084815260200190815260200160002054905092915050565b6001600081601754161480612a385750612a376000801b33613237565b5b612a77576040517f08c379a0000000000000000000000000000000000000000000000000000000008152600401612a6e90618543565b60405180910390fd5b6000600e60003373ffffffffffffffffffffffffffffffffffffffff1673ffffffffffffffffffffffffffffffffffffffff16815260200190815260200160002090506000600f80549050905060005b81811015612b2b5760008360010160008381526020019081526020016000205414158015612b0957508260020160008281526020019081526020016000205442115b15612b1857612b17816146bb565b5b8080612b2390618bf6565b915050612ac7565b50505050565b600b60009054906101000a900473ffffffffffffffffffffffffffffffffffffffff1681565b6000806000806000806000806000600f8a81548110612b7957612b78618342565b5b90600052602060002090600c020190508060000160009054906101000a900473ffffffffffffffffffffffffffffffffffffffff168160020160009054906101000a900473ffffffffffffffffffffffffffffffffffffffff168260030154836004015484600501548560080154866007015487600b0160009054906101000a900460ff169850985098509850985098509850985050919395975091939597565b6001600081601754161480612c385750612c376000801b33613237565b5b612c77576040517f08c379a0000000000000000000000000000000000000000000000000000000008152600401612c6e90618543565b60405180910390fd5b6000600f8481548110612c8d57612c8c618342565b5b90600052602060002090600c0201905060016002811115612cb157612cb0617f83565b5b81600b0160009054906101000a900460ff166002811115612cd557612cd4617f83565b5b14612d15576040517f08c379a0000000000000000000000000000000000000000000000000000000008152600401612d0c90618c8a565b60405180910390fd5b4281600901600001600081548110612d3057612d2f618342565b5b90600052602060002001541015612d7c576040517f08c379a0000000000000000000000000000000000000000000000000000000008152600401612d7390618cf6565b60405180910390fd5b8060050154831115612dc3576040517f08c379a0000000000000000000000000000000000000000000000000000000008152600401612dba90618d62565b60405180910390fd5b8060060154831015612e0a576040517f08c379a0000000000000000000000000000000000000000000000000000000008152600401612e0190618dce565b60405180910390fd5b600281600b0160006101000a81548160ff02191690836002811115612e3257612e31617f83565b5b02179055508281600301819055508060050154831015612e5757612e5684846153fc565b5b806003015481600901600101600081548110612e7657612e75618342565b5b906000526020600020015414612ec1576040517f08c379a0000000000000000000000000000000000000000000000000000000008152600401612eb890618e3a565b60405180910390fd5b8060020160009054906101000a900473ffffffffffffffffffffffffffffffffffffffff1673ffffffffffffffffffffffffffffffffffffffff168160000160009054906101000a900473ffffffffffffffffffffffffffffffffffffffff1673ffffffffffffffffffffffffffffffffffffffff16857f4396d7c3edc1447dac8dd2b7143af95840c926a210524a0d3198012c7fdf37c786604051612f679190617856565b60405180910390a48060020160009054906101000a900473ffffffffffffffffffffffffffffffffffffffff1673ffffffffffffffffffffffffffffffffffffffff166323b872dd33600d60009054906101000a900473ffffffffffffffffffffffffffffffffffffffff16866040518463ffffffff1660e01b8152600401612ff293929190618ae7565b6020604051808303816000875af1158015613011573d6000803e3d6000fd5b505050506040513d601f19601f82011682018060405250810190613035919061845e565b5050505050565b7f930802d0eadfb856cb83e01d1c4daa3c89e9c6d9f74cfbe13124decf2b33128a61306681613b21565b6000600f838154811061307c5761307b618342565b5b90600052602060002090600c02019050600160028111156130a05761309f617f83565b5b81600b0160009054906101000a900460ff1660028111156130c4576130c3617f83565b5b14613104576040517f08c379a00000000000000000000000000000000000000000000000000000000081526004016130fb90618ea6565b60405180910390fd5b600081600b0160006101000a81548160ff0219169083600281111561312c5761312b617f83565b5b02179055508060020160009054906101000a900473ffffffffffffffffffffffffffffffffffffffff1673ffffffffffffffffffffffffffffffffffffffff168160000160009054906101000a900473ffffffffffffffffffffffffffffffffffffffff1673ffffffffffffffffffffffffffffffffffffffff16847ffadbcbd495527ce5e10fd0cceba57d404a4625dd6ce0499c254ac523789ef3ad60405160405180910390a4505050565b6000600e60008473ffffffffffffffffffffffffffffffffffffffff1673ffffffffffffffffffffffffffffffffffffffff168152602001908152602001600020600101600083815260200190815260200160002054905092915050565b60006015600084815260200190815260200160002060000160008373ffffffffffffffffffffffffffffffffffffffff1673ffffffffffffffffffffffffffffffffffffffff16815260200190815260200160002060009054906101000a900460ff16905092915050565b6000801b81565b6000806000905060005b601060008573ffffffffffffffffffffffffffffffffffffffff1673ffffffffffffffffffffffffffffffffffffffff168152602001908152602001600020805490508110156133ae57601060008573ffffffffffffffffffffffffffffffffffffffff1673ffffffffffffffffffffffffffffffffffffffff168152602001908152602001600020818154811061334e5761334d618342565b5b906000526020600020906003020160000160009054906101000a90046fffffffffffffffffffffffffffffffff166fffffffffffffffffffffffffffffffff16826133999190618ec6565b915080806133a690618bf6565b9150506132b3565b5080915050919050565b600e6020528060005260406000206000915090508060000160009054906101000a90046fffffffffffffffffffffffffffffffff16908060000160109054906101000a90046fffffffffffffffffffffffffffffffff16905082565b6060601060008373ffffffffffffffffffffffffffffffffffffffff1673ffffffffffffffffffffffffffffffffffffffff168152602001908152602001600020805480602002602001604051908101604052809291908181526020016000905b8282101561365757838290600052602060002090600302016040518060c00160405290816000820160009054906101000a90046fffffffffffffffffffffffffffffffff166fffffffffffffffffffffffffffffffff166fffffffffffffffffffffffffffffffff1681526020016000820160109054906101000a90046fffffffffffffffffffffffffffffffff166fffffffffffffffffffffffffffffffff166fffffffffffffffffffffffffffffffff1681526020016001820160009054906101000a90046fffffffffffffffffffffffffffffffff166fffffffffffffffffffffffffffffffff166fffffffffffffffffffffffffffffffff1681526020016001820160109054906101000a90046fffffffffffffffffffffffffffffffff166fffffffffffffffffffffffffffffffff166fffffffffffffffffffffffffffffffff1681526020016002820160009054906101000a900467ffffffffffffffff1667ffffffffffffffff1667ffffffffffffffff1681526020016002820160089054906101000a900473ffffffffffffffffffffffffffffffffffffffff1673ffffffffffffffffffffffffffffffffffffffff1673ffffffffffffffffffffffffffffffffffffffff168152505081526020019060010190613475565b505050509050919050565b61366a61485d565b600160008160175416148061368857506136876000801b33613237565b5b6136c7576040517f08c379a00000000000000000000000000000000000000000000000000000000081526004016136be90618543565b60405180910390fd5b601254601060003373ffffffffffffffffffffffffffffffffffffffff1673ffffffffffffffffffffffffffffffffffffffff16815260200190815260200160002080549050111561374e576040517f08c379a000000000000000000000000000000000000000000000000000000000815260040161374590618f68565b60405180910390fd5b60008311613791576040517f08c379a000000000000000000000000000000000000000000000000000000000815260040161378890618fd4565b60405180910390fd5b61379a42615518565b600082036137a6574291505b428210156137e9576040517f08c379a00000000000000000000000000000000000000000000000000000000081526004016137e090619040565b60405180910390fd5b62093a806301e133806137fc9190618ec6565b426138079190618ec6565b821115613849576040517f08c379a0000000000000000000000000000000000000000000000000000000008152600401613840906190ac565b60405180910390fd5b6138516148ac565b60006040518060c0016040528060006fffffffffffffffffffffffffffffffff16815260200160006fffffffffffffffffffffffffffffffff16815260200160006fffffffffffffffffffffffffffffffff16815260200160006fffffffffffffffffffffffffffffffff1681526020016138cb856155b1565b67ffffffffffffffff1681526020013373ffffffffffffffffffffffffffffffffffffffff168152509050613901338286615608565b600b60009054906101000a900473ffffffffffffffffffffffffffffffffffffffff1673ffffffffffffffffffffffffffffffffffffffff166323b872dd33600d60009054906101000a900473ffffffffffffffffffffffffffffffffffffffff16876040518463ffffffff1660e01b815260040161398293929190618ae7565b6020604051808303816000875af11580156139a1573d6000803e3d6000fd5b505050506040513d601f19601f820116820180604052508101906139c5919061845e565b5050506139d0614b08565b5050565b60025481565b6139e382610d80565b6139ec81613b21565b6139f68383614b1a565b505050565b600060125490508160ff166012819055508160ff16817f46a30b28ed71185fea149df29e60cb4e801e2371324ab100861181aaa4e28b6d60405160405180910390a35050565b7f71840dc4906352362b0cdaf79870196c8e42acafade72d5d5a6d59291253ceb181565b60075481565b601660009054906101000a900473ffffffffffffffffffffffffffffffffffffffff1681565b600d60009054906101000a900473ffffffffffffffffffffffffffffffffffffffff1681565b60007f01ffc9a7000000000000000000000000000000000000000000000000000000007bffffffffffffffffffffffffffffffffffffffffffffffffffffffff1916827bffffffffffffffffffffffffffffffffffffffffffffffffffffffff1916149050919050565b613b3281613b2d614b12565b61599e565b50565b613b3f8282613237565b613c125760016015600084815260200190815260200160002060000160008373ffffffffffffffffffffffffffffffffffffffff1673ffffffffffffffffffffffffffffffffffffffff16815260200190815260200160002060006101000a81548160ff021916908315150217905550613bb7614b12565b73ffffffffffffffffffffffffffffffffffffffff168173ffffffffffffffffffffffffffffffffffffffff16837f2f8788117e7eff1d82e926ec794901d17c78024a50270940304540a733656f0d60405160405180910390a45b5050565b60008060045403613c5c576040517f08c379a0000000000000000000000000000000000000000000000000000000008152600401613c5390619118565b60405180910390fd5b6004546c7e37be2022c0914b2680000000613c7984600154615a3b565b613c8391906188c3565b613c8d919061894c565b600f8381548110613ca157613ca0618342565b5b90600052602060002090600c020160080154613cbd9190618ec6565b9050919050565b600073ffffffffffffffffffffffffffffffffffffffff168773ffffffffffffffffffffffffffffffffffffffff1603613d33576040517f08c379a0000000000000000000000000000000000000000000000000000000008152600401613d2a90619184565b60405180910390fd5b600073ffffffffffffffffffffffffffffffffffffffff168673ffffffffffffffffffffffffffffffffffffffff1603613da2576040517f08c379a0000000000000000000000000000000000000000000000000000000008152600401613d99906191f0565b60405180910390fd5b60008511613de5576040517f08c379a0000000000000000000000000000000000000000000000000000000008152600401613ddc9061925c565b60405180910390fd5b60008411613e28576040517f08c379a0000000000000000000000000000000000000000000000000000000008152600401613e1f906192c8565b60405180910390fd5b84841115613e6b576040517f08c379a0000000000000000000000000000000000000000000000000000000008152600401613e6290619334565b60405180910390fd5b81600081518110613e7f57613e7e618342565b5b60200260200101518514613ec8576040517f08c379a0000000000000000000000000000000000000000000000000000000008152600401613ebf906193c6565b60405180910390fd5b4283600081518110613edd57613edc618342565b5b602002602001015111613f25576040517f08c379a0000000000000000000000000000000000000000000000000000000008152600401613f1c90619432565b60405180910390fd5b8151835114613f69576040517f08c379a0000000000000000000000000000000000000000000000000000000008152600401613f60906194c4565b60405180910390fd5b600283511015613fae576040517f08c379a0000000000000000000000000000000000000000000000000000000008152600401613fa590619530565b60405180910390fd5b60008103613ff1576040517f08c379a0000000000000000000000000000000000000000000000000000000008152600401613fe89061959c565b60405180910390fd5b6000600190505b8351811015614119578360018261400f919061830e565b815181106140205761401f618342565b5b602002602001015184828151811061403b5761403a618342565b5b602002602001015111614083576040517f08c379a000000000000000000000000000000000000000000000000000000000815260040161407a90619608565b60405180910390fd5b82600182614091919061830e565b815181106140a2576140a1618342565b5b60200260200101518382815181106140bd576140bc618342565b5b60200260200101511115614106576040517f08c379a00000000000000000000000000000000000000000000000000000000081526004016140fd90619674565b60405180910390fd5b808061411190618bf6565b915050613ff8565b506000826001845161412b919061830e565b8151811061413c5761413b618342565b5b602002602001015114614184576040517f08c379a000000000000000000000000000000000000000000000000000000000815260040161417b906196e0565b60405180910390fd5b50505050505050565b600073ffffffffffffffffffffffffffffffffffffffff168773ffffffffffffffffffffffffffffffffffffffff16036141fc576040517f08c379a00000000000000000000000000000000000000000000000000000000081526004016141f39061974c565b60405180910390fd5b600073ffffffffffffffffffffffffffffffffffffffff168673ffffffffffffffffffffffffffffffffffffffff160361426b576040517f08c379a0000000000000000000000000000000000000000000000000000000008152600401614262906197b8565b60405180910390fd5b600073ffffffffffffffffffffffffffffffffffffffff168473ffffffffffffffffffffffffffffffffffffffff16036142da576040517f08c379a00000000000000000000000000000000000000000000000000000000081526004016142d190619824565b60405180910390fd5b846020015163ffffffff16856000015163ffffffff1611614330576040517f08c379a000000000000000000000000000000000000000000000000000000000815260040161432790619890565b60405180910390fd5b846060015163ffffffff16856040015163ffffffff1611614386576040517f08c379a000000000000000000000000000000000000000000000000000000000815260040161437d906198fc565b60405180910390fd5b86600b60006101000a81548173ffffffffffffffffffffffffffffffffffffffff021916908373ffffffffffffffffffffffffffffffffffffffff16021790555085600c60006101000a81548173ffffffffffffffffffffffffffffffffffffffff021916908373ffffffffffffffffffffffffffffffffffffffff16021790555084601160008201518160000160006101000a81548163ffffffff021916908363ffffffff16021790555060208201518160000160046101000a81548163ffffffff021916908363ffffffff16021790555060408201518160000160086101000a81548163ffffffff021916908363ffffffff160217905550606082015181600001600c6101000a81548163ffffffff021916908363ffffffff16021790555060808201518160000160106101000a81548163ffffffff021916908363ffffffff16021790555090505083600d60006101000a81548173ffffffffffffffffffffffffffffffffffffffff021916908373ffffffffffffffffffffffffffffffffffffffff1602179055508260098190555081600a819055508060128190555050505050505050565b601860009054906101000a900460ff1615614580576040517f08c379a000000000000000000000000000000000000000000000000000000000815260040161457790619968565b60405180910390fd5b61458d6000801b33613b35565b6145b77f139c2898040ef16910dc9f44dc697df79363da767d8bc92f2e310312b816e46d33613b35565b806017819055506001601860006101000a81548160ff02191690831515021790555050565b60006007549050600060078190555080600660008282546145fd9190618ec6565b92505081905550600d60009054906101000a900473ffffffffffffffffffffffffffffffffffffffff1673ffffffffffffffffffffffffffffffffffffffff1663da0c1a8883600b60009054906101000a900473ffffffffffffffffffffffffffffffffffffffff16846040518463ffffffff1660e01b815260040161468593929190618ae7565b600060405180830381600087803b15801561469f57600080fd5b505af11580156146b3573d6000803e3d6000fd5b505050505050565b6000600e60003373ffffffffffffffffffffffffffffffffffffffff1673ffffffffffffffffffffffffffffffffffffffff168152602001908152602001600020905060008160010160008481526020019081526020016000205490506000826001016000858152602001908152602001600020819055503373ffffffffffffffffffffffffffffffffffffffff16837f3bfce8de0db7450cc169b94323c210e69a36c6a4a58c9f5d96bec4973adce3928360405161477a9190617856565b60405180910390a3600d60009054906101000a900473ffffffffffffffffffffffffffffffffffffffff1673ffffffffffffffffffffffffffffffffffffffff1663da0c1a8833600f86815481106147d5576147d4618342565b5b90600052602060002090600c020160020160009054906101000a900473ffffffffffffffffffffffffffffffffffffffff16846040518463ffffffff1660e01b815260040161482693929190618ae7565b600060405180830381600087803b15801561484057600080fd5b505af1158015614854573d6000803e3d6000fd5b50505050505050565b6002601454036148a2576040517f08c379a0000000000000000000000000000000000000000000000000000000008152600401614899906199d4565b60405180910390fd5b6002601481905550565b4260015403156149bb576000600f8054905090506000600354141580156148d4575060008114155b156149b2576148e66000600154615a3b565b600260008282546148f79190618ec6565b925050819055506000600190505b818110156149b0576002808111156149205761491f617f83565b5b600f828154811061493457614933618342565b5b90600052602060002090600c0201600b0160009054906101000a900460ff16600281111561496557614964617f83565b5b0361499d5761497381613c16565b600f828154811061498757614986618342565b5b90600052602060002090600c0201600801819055505b80806149a890618bf6565b915050614905565b505b42600181905550505b565b60008260020160009054906101000a900467ffffffffffffffff1667ffffffffffffffff1690506149f186868686866150c8565b60006149fd8242615bc0565b90506000620186a08783614a1191906188c3565b614a1b919061894c565b90506000600e60008673ffffffffffffffffffffffffffffffffffffffff1673ffffffffffffffffffffffffffffffffffffffff168152602001908152602001600020905081816001016000808152602001908152602001600020541015614ab8576040517f08c379a0000000000000000000000000000000000000000000000000000000008152600401614aaf90619a40565b60405180910390fd5b818160010160008081526020019081526020016000206000828254614add919061830e565b925050819055508160076000828254614af69190618ec6565b92505081905550505050505050505050565b6001601481905550565b600033905090565b614b248282613237565b15614bf85760006015600084815260200190815260200160002060000160008373ffffffffffffffffffffffffffffffffffffffff1673ffffffffffffffffffffffffffffffffffffffff16815260200190815260200160002060006101000a81548160ff021916908315150217905550614b9d614b12565b73ffffffffffffffffffffffffffffffffffffffff168173ffffffffffffffffffffffffffffffffffffffff16837ff6391f5c32d9c69d2a47ea670b442974b53935d1edc7fd64eb21e047a839171b60405160405180910390a45b5050565b60008173ffffffffffffffffffffffffffffffffffffffff166370a08231600d60009054906101000a900473ffffffffffffffffffffffffffffffffffffffff166040518263ffffffff1660e01b8152600401614c599190617880565b602060405180830381865afa158015614c76573d6000803e3d6000fd5b505050506040513d601f19601f82011682018060405250810190614c9a9190619a75565b9050919050565b6000601060008573ffffffffffffffffffffffffffffffffffffffff1673ffffffffffffffffffffffffffffffffffffffff168152602001908152602001600020600183614cef919061830e565b81548110614d0057614cff618342565b5b9060005260206000209060030201905060008303614d53576040517f08c379a0000000000000000000000000000000000000000000000000000000008152600401614d4a90619aee565b60405180910390fd5b600280811115614d6657614d65617f83565b5b600f8481548110614d7a57614d79618342565b5b90600052602060002090600c0201600b0160009054906101000a900460ff166002811115614dab57614daa617f83565b5b14614deb576040517f08c379a0000000000000000000000000000000000000000000000000000000008152600401614de290619b5a565b60405180910390fd5b6000600e60008673ffffffffffffffffffffffffffffffffffffffff1673ffffffffffffffffffffffffffffffffffffffff168152602001908152602001600020905060008260010160009054906101000a90046fffffffffffffffffffffffffffffffff166fffffffffffffffffffffffffffffffff1603614ea3576040517f08c379a0000000000000000000000000000000000000000000000000000000008152600401614e9a90619bc6565b60405180910390fd5b60006c7e37be2022c0914b26800000008360010160109054906101000a90046fffffffffffffffffffffffffffffffff166fffffffffffffffffffffffffffffffff16836003016000878152602001908152602001600020600088815260200190815260200160002054600f8881548110614f2157614f20618342565b5b90600052602060002090600c020160080154614f3d919061830e565b614f4791906188c3565b614f51919061894c565b905060008103614f63575050506150c3565b808260010160008781526020019081526020016000206000828254614f889190618ec6565b92505081905550600f8581548110614fa357614fa2618342565b5b90600052602060002090600c020160080154826003016000868152602001908152602001600020600087815260200190815260200160002081905550600f8581548110614ff357614ff2618342565b5b90600052602060002090600c020160070154426150109190618ec6565b8260020160008781526020019081526020016000208190555080600f868154811061503e5761503d618342565b5b90600052602060002090600c0201600401600082825461505e9190618ec6565b92505081905550816001016000868152602001908152602001600020548673ffffffffffffffffffffffffffffffffffffffff16867f5f1c6be51c8ec7fa7e7ddd9f798ec55927b06cfc8d9159987d1ae3358cb10b5960405160405180910390a45050505b505050565b6000600e60008373ffffffffffffffffffffffffffffffffffffffff1673ffffffffffffffffffffffffffffffffffffffff168152602001908152602001600020905060008360000160109054906101000a90046fffffffffffffffffffffffffffffffff166fffffffffffffffffffffffffffffffff16905061514c8483615cbd565b6151598685878a87615e0f565b6000600c60009054906101000a900473ffffffffffffffffffffffffffffffffffffffff1673ffffffffffffffffffffffffffffffffffffffff166370a08231856040518263ffffffff1660e01b81526004016151b69190617880565b602060405180830381865afa1580156151d3573d6000803e3d6000fd5b505050506040513d601f19601f820116820180604052508101906151f79190619a75565b905081811015615205578091505b600c60009054906101000a900473ffffffffffffffffffffffffffffffffffffffff1673ffffffffffffffffffffffffffffffffffffffff16639dc29fac85846040518363ffffffff1660e01b8152600401615262929190619be6565b600060405180830381600087803b15801561527c57600080fd5b505af1158015615290573d6000803e3d6000fd5b505050505050505050505050565b60005b8383905081101561535a576002808111156152bf576152be617f83565b5b600f8585848181106152d4576152d3618342565b5b90506020020135815481106152ec576152eb618342565b5b90600052602060002090600c0201600b0160009054906101000a900460ff16600281111561531d5761531c617f83565b5b03615347576153468585858481811061533957615338618342565b5b9050602002013584614ca1565b5b808061535290618bf6565b9150506152a1565b5050505050565b6000600f8054905090506000600190505b818110156153f65760028081111561538d5761538c617f83565b5b600f82815481106153a1576153a0618342565b5b90600052602060002090600c0201600b0160009054906101000a900460ff1660028111156153d2576153d1617f83565b5b036153e3576153e2848285614ca1565b5b80806153ee90618bf6565b915050615372565b50505050565b6000600f838154811061541257615411618342565b5b90600052602060002090600c020160090160010180549050905060005b8181101561551257600f848154811061544b5761544a618342565b5b90600052602060002090600c02016005015483600f868154811061547257615471618342565b5b90600052602060002090600c0201600901600101838154811061549857615497618342565b5b90600052602060002001546154ad91906188c3565b6154b7919061894c565b600f85815481106154cb576154ca618342565b5b90600052602060002090600c020160090160010182815481106154f1576154f0618342565b5b9060005260206000200181905550808061550a90618bf6565b91505061542f565b50505050565b6155ae8160405160240161552c9190617856565b6040516020818303038152906040527ff82c50f1000000000000000000000000000000000000000000000000000000007bffffffffffffffffffffffffffffffffffffffffffffffffffffffff19166020820180517bffffffffffffffffffffffffffffffffffffffffffffffffffffffff8381831617835250505050615fd0565b50565b600067ffffffffffffffff8016821115615600576040517f08c379a00000000000000000000000000000000000000000000000000000000081526004016155f790619c5b565b60405180910390fd5b819050919050565b600042836080015167ffffffffffffffff16615624919061830e565b90506000615633838387615ff9565b905061563e816160dd565b8460200181815161564f9190619c7b565b9150906fffffffffffffffffffffffffffffffff1690816fffffffffffffffffffffffffffffffff168152505060008311156156cd5761568e836160dd565b8460000181815161569f9190619c7b565b9150906fffffffffffffffffffffffffffffffff1690816fffffffffffffffffffffffffffffffff16815250505b601060008673ffffffffffffffffffffffffffffffffffffffff1673ffffffffffffffffffffffffffffffffffffffff16815260200190815260200160002084908060018154018082558091505060019003906000526020600020906003020160009091909190915060008201518160000160006101000a8154816fffffffffffffffffffffffffffffffff02191690836fffffffffffffffffffffffffffffffff16021790555060208201518160000160106101000a8154816fffffffffffffffffffffffffffffffff02191690836fffffffffffffffffffffffffffffffff16021790555060408201518160010160006101000a8154816fffffffffffffffffffffffffffffffff02191690836fffffffffffffffffffffffffffffffff16021790555060608201518160010160106101000a8154816fffffffffffffffffffffffffffffffff02191690836fffffffffffffffffffffffffffffffff16021790555060808201518160020160006101000a81548167ffffffffffffffff021916908367ffffffffffffffff16021790555060a08201518160020160086101000a81548173ffffffffffffffffffffffffffffffffffffffff021916908373ffffffffffffffffffffffffffffffffffffffff16021790555050506000601060008773ffffffffffffffffffffffffffffffffffffffff1673ffffffffffffffffffffffffffffffffffffffff1681526020019081526020016000208054905090506158fd8685848461613c565b600082111561599657600c60009054906101000a900473ffffffffffffffffffffffffffffffffffffffff1673ffffffffffffffffffffffffffffffffffffffff166340c10f1987846040518363ffffffff1660e01b8152600401615963929190619be6565b600060405180830381600087803b15801561597d57600080fd5b505af1158015615991573d6000803e3d6000fd5b505050505b505050505050565b6159a88282613237565b615a37576159cd8173ffffffffffffffffffffffffffffffffffffffff1660146163f1565b6159db8360001c60206163f1565b6040516020016159ec929190619dd3565b6040516020818303038152906040526040517f08c379a0000000000000000000000000000000000000000000000000000000008152600401615a2e9190619e46565b60405180910390fd5b5050565b600042821115615a80576040517f08c379a0000000000000000000000000000000000000000000000000000000008152600401615a7790619eda565b60405180910390fd5b428203615a905760009050615bba565b6000600f8481548110615aa657615aa5618342565b5b90600052602060002090600c0201600901600001600081548110615acd57615acc618342565b5b90600052602060002001549050804211615aeb576000915050615bba565b6000600f8581548110615b0157615b00618342565b5b90600052602060002090600c02016009016000016001600f8781548110615b2b57615b2a618342565b5b90600052602060002090600c020160090160000180549050615b4d919061830e565b81548110615b5e57615b5d618342565b5b90600052602060002001549050808410615b7d57600092505050615bba565b60008083861115615b9057859150615b94565b8391505b82421015615ba457429050615ba8565b8290505b615bb387838361662d565b9450505050505b92915050565b60008083905060008382615bd4919061830e565b9050818410615be857600092505050615cb7565b62093a806301e13380615bfb9190618ec6565b816011600001600c9054906101000a900463ffffffff16601160000160089054906101000a900463ffffffff16615c329190619efa565b601160000160109054906101000a900463ffffffff16615c529190619f2e565b63ffffffff16615c6291906188c3565b615c6c919061894c565b6011600001600c9054906101000a900463ffffffff16601160000160109054906101000a900463ffffffff16615ca29190619f2e565b63ffffffff16615cb29190618ec6565b925050505b92915050565b60008260000160109054906101000a90046fffffffffffffffffffffffffffffffff166fffffffffffffffffffffffffffffffff16905060008360000160106101000a8154816fffffffffffffffffffffffffffffffff02191690836fffffffffffffffffffffffffffffffff1602179055508060056000828254615d42919061830e565b925050819055506000818360000160009054906101000a90046fffffffffffffffffffffffffffffffff166fffffffffffffffffffffffffffffffff161115615dc657818360000160009054906101000a90046fffffffffffffffffffffffffffffffff166fffffffffffffffffffffffffffffffff16615dc3919061830e565b90505b615dcf816160dd565b8360000160006101000a8154816fffffffffffffffffffffffffffffffff02191690836fffffffffffffffffffffffffffffffff16021790555050505050565b6000600e60008373ffffffffffffffffffffffffffffffffffffffff1673ffffffffffffffffffffffffffffffffffffffff16815260200190815260200160002090508360026000828254615e64919061830e565b925050819055508460010160109054906101000a90046fffffffffffffffffffffffffffffffff166fffffffffffffffffffffffffffffffff1660046000828254615eaf919061830e565b925050819055508460010160009054906101000a90046fffffffffffffffffffffffffffffffff166fffffffffffffffffffffffffffffffff1660036000828254615efa919061830e565b92505081905550858160010160008081526020019081526020016000206000828254615f269190618ec6565b92505081905550600f600081548110615f4257615f41618342565b5b90600052602060002090600c02016007015442615f5f9190618ec6565b8160020160008081526020019081526020016000208190555082868373ffffffffffffffffffffffffffffffffffffffff167f7fc4727e062e336010f2c282598ef5f14facb3de68cf8195c2f23e1454b2b74e60405160405180910390a4615fc88183856169c7565b505050505050565b60008151905060006a636f6e736f6c652e6c6f679050602083016000808483855afa5050505050565b600080600e60008473ffffffffffffffffffffffffffffffffffffffff1673ffffffffffffffffffffffffffffffffffffffff168152602001908152602001600020905060006160498686616f21565b9050616054816160dd565b8260000160008282829054906101000a90046fffffffffffffffffffffffffffffffff166160829190619c7b565b92506101000a8154816fffffffffffffffffffffffffffffffff02191690836fffffffffffffffffffffffffffffffff16021790555080600560008282546160ca9190618ec6565b9250508190555080925050509392505050565b60006fffffffffffffffffffffffffffffffff8016821115616134576040517f08c379a000000000000000000000000000000000000000000000000000000000815260040161612b90619fb8565b60405180910390fd5b819050919050565b6000600e60008673ffffffffffffffffffffffffffffffffffffffff1673ffffffffffffffffffffffffffffffffffffffff16815260200190815260200160002090506000601060008773ffffffffffffffffffffffffffffffffffffffff1673ffffffffffffffffffffffffffffffffffffffff1681526020019081526020016000206001846161cd919061830e565b815481106161de576161dd618342565b5b9060005260206000209060030201905060006161f986616f6a565b9050856002600082825461620d9190618ec6565b9250508190555080600360008282546162269190618ec6565b92505081905550600061623a828742616fd5565b9050806004600082825461624e9190618ec6565b9250508190555061625e816160dd565b8360010160108282829054906101000a90046fffffffffffffffffffffffffffffffff1661628c9190619c7b565b92506101000a8154816fffffffffffffffffffffffffffffffff02191690836fffffffffffffffffffffffffffffffff1602179055506162cb826160dd565b8360010160008282829054906101000a90046fffffffffffffffffffffffffffffffff166162f99190619c7b565b92506101000a8154816fffffffffffffffffffffffffffffffff02191690836fffffffffffffffffffffffffffffffff1602179055506000600f8054905090506000600190505b818110156163ab57600f818154811061635c5761635b618342565b5b90600052602060002090600c02016008015486600301600089815260200190815260200160002060008381526020019081526020016000208190555080806163a390618bf6565b915050616340565b508587837fb4caaf29adda3eefee3ad552a8e85058589bf834c7466cae4ee58787f70589ed8c6040516163de9190617880565b60405180910390a4505050505050505050565b60606000600283600261640491906188c3565b61640e9190618ec6565b67ffffffffffffffff8111156164275761642661796b565b5b6040519080825280601f01601f1916602001820160405280156164595781602001600182028036833780820191505090505b5090507f30000000000000000000000000000000000000000000000000000000000000008160008151811061649157616490618342565b5b60200101907effffffffffffffffffffffffffffffffffffffffffffffffffffffffffffff1916908160001a9053507f7800000000000000000000000000000000000000000000000000000000000000816001815181106164f5576164f4618342565b5b60200101907effffffffffffffffffffffffffffffffffffffffffffffffffffffffffffff1916908160001a9053506000600184600261653591906188c3565b61653f9190618ec6565b90505b60018111156165df577f3031323334353637383961626364656600000000000000000000000000000000600f86166010811061658157616580618342565b5b1a60f81b82828151811061659857616597618342565b5b60200101907effffffffffffffffffffffffffffffffffffffffffffffffffffffffffffff1916908160001a905350600485901c9450806165d890619fd8565b9050616542565b5060008414616623576040517f08c379a000000000000000000000000000000000000000000000000000000000815260040161661a9061a04d565b60405180910390fd5b8091505092915050565b600080600f858154811061664457616643618342565b5b90600052602060002090600c0201600901905060008061666587878761718e565b809250819350505060008082840361675157846001016001856166889190618ec6565b8154811061669957616698618342565b5b90600052602060002001548560010185815481106166ba576166b9618342565b5b90600052602060002001546166cf919061830e565b90508460000184815481106166e7576166e6618342565b5b9060005260206000200154856000016001866167039190618ec6565b8154811061671457616713618342565b5b9060005260206000200154616729919061830e565b8888616735919061830e565b8261674091906188c3565b61674a919061894c565b91506169b8565b846001016001856167629190618ec6565b8154811061677357616772618342565b5b906000526020600020015485600101858154811061679457616793618342565b5b90600052602060002001546167a9919061830e565b90508460000184815481106167c1576167c0618342565b5b9060005260206000200154856000016001866167dd9190618ec6565b815481106167ee576167ed618342565b5b9060005260206000200154616803919061830e565b88866000016001876168159190618ec6565b8154811061682657616825618342565b5b906000526020600020015461683b919061830e565b8261684691906188c3565b616850919061894c565b915084600101838154811061686857616867618342565b5b9060005260206000200154856001016001866168849190618ec6565b8154811061689557616894618342565b5b90600052602060002001546168aa919061830e565b826168b59190618ec6565b9150846001016001846168c89190618ec6565b815481106168d9576168d8618342565b5b90600052602060002001548560010184815481106168fa576168f9618342565b5b906000526020600020015461690f919061830e565b905084600001838154811061692757616926618342565b5b9060005260206000200154856000016001856169439190618ec6565b8154811061695457616953618342565b5b9060005260206000200154616969919061830e565b85600001848154811061697f5761697e618342565b5b906000526020600020015488616995919061830e565b826169a091906188c3565b6169aa919061894c565b826169b59190618ec6565b91505b81955050505050509392505050565b6000600f8054905090506000601060008573ffffffffffffffffffffffffffffffffffffffff1673ffffffffffffffffffffffffffffffffffffffff168152602001908152602001600020805490509050828114158015616a285750600181115b15616d97576000601060008673ffffffffffffffffffffffffffffffffffffffff1673ffffffffffffffffffffffffffffffffffffffff168152602001908152602001600020600183616a7b919061830e565b81548110616a8c57616a8b618342565b5b9060005260206000209060030201905080601060008773ffffffffffffffffffffffffffffffffffffffff1673ffffffffffffffffffffffffffffffffffffffff168152602001908152602001600020600186616ae9919061830e565b81548110616afa57616af9618342565b5b90600052602060002090600302016000820160009054906101000a90046fffffffffffffffffffffffffffffffff168160000160006101000a8154816fffffffffffffffffffffffffffffffff02191690836fffffffffffffffffffffffffffffffff1602179055506000820160109054906101000a90046fffffffffffffffffffffffffffffffff168160000160106101000a8154816fffffffffffffffffffffffffffffffff02191690836fffffffffffffffffffffffffffffffff1602179055506001820160009054906101000a90046fffffffffffffffffffffffffffffffff168160010160006101000a8154816fffffffffffffffffffffffffffffffff02191690836fffffffffffffffffffffffffffffffff1602179055506001820160109054906101000a90046fffffffffffffffffffffffffffffffff168160010160106101000a8154816fffffffffffffffffffffffffffffffff02191690836fffffffffffffffffffffffffffffffff1602179055506002820160009054906101000a900467ffffffffffffffff168160020160006101000a81548167ffffffffffffffff021916908367ffffffffffffffff1602179055506002820160089054906101000a900473ffffffffffffffffffffffffffffffffffffffff168160020160086101000a81548173ffffffffffffffffffffffffffffffffffffffff021916908373ffffffffffffffffffffffffffffffffffffffff1602179055509050506000600190505b83811015616d94578660030160008481526020019081526020016000206000828152602001908152602001600020548760030160008781526020019081526020016000206000838152602001908152602001600020819055508080616d8c90618bf6565b915050616d28565b50505b6000600190505b82811015616de3578560030160008381526020019081526020016000206000828152602001908152602001600020600090558080616ddb90618bf6565b915050616d9e565b50601060008573ffffffffffffffffffffffffffffffffffffffff1673ffffffffffffffffffffffffffffffffffffffff168152602001908152602001600020805480616e3357616e3261a06d565b5b6001900381819060005260206000209060030201600080820160006101000a8154906fffffffffffffffffffffffffffffffff02191690556000820160106101000a8154906fffffffffffffffffffffffffffffffff02191690556001820160006101000a8154906fffffffffffffffffffffffffffffffff02191690556001820160106101000a8154906fffffffffffffffffffffffffffffffff02191690556002820160006101000a81549067ffffffffffffffff02191690556002820160086101000a81549073ffffffffffffffffffffffffffffffffffffffff0219169055505090555050505050565b6000670de0b6b3a7640000600a54670de0b6b3a76400008486616f4491906188c3565b616f4e91906188c3565b616f58919061894c565b616f62919061894c565b905092915050565b60008060009050600060035403616f8357829050616fcc565b600060035484616f9391906188c3565b905060025481616fa3919061894c565b91508060025483616fb491906188c3565b1015616fca57600182616fc79190618ec6565b91505b505b80915050919050565b6000806103e884600954616fe991906188c3565b616ff3919061894c565b85616ffe9190618ec6565b9050600062282072600f60008154811061701b5761701a618342565b5b90600052602060002090600c020160090160000160008154811061704257617041618342565b5b90600052602060002001546170579190618ec6565b905060006301e133808261706b9190618ec6565b90508185116170a557601160000160009054906101000a900463ffffffff1663ffffffff168361709b91906188c3565b9350505050617187565b8085106170dd57601160000160049054906101000a900463ffffffff1663ffffffff16836170d391906188c3565b9350505050617187565b81816170e9919061830e565b85826170f5919061830e565b601160000160049054906101000a900463ffffffff16601160000160009054906101000a900463ffffffff1661712b9190619efa565b63ffffffff168561713c91906188c3565b61714691906188c3565b617150919061894c565b601160000160009054906101000a900463ffffffff1663ffffffff168461717791906188c3565b6171819190618ec6565b93505050505b9392505050565b6000806000600f86815481106171a7576171a6618342565b5b90600052602060002090600c0201600901905060008160000180549050905060008111617209576040517f08c379a00000000000000000000000000000000000000000000000000000000081526004016172009061a0e8565b60405180910390fd5b85851161724b576040517f08c379a00000000000000000000000000000000000000000000000000000000081526004016172429061a154565b60405180910390fd5b8160000160008154811061726257617261618342565b5b90600052602060002001548610156172af576040517f08c379a00000000000000000000000000000000000000000000000000000000081526004016172a69061a1c0565b60405180910390fd5b816000016001826172c0919061830e565b815481106172d1576172d0618342565b5b906000526020600020015485111561731e576040517f08c379a00000000000000000000000000000000000000000000000000000000081526004016173159061a22c565b60405180910390fd5b6000600190505b8181101561737c5782600001818154811061734357617342618342565b5b906000526020600020015487101561736957600181617362919061830e565b945061737c565b808061737490618bf6565b915050617325565b508160000160018261738e919061830e565b8154811061739f5761739e618342565b5b906000526020600020015485036173c4576002816173bd919061830e565b925061742f565b60006001856173d39190618ec6565b90505b8181101561742d578260000181815481106173f4576173f3618342565b5b906000526020600020015486101561741a57600181617413919061830e565b935061742d565b808061742590618bf6565b9150506173d6565b505b82841115617472576040517f08c379a00000000000000000000000000000000000000000000000000000000081526004016174699061a298565b60405180910390fd5b5050935093915050565b6040518060c0016040528060006fffffffffffffffffffffffffffffffff16815260200160006fffffffffffffffffffffffffffffffff16815260200160006fffffffffffffffffffffffffffffffff16815260200160006fffffffffffffffffffffffffffffffff168152602001600067ffffffffffffffff168152602001600073ffffffffffffffffffffffffffffffffffffffff1681525090565b828054828255906000526020600020908101928215617556579160200282015b8281111561755557825182559160200191906001019061753a565b5b5090506175639190617567565b5090565b5b80821115617580576000816000905550600101617568565b5090565b6000604051905090565b600080fd5b600080fd5b60007fffffffff0000000000000000000000000000000000000000000000000000000082169050919050565b6175cd81617598565b81146175d857600080fd5b50565b6000813590506175ea816175c4565b92915050565b6000602082840312156176065761760561758e565b5b6000617614848285016175db565b91505092915050565b60008115159050919050565b6176328161761d565b82525050565b600060208201905061764d6000830184617629565b92915050565b600073ffffffffffffffffffffffffffffffffffffffff82169050919050565b600061767e82617653565b9050919050565b61768e81617673565b811461769957600080fd5b50565b6000813590506176ab81617685565b92915050565b6000602082840312156176c7576176c661758e565b5b60006176d58482850161769c565b91505092915050565b6000819050919050565b6176f1816176de565b81146176fc57600080fd5b50565b60008135905061770e816176e8565b92915050565b6000806040838503121561772b5761772a61758e565b5b60006177398582860161769c565b925050602061774a858286016176ff565b9150509250929050565b60006fffffffffffffffffffffffffffffffff82169050919050565b61777981617754565b82525050565b600067ffffffffffffffff82169050919050565b61779c8161777f565b82525050565b6177ab81617673565b82525050565b60c0820160008201516177c76000850182617770565b5060208201516177da6020850182617770565b5060408201516177ed6040850182617770565b5060608201516178006060850182617770565b5060808201516178136080850182617793565b5060a082015161782660a08501826177a2565b50505050565b600060c08201905061784160008301846177b1565b92915050565b617850816176de565b82525050565b600060208201905061786b6000830184617847565b92915050565b61787a81617673565b82525050565b60006020820190506178956000830184617871565b92915050565b6000819050919050565b6178ae8161789b565b81146178b957600080fd5b50565b6000813590506178cb816178a5565b92915050565b6000602082840312156178e7576178e661758e565b5b60006178f5848285016178bc565b91505092915050565b6179078161789b565b82525050565b600060208201905061792260008301846178fe565b92915050565b60006020828403121561793e5761793d61758e565b5b600061794c848285016176ff565b91505092915050565b600080fd5b6000601f19601f8301169050919050565b7f4e487b7100000000000000000000000000000000000000000000000000000000600052604160045260246000fd5b6179a38261795a565b810181811067ffffffffffffffff821117156179c2576179c161796b565b5b80604052505050565b60006179d5617584565b90506179e1828261799a565b919050565b600063ffffffff82169050919050565b6179ff816179e6565b8114617a0a57600080fd5b50565b600081359050617a1c816179f6565b92915050565b600060a08284031215617a3857617a37617955565b5b617a4260a06179cb565b90506000617a5284828501617a0d565b6000830152506020617a6684828501617a0d565b6020830152506040617a7a84828501617a0d565b6040830152506060617a8e84828501617a0d565b6060830152506080617aa284828501617a0d565b60808301525092915050565b600080fd5b600067ffffffffffffffff821115617ace57617acd61796b565b5b602082029050602081019050919050565b600080fd5b6000617af7617af284617ab3565b6179cb565b90508083825260208201905060208402830185811115617b1a57617b19617adf565b5b835b81811015617b435780617b2f88826176ff565b845260208401935050602081019050617b1c565b5050509392505050565b600082601f830112617b6257617b61617aae565b5b8135617b72848260208601617ae4565b91505092915050565b60008060008060008060008060008060006101e08c8e031215617ba157617ba061758e565b5b6000617baf8e828f0161769c565b9b50506020617bc08e828f0161769c565b9a50506040617bd18e828f0161769c565b9950506060617be28e828f01617a22565b985050610100617bf48e828f0161769c565b9750506101208c013567ffffffffffffffff811115617c1657617c15617593565b5b617c228e828f01617b4d565b9650506101408c013567ffffffffffffffff811115617c4457617c43617593565b5b617c508e828f01617b4d565b955050610160617c628e828f016176ff565b945050610180617c748e828f016176ff565b9350506101a0617c868e828f016176ff565b9250506101c0617c988e828f016176ff565b9150509295989b509295989b9093969950565b60008060408385031215617cc257617cc161758e565b5b6000617cd0858286016178bc565b9250506020617ce18582860161769c565b9150509250929050565b617cf48161777f565b82525050565b6000602082019050617d0f6000830184617ceb565b92915050565b60008060408385031215617d2c57617d2b61758e565b5b6000617d3a858286016176ff565b9250506020617d4b8582860161769c565b9150509250929050565b600080600080600080600060e0888a031215617d7457617d7361758e565b5b6000617d828a828b0161769c565b9750506020617d938a828b0161769c565b9650506040617da48a828b016176ff565b9550506060617db58a828b016176ff565b945050608088013567ffffffffffffffff811115617dd657617dd5617593565b5b617de28a828b01617b4d565b93505060a088013567ffffffffffffffff811115617e0357617e02617593565b5b617e0f8a828b01617b4d565b92505060c0617e208a828b016176ff565b91505092959891949750929550565b60008060408385031215617e4657617e4561758e565b5b6000617e54858286016176ff565b9250506020617e65858286016176ff565b9150509250929050565b617e788161761d565b8114617e8357600080fd5b50565b600081359050617e9581617e6f565b92915050565b600060208284031215617eb157617eb061758e565b5b6000617ebf84828501617e86565b91505092915050565b600080fd5b60008083601f840112617ee357617ee2617aae565b5b8235905067ffffffffffffffff811115617f0057617eff617ec8565b5b602083019150836020820283011115617f1c57617f1b617adf565b5b9250929050565b600080600060408486031215617f3c57617f3b61758e565b5b600084013567ffffffffffffffff811115617f5a57617f59617593565b5b617f6686828701617ecd565b93509350506020617f79868287016176ff565b9150509250925092565b7f4e487b7100000000000000000000000000000000000000000000000000000000600052602160045260246000fd5b60038110617fc357617fc2617f83565b5b50565b6000819050617fd482617fb2565b919050565b6000617fe482617fc6565b9050919050565b617ff481617fd9565b82525050565b600061010082019050618010600083018b617871565b61801d602083018a617871565b61802a6040830189617847565b6180376060830188617847565b6180446080830187617847565b61805160a0830186617847565b61805e60c0830185617847565b61806b60e0830184617feb565b9998505050505050505050565b61808181617754565b82525050565b600060408201905061809c6000830185618078565b6180a96020830184618078565b9392505050565b600081519050919050565b600082825260208201905092915050565b6000819050602082019050919050565b60c0820160008201516180f26000850182617770565b5060208201516181056020850182617770565b5060408201516181186040850182617770565b50606082015161812b6060850182617770565b50608082015161813e6080850182617793565b5060a082015161815160a08501826177a2565b50505050565b600061816383836180dc565b60c08301905092915050565b6000602082019050919050565b6000618187826180b0565b61819181856180bb565b935061819c836180cc565b8060005b838110156181cd5781516181b48882618157565b97506181bf8361816f565b9250506001810190506181a0565b5085935050505092915050565b600060208201905081810360008301526181f4818461817c565b905092915050565b600060ff82169050919050565b618212816181fc565b811461821d57600080fd5b50565b60008135905061822f81618209565b92915050565b60006020828403121561824b5761824a61758e565b5b600061825984828501618220565b91505092915050565b600082825260208201905092915050565b7f6765744c6f636b496e666f3a204c6f636b4964206f7574206f6620696e646578600082015250565b60006182a9602083618262565b91506182b482618273565b602082019050919050565b600060208201905081810360008301526182d88161829c565b9050919050565b7f4e487b7100000000000000000000000000000000000000000000000000000000600052601160045260246000fd5b6000618319826176de565b9150618324836176de565b925082821015618337576183366182df565b5b828203905092915050565b7f4e487b7100000000000000000000000000000000000000000000000000000000600052603260045260246000fd5b7f6f6e6c792061646d696e2063616e20756e706175736500000000000000000000600082015250565b60006183a7601683618262565b91506183b282618371565b602082019050919050565b600060208201905081810360008301526183d68161839a565b9050919050565b7f416c726561647920696e746961696c6973656400000000000000000000000000600082015250565b6000618413601383618262565b915061841e826183dd565b602082019050919050565b6000602082019050818103600083015261844281618406565b9050919050565b60008151905061845881617e6f565b92915050565b6000602082840312156184745761847361758e565b5b600061848284828501618449565b91505092915050565b7f556e737570706f7274656420746f6b656e000000000000000000000000000000600082015250565b60006184c1601183618262565b91506184cc8261848b565b602082019050919050565b600060208201905081810360008301526184f0816184b4565b9050919050565b7f70617573656420636f6e74726163740000000000000000000000000000000000600082015250565b600061852d600f83618262565b9150618538826184f7565b602082019050919050565b6000602082019050818103600083015261855c81618520565b9050919050565b7f6e6f2070656e616c747900000000000000000000000000000000000000000000600082015250565b6000618599600a83618262565b91506185a482618563565b602082019050919050565b600060208201905081810360008301526185c88161858c565b9050919050565b7f6e6f742072656c65617365642079657400000000000000000000000000000000600082015250565b6000618605601083618262565b9150618610826185cf565b602082019050919050565b60006020820190508181036000830152618634816185f8565b9050919050565b7f6e6f206561726c79207769746864726177000000000000000000000000000000600082015250565b6000618671601183618262565b915061867c8261863b565b602082019050919050565b600060208201905081810360008301526186a081618664565b9050919050565b7f6c6f636b49642030000000000000000000000000000000000000000000000000600082015250565b60006186dd600883618262565b91506186e8826186a7565b602082019050919050565b6000602082019050818103600083015261870c816186d0565b9050919050565b7f696e76616c6964206c6f636b6964000000000000000000000000000000000000600082015250565b6000618749600e83618262565b915061875482618713565b602082019050919050565b600060208201905081810360008301526187788161873c565b9050919050565b7f6e6f206c6f636b20616d6f756e74000000000000000000000000000000000000600082015250565b60006187b5600e83618262565b91506187c08261877f565b602082019050919050565b600060208201905081810360008301526187e4816187a8565b9050919050565b7f6c6f636b206f70656e6564000000000000000000000000000000000000000000600082015250565b6000618821600b83618262565b915061882c826187eb565b602082019050919050565b6000602082019050818103600083015261885081618814565b9050919050565b7f626164206f776e65720000000000000000000000000000000000000000000000600082015250565b600061888d600983618262565b915061889882618857565b602082019050919050565b600060208201905081810360008301526188bc81618880565b9050919050565b60006188ce826176de565b91506188d9836176de565b9250817fffffffffffffffffffffffffffffffffffffffffffffffffffffffffffffffff0483118215151615618912576189116182df565b5b828202905092915050565b7f4e487b7100000000000000000000000000000000000000000000000000000000600052601260045260246000fd5b6000618957826176de565b9150618962836176de565b9250826189725761897161891d565b5b828204905092915050565b7f416363657373436f6e74726f6c3a2063616e206f6e6c792072656e6f756e636560008201527f20726f6c657320666f722073656c660000000000000000000000000000000000602082015250565b60006189d9602f83618262565b91506189e48261897d565b604082019050919050565b60006020820190508181036000830152618a08816189cc565b9050919050565b7f53747265616d2030000000000000000000000000000000000000000000000000600082015250565b6000618a45600883618262565b9150618a5082618a0f565b602082019050919050565b60006020820190508181036000830152618a7481618a38565b9050919050565b7f4e6f2053747265616d0000000000000000000000000000000000000000000000600082015250565b6000618ab1600983618262565b9150618abc82618a7b565b602082019050919050565b60006020820190508181036000830152618ae081618aa4565b9050919050565b6000606082019050618afc6000830186617871565b618b096020830185617871565b618b166040830184617847565b949350505050565b7f556e737570706f727420546f6b656e0000000000000000000000000000000000600082015250565b6000618b54600f83618262565b9150618b5f82618b1e565b602082019050919050565b60006020820190508181036000830152618b8381618b47565b9050919050565b7f6c6f636b206e6f74206f70656e00000000000000000000000000000000000000600082015250565b6000618bc0600d83618262565b9150618bcb82618b8a565b602082019050919050565b60006020820190508181036000830152618bef81618bb3565b9050919050565b6000618c01826176de565b91507fffffffffffffffffffffffffffffffffffffffffffffffffffffffffffffffff8203618c3357618c326182df565b5b600182019050919050565b7f53747265616d206e742070726f706f7365640000000000000000000000000000600082015250565b6000618c74601283618262565b9150618c7f82618c3e565b602082019050919050565b60006020820190508181036000830152618ca381618c67565b9050919050565b7f53747265616d2070726f706f73616c2065787069726500000000000000000000600082015250565b6000618ce0601683618262565b9150618ceb82618caa565b602082019050919050565b60006020820190508181036000830152618d0f81618cd3565b9050919050565b7f5265776172647320686967680000000000000000000000000000000000000000600082015250565b6000618d4c600c83618262565b9150618d5782618d16565b602082019050919050565b60006020820190508181036000830152618d7b81618d3f565b9050919050565b7f52657761726473206c6f77000000000000000000000000000000000000000000600082015250565b6000618db8600b83618262565b9150618dc382618d82565b602082019050919050565b60006020820190508181036000830152618de781618dab565b9050919050565b7f696e76616c696420737461727420706f696e7400000000000000000000000000600082015250565b6000618e24601383618262565b9150618e2f82618dee565b602082019050919050565b60006020820190508181036000830152618e5381618e17565b9050919050565b7f73747265616d206e742070726f706f7365640000000000000000000000000000600082015250565b6000618e90601283618262565b9150618e9b82618e5a565b602082019050919050565b60006020820190508181036000830152618ebf81618e83565b9050919050565b6000618ed1826176de565b9150618edc836176de565b9250827fffffffffffffffffffffffffffffffffffffffffffffffffffffffffffffffff03821115618f1157618f106182df565b5b828201905092915050565b7f6d6178206c6f636b730000000000000000000000000000000000000000000000600082015250565b6000618f52600983618262565b9150618f5d82618f1c565b602082019050919050565b60006020820190508181036000830152618f8181618f45565b9050919050565b7f616d6f756e742030000000000000000000000000000000000000000000000000600082015250565b6000618fbe600883618262565b9150618fc982618f88565b602082019050919050565b60006020820190508181036000830152618fed81618fb1565b9050919050565b7f626164206c6f636b2074696d6500000000000000000000000000000000000000600082015250565b600061902a600d83618262565b915061903582618ff4565b602082019050919050565b600060208201905081810360008301526190598161901d565b9050919050565b7f6d61782031207965617200000000000000000000000000000000000000000000600082015250565b6000619096600a83618262565b91506190a182619060565b602082019050919050565b600060208201905081810360008301526190c581619089565b9050919050565b7f4e6f2053747265616d205368617265732074696c6c206e6f7700000000000000600082015250565b6000619102601983618262565b915061910d826190cc565b602082019050919050565b60006020820190508181036000830152619131816190f5565b9050919050565b7f496e76616c69642053747265616d204f776e6572000000000000000000000000600082015250565b600061916e601483618262565b915061917982619138565b602082019050919050565b6000602082019050818103600083015261919d81619161565b9050919050565b7f496e76616c69642052657761726420546f6b656e000000000000000000000000600082015250565b60006191da601483618262565b91506191e5826191a4565b602082019050919050565b60006020820190508181036000830152619209816191cd565b9050919050565b7f5a65726f204d6178204465706f73697400000000000000000000000000000000600082015250565b6000619246601083618262565b915061925182619210565b602082019050919050565b6000602082019050818103600083015261927581619239565b9050919050565b7f5a65726f204d696e204465706f73697400000000000000000000000000000000600082015250565b60006192b2601083618262565b91506192bd8261927c565b602082019050919050565b600060208201905081810360008301526192e1816192a5565b9050919050565b7f496e76616c6964204d696e204465706f73697400000000000000000000000000600082015250565b600061931e601383618262565b9150619329826192e8565b602082019050919050565b6000602082019050818103600083015261934d81619311565b9050919050565b7f4d6178204465706f736974204d75737420457175616c2066697273742053636860008201527f6564756c65642072657761726473000000000000000000000000000000000000602082015250565b60006193b0602e83618262565b91506193bb82619354565b604082019050919050565b600060208201905081810360008301526193df816193a3565b9050919050565b7f496e76616c69642050726f706f73616c2045787069726174696f6e2044617465600082015250565b600061941c602083618262565b9150619427826193e6565b602082019050919050565b6000602082019050818103600083015261944b8161940f565b9050919050565b7f496e76616c6964205363686564756c65732c206c656e677468206e6f7420657160008201527f75616c0000000000000000000000000000000000000000000000000000000000602082015250565b60006194ae602383618262565b91506194b982619452565b604082019050919050565b600060208201905081810360008301526194dd816194a1565b9050919050565b7f205363686564756c657320746f2053686f727400000000000000000000000000600082015250565b600061951a601383618262565b9150619525826194e4565b602082019050919050565b600060208201905081810360008301526195498161950d565b9050919050565b7f496e76616c69642054617520506572696f640000000000000000000000000000600082015250565b6000619586601283618262565b915061959182619550565b602082019050919050565b600060208201905081810360008301526195b581619579565b9050919050565b7f496e76616c6964207363686564756c652074696d657300000000000000000000600082015250565b60006195f2601683618262565b91506195fd826195bc565b602082019050919050565b60006020820190508181036000830152619621816195e5565b9050919050565b7f496e76616c6964205363686564756c6520526577617264730000000000000000600082015250565b600061965e601883618262565b915061966982619628565b602082019050919050565b6000602082019050818103600083015261968d81619651565b9050919050565b7f496e76616c6964205363686564756c6520456e64205265776172647300000000600082015250565b60006196ca601c83618262565b91506196d582619694565b602082019050919050565b600060208201905081810360008301526196f9816196bd565b9050919050565b7f6d61696e2061646472207a65726f000000000000000000000000000000000000600082015250565b6000619736600e83618262565b915061974182619700565b602082019050919050565b6000602082019050818103600083015261976581619729565b9050919050565b7f766f74652061646472207a65726f000000000000000000000000000000000000600082015250565b60006197a2600e83618262565b91506197ad8261976c565b602082019050919050565b600060208201905081810360008301526197d181619795565b9050919050565b7f7661756c7441646472207a65726f000000000000000000000000000000000000600082015250565b600061980e600e83618262565b9150619819826197d8565b602082019050919050565b6000602082019050818103600083015261983d81619801565b9050919050565b7f696e76616c696420736861726520777473000000000000000000000000000000600082015250565b600061987a601183618262565b915061988582619844565b602082019050919050565b600060208201905081810360008301526198a98161986d565b9050919050565b7f696e76616c69642070656e616c74792077747300000000000000000000000000600082015250565b60006198e6601383618262565b91506198f1826198b0565b602082019050919050565b60006020820190508181036000830152619915816198d9565b9050919050565b7f616c726561647920696e7469616c697a65640000000000000000000000000000600082015250565b6000619952601283618262565b915061995d8261991c565b602082019050919050565b6000602082019050818103600083015261998181619945565b9050919050565b7f5265656e7472616e637947756172643a207265656e7472616e742063616c6c00600082015250565b60006199be601f83618262565b91506199c982619988565b602082019050919050565b600060208201905081810360008301526199ed816199b1565b9050919050565b7f70656e616c747920686967680000000000000000000000000000000000000000600082015250565b6000619a2a600c83618262565b9150619a35826199f4565b602082019050919050565b60006020820190508181036000830152619a5981619a1d565b9050919050565b600081519050619a6f816176e8565b92915050565b600060208284031215619a8b57619a8a61758e565b5b6000619a9984828501619a60565b91505092915050565b7f524557415244535f434f4d504f554e4400000000000000000000000000000000600082015250565b6000619ad8601083618262565b9150619ae382619aa2565b602082019050919050565b60006020820190508181036000830152619b0781619acb565b9050919050565b7f696e616374697665206f722070726f706f736564000000000000000000000000600082015250565b6000619b44601483618262565b9150619b4f82619b0e565b602082019050919050565b60006020820190508181036000830152619b7381619b37565b9050919050565b7f4c6f636b204e6f205374616b6500000000000000000000000000000000000000600082015250565b6000619bb0600d83618262565b9150619bbb82619b7a565b602082019050919050565b60006020820190508181036000830152619bdf81619ba3565b9050919050565b6000604082019050619bfb6000830185617871565b619c086020830184617847565b9392505050565b7f426f72696e674d6174683a2075696e743634204f766572666c6f770000000000600082015250565b6000619c45601b83618262565b9150619c5082619c0f565b602082019050919050565b60006020820190508181036000830152619c7481619c38565b9050919050565b6000619c8682617754565b9150619c9183617754565b9250826fffffffffffffffffffffffffffffffff03821115619cb657619cb56182df565b5b828201905092915050565b600081905092915050565b7f416363657373436f6e74726f6c3a206163636f756e7420000000000000000000600082015250565b6000619d02601783619cc1565b9150619d0d82619ccc565b601782019050919050565b600081519050919050565b60005b83811015619d41578082015181840152602081019050619d26565b83811115619d50576000848401525b50505050565b6000619d6182619d18565b619d6b8185619cc1565b9350619d7b818560208601619d23565b80840191505092915050565b7f206973206d697373696e6720726f6c6520000000000000000000000000000000600082015250565b6000619dbd601183619cc1565b9150619dc882619d87565b601182019050919050565b6000619dde82619cf5565b9150619dea8285619d56565b9150619df582619db0565b9150619e018284619d56565b91508190509392505050565b6000619e1882619d18565b619e228185618262565b9350619e32818560208601619d23565b619e3b8161795a565b840191505092915050565b60006020820190508181036000830152619e608184619e0d565b905092915050565b7f67657452657761726473416d6f756e743a20496e76616c6964206c617374205560008201527f7064617465000000000000000000000000000000000000000000000000000000602082015250565b6000619ec4602583618262565b9150619ecf82619e68565b604082019050919050565b60006020820190508181036000830152619ef381619eb7565b9050919050565b6000619f05826179e6565b9150619f10836179e6565b925082821015619f2357619f226182df565b5b828203905092915050565b6000619f39826179e6565b9150619f44836179e6565b92508163ffffffff0483118215151615619f6157619f606182df565b5b828202905092915050565b7f426f72696e674d6174683a2075696e74313238204f766572666c6f7700000000600082015250565b6000619fa2601c83618262565b9150619fad82619f6c565b602082019050919050565b60006020820190508181036000830152619fd181619f95565b9050919050565b6000619fe3826176de565b915060008203619ff657619ff56182df565b5b600182039050919050565b7f537472696e67733a20686578206c656e67746820696e73756666696369656e74600082015250565b600061a037602083618262565b915061a0428261a001565b602082019050919050565b6000602082019050818103600083015261a0668161a02a565b9050919050565b7f4e487b7100000000000000000000000000000000000000000000000000000000600052603160045260246000fd5b7f7363686564756c6573206973206e6f7420726967687400000000000000000000600082015250565b600061a0d2601683618262565b915061a0dd8261a09c565b602082019050919050565b6000602082019050818103600083015261a1018161a0c5565b9050919050565b7f496e76616c69642052657761726420517565727920506572696f640000000000600082015250565b600061a13e601b83618262565b915061a1498261a108565b602082019050919050565b6000602082019050818103600083015261a16d8161a131565b9050919050565b7f5175657279204265666f7265205363686564756c657320737461727400000000600082015250565b600061a1aa601c83618262565b915061a1b58261a174565b602082019050919050565b6000602082019050818103600083015261a1d98161a19d565b9050919050565b7f7175657279206166746572207363686564756c6520656e640000000000000000600082015250565b600061a216601883618262565b915061a2218261a1e0565b602082019050919050565b6000602082019050818103600083015261a2458161a209565b9050919050565b7f496e76616c696420696e6465782063616c63756c6174696f6e00000000000000600082015250565b600061a282601983618262565b915061a28d8261a24c565b602082019050919050565b6000602082019050818103600083015261a2b18161a275565b905091905056fea2646970667358221220b81d0e0e9abfa699f96131cd8eb7eee3c4ada0bb108a77bcdefb67c3a69a6a1764736f6c634300080d0033",
  "linkReferences": {},
  "deployedLinkReferences": {}
}