{
  "_format": "hh-sol-artifact-1",
  "contractName": "StakingGetters",
  "sourceName": "contracts/dao/staking/helpers/StakingGetters.sol",
  "abi": [
    {
      "inputs": [
        {
          "internalType": "address",
          "name": "_stakingContract",
          "type": "address"
        }
      ],
      "stateMutability": "nonpayable",
      "type": "constructor"
    },
    {
      "inputs": [
        {
          "internalType": "uint256",
          "name": "streamId",
          "type": "uint256"
        }
      ],
      "name": "getLatestRewardsPerShare",
      "outputs": [
        {
          "internalType": "uint256",
          "name": "",
          "type": "uint256"
        }
      ],
      "stateMutability": "view",
      "type": "function"
    },
    {
      "inputs": [
        {
          "internalType": "address",
          "name": "account",
          "type": "address"
        },
        {
          "internalType": "uint256",
          "name": "lockId",
          "type": "uint256"
        }
      ],
      "name": "getLock",
      "outputs": [
        {
          "internalType": "uint128",
          "name": "",
          "type": "uint128"
        },
        {
          "internalType": "uint128",
          "name": "",
          "type": "uint128"
        },
        {
          "internalType": "uint128",
          "name": "",
          "type": "uint128"
        },
        {
          "internalType": "uint128",
          "name": "",
          "type": "uint128"
        },
        {
          "internalType": "uint64",
          "name": "",
          "type": "uint64"
        },
        {
          "internalType": "address",
          "name": "",
          "type": "address"
        }
      ],
      "stateMutability": "view",
      "type": "function"
    },
    {
      "inputs": [
        {
          "internalType": "address",
          "name": "account",
          "type": "address"
        },
        {
          "internalType": "uint256",
          "name": "lockId",
          "type": "uint256"
        }
      ],
      "name": "getLockInfo",
      "outputs": [
        {
          "components": [
            {
              "internalType": "uint128",
              "name": "amountOfMAINTkn",
              "type": "uint128"
            },
            {
              "internalType": "uint128",
              "name": "amountOfveMAINTkn",
              "type": "uint128"
            },
            {
              "internalType": "uint128",
              "name": "mainTknShares",
              "type": "uint128"
            },
            {
              "internalType": "uint128",
              "name": "positionStreamShares",
              "type": "uint128"
            },
            {
              "internalType": "uint64",
              "name": "end",
              "type": "uint64"
            },
            {
              "internalType": "address",
              "name": "owner",
              "type": "address"
            }
          ],
          "internalType": "struct LockedBalance",
          "name": "",
          "type": "tuple"
        }
      ],
      "stateMutability": "view",
      "type": "function"
    },
    {
      "inputs": [
        {
          "internalType": "address",
          "name": "account",
          "type": "address"
        }
      ],
      "name": "getLocksLength",
      "outputs": [
        {
          "internalType": "uint256",
          "name": "",
          "type": "uint256"
        }
      ],
      "stateMutability": "view",
      "type": "function"
    },
    {
      "inputs": [
        {
          "internalType": "address",
          "name": "account",
          "type": "address"
        }
      ],
      "name": "getUserTotalDeposit",
      "outputs": [
        {
          "internalType": "uint256",
          "name": "",
          "type": "uint256"
        }
      ],
      "stateMutability": "view",
      "type": "function"
    }
  ],
  "bytecode": "0x608060405234801561001057600080fd5b5060405162000fbb38038062000fbb833981810160405281019061003491906100dd565b806000806101000a81548173ffffffffffffffffffffffffffffffffffffffff021916908373ffffffffffffffffffffffffffffffffffffffff1602179055505061010a565b600080fd5b600073ffffffffffffffffffffffffffffffffffffffff82169050919050565b60006100aa8261007f565b9050919050565b6100ba8161009f565b81146100c557600080fd5b50565b6000815190506100d7816100b1565b92915050565b6000602082840312156100f3576100f261007a565b5b6000610101848285016100c8565b91505092915050565b610ea1806200011a6000396000f3fe608060405234801561001057600080fd5b50600436106100575760003560e01c80630e0930f01461005c5780631208a2561461008c57806315b9672c146100c1578063277d96b7146100f1578063a4c828dc14610121575b600080fd5b61007660048036038101906100719190610732565b610151565b6040516100839190610778565b60405180910390f35b6100a660048036038101906100a191906107bf565b6101ff565b6040516100b89695949392919061085c565b60405180910390f35b6100db60048036038101906100d691906107bf565b610351565b6040516100e89190610965565b60405180910390f35b61010b60048036038101906101069190610980565b610471565b6040516101189190610778565b60405180910390f35b61013b60048036038101906101369190610732565b610515565b6040516101489190610778565b60405180910390f35b60008060008054906101000a900473ffffffffffffffffffffffffffffffffffffffff1673ffffffffffffffffffffffffffffffffffffffff1663a8d85f70846040518263ffffffff1660e01b81526004016101ad91906109ad565b600060405180830381865afa1580156101ca573d6000803e3d6000fd5b505050506040513d6000823e3d601f19601f820116820180604052508101906101f39190610c33565b90508051915050919050565b60008060008060008060008060009054906101000a900473ffffffffffffffffffffffffffffffffffffffff1673ffffffffffffffffffffffffffffffffffffffff1663a8d85f708a6040518263ffffffff1660e01b815260040161026491906109ad565b600060405180830381865afa158015610281573d6000803e3d6000fd5b505050506040513d6000823e3d601f19601f820116820180604052508101906102aa9190610c33565b905060008160018a6102bc9190610cab565b815181106102cd576102cc610cdf565b5b60200260200101519050815189111561031b576040517f08c379a000000000000000000000000000000000000000000000000000000000815260040161031290610d6b565b60405180910390fd5b806000015181602001518260400151836060015184608001518560a0015197509750975097509750975050509295509295509295565b610359610622565b60008060009054906101000a900473ffffffffffffffffffffffffffffffffffffffff1673ffffffffffffffffffffffffffffffffffffffff1663a8d85f70856040518263ffffffff1660e01b81526004016103b591906109ad565b600060405180830381865afa1580156103d2573d6000803e3d6000fd5b505050506040513d6000823e3d601f19601f820116820180604052508101906103fb9190610c33565b90508051831115610441576040517f08c379a000000000000000000000000000000000000000000000000000000000815260040161043890610d6b565b60405180910390fd5b8060018461044f9190610cab565b815181106104605761045f610cdf565b5b602002602001015191505092915050565b60008060009054906101000a900473ffffffffffffffffffffffffffffffffffffffff1673ffffffffffffffffffffffffffffffffffffffff1663277d96b7836040518263ffffffff1660e01b81526004016104cd9190610778565b602060405180830381865afa1580156104ea573d6000803e3d6000fd5b505050506040513d601f19601f8201168201806040525081019061050e9190610da0565b9050919050565b60008060008054906101000a900473ffffffffffffffffffffffffffffffffffffffff1673ffffffffffffffffffffffffffffffffffffffff1663a8d85f70846040518263ffffffff1660e01b815260040161057191906109ad565b600060405180830381865afa15801561058e573d6000803e3d6000fd5b505050506040513d6000823e3d601f19601f820116820180604052508101906105b79190610c33565b90506000805b8251811015610617578281815181106105d9576105d8610cdf565b5b6020026020010151600001516fffffffffffffffffffffffffffffffff16826106029190610dcd565b9150808061060f90610e23565b9150506105bd565b508092505050919050565b6040518060c0016040528060006fffffffffffffffffffffffffffffffff16815260200160006fffffffffffffffffffffffffffffffff16815260200160006fffffffffffffffffffffffffffffffff16815260200160006fffffffffffffffffffffffffffffffff168152602001600067ffffffffffffffff168152602001600073ffffffffffffffffffffffffffffffffffffffff1681525090565b6000604051905090565b600080fd5b600080fd5b600073ffffffffffffffffffffffffffffffffffffffff82169050919050565b60006106ff826106d4565b9050919050565b61070f816106f4565b811461071a57600080fd5b50565b60008135905061072c81610706565b92915050565b600060208284031215610748576107476106ca565b5b60006107568482850161071d565b91505092915050565b6000819050919050565b6107728161075f565b82525050565b600060208201905061078d6000830184610769565b92915050565b61079c8161075f565b81146107a757600080fd5b50565b6000813590506107b981610793565b92915050565b600080604083850312156107d6576107d56106ca565b5b60006107e48582860161071d565b92505060206107f5858286016107aa565b9150509250929050565b60006fffffffffffffffffffffffffffffffff82169050919050565b610824816107ff565b82525050565b600067ffffffffffffffff82169050919050565b6108478161082a565b82525050565b610856816106f4565b82525050565b600060c082019050610871600083018961081b565b61087e602083018861081b565b61088b604083018761081b565b610898606083018661081b565b6108a5608083018561083e565b6108b260a083018461084d565b979650505050505050565b6108c6816107ff565b82525050565b6108d58161082a565b82525050565b6108e4816106f4565b82525050565b60c08201600082015161090060008501826108bd565b50602082015161091360208501826108bd565b50604082015161092660408501826108bd565b50606082015161093960608501826108bd565b50608082015161094c60808501826108cc565b5060a082015161095f60a08501826108db565b50505050565b600060c08201905061097a60008301846108ea565b92915050565b600060208284031215610996576109956106ca565b5b60006109a4848285016107aa565b91505092915050565b60006020820190506109c2600083018461084d565b92915050565b600080fd5b6000601f19601f8301169050919050565b7f4e487b7100000000000000000000000000000000000000000000000000000000600052604160045260246000fd5b610a16826109cd565b810181811067ffffffffffffffff82111715610a3557610a346109de565b5b80604052505050565b6000610a486106c0565b9050610a548282610a0d565b919050565b600067ffffffffffffffff821115610a7457610a736109de565b5b602082029050602081019050919050565b600080fd5b600080fd5b610a98816107ff565b8114610aa357600080fd5b50565b600081519050610ab581610a8f565b92915050565b610ac48161082a565b8114610acf57600080fd5b50565b600081519050610ae181610abb565b92915050565b600081519050610af681610706565b92915050565b600060c08284031215610b1257610b11610a8a565b5b610b1c60c0610a3e565b90506000610b2c84828501610aa6565b6000830152506020610b4084828501610aa6565b6020830152506040610b5484828501610aa6565b6040830152506060610b6884828501610aa6565b6060830152506080610b7c84828501610ad2565b60808301525060a0610b9084828501610ae7565b60a08301525092915050565b6000610baf610baa84610a59565b610a3e565b90508083825260208201905060c08402830185811115610bd257610bd1610a85565b5b835b81811015610bfb5780610be78882610afc565b84526020840193505060c081019050610bd4565b5050509392505050565b600082601f830112610c1a57610c196109c8565b5b8151610c2a848260208601610b9c565b91505092915050565b600060208284031215610c4957610c486106ca565b5b600082015167ffffffffffffffff811115610c6757610c666106cf565b5b610c7384828501610c05565b91505092915050565b7f4e487b7100000000000000000000000000000000000000000000000000000000600052601160045260246000fd5b6000610cb68261075f565b9150610cc18361075f565b925082821015610cd457610cd3610c7c565b5b828203905092915050565b7f4e487b7100000000000000000000000000000000000000000000000000000000600052603260045260246000fd5b600082825260208201905092915050565b7f6765744c6f636b496e666f3a204c6f636b4964206f7574206f6620696e646578600082015250565b6000610d55602083610d0e565b9150610d6082610d1f565b602082019050919050565b60006020820190508181036000830152610d8481610d48565b9050919050565b600081519050610d9a81610793565b92915050565b600060208284031215610db657610db56106ca565b5b6000610dc484828501610d8b565b91505092915050565b6000610dd88261075f565b9150610de38361075f565b9250827fffffffffffffffffffffffffffffffffffffffffffffffffffffffffffffffff03821115610e1857610e17610c7c565b5b828201905092915050565b6000610e2e8261075f565b91507fffffffffffffffffffffffffffffffffffffffffffffffffffffffffffffffff8203610e6057610e5f610c7c565b5b60018201905091905056fea26469706673582212207fd87422a29ba7928525658295775553bbe261718278218441c8a80ba1d4f41664736f6c634300080d0033",
  "linkReferences": {},
  "deployedLinkReferences": {}
}