{
  "_format": "hh-sol-artifact-1",
  "contractName": "StakingPackage",
  "sourceName": "contracts/dao/staking/packages/StakingPackage.sol",
  "abi": [
    {
      "anonymous": false,
      "inputs": [
        {
          "indexed": true,
          "internalType": "bool",
          "name": "oldFlag",
          "type": "bool"
        },
        {
          "indexed": true,
          "internalType": "bool",
          "name": "newFlag",
          "type": "bool"
        }
      ],
      "name": "EarlyWithdrawalFlagSet",
      "type": "event"
    },
    {
      "anonymous": false,
      "inputs": [
        {
          "indexed": true,
          "internalType": "uint256",
          "name": "oldMaxLockPositions",
          "type": "uint256"
        },
        {
          "indexed": true,
          "internalType": "uint256",
          "name": "newMaxLockPositions",
          "type": "uint256"
        }
      ],
      "name": "MaxLockPositionsSet",
      "type": "event"
    },
    {
      "anonymous": false,
      "inputs": [
        {
          "indexed": true,
          "internalType": "uint256",
          "name": "streamId",
          "type": "uint256"
        },
        {
          "indexed": true,
          "internalType": "address",
          "name": "account",
          "type": "address"
        },
        {
          "indexed": true,
          "internalType": "uint256",
          "name": "pendings",
          "type": "uint256"
        }
      ],
      "name": "Pending",
      "type": "event"
    },
    {
      "anonymous": false,
      "inputs": [
        {
          "indexed": true,
          "internalType": "uint256",
          "name": "streamId",
          "type": "uint256"
        },
        {
          "indexed": true,
          "internalType": "address",
          "name": "user",
          "type": "address"
        },
        {
          "indexed": false,
          "internalType": "uint256",
          "name": "pendingAmount",
          "type": "uint256"
        }
      ],
      "name": "Released",
      "type": "event"
    },
    {
      "anonymous": false,
      "inputs": [
        {
          "indexed": true,
          "internalType": "bytes32",
          "name": "role",
          "type": "bytes32"
        },
        {
          "indexed": true,
          "internalType": "bytes32",
          "name": "previousAdminRole",
          "type": "bytes32"
        },
        {
          "indexed": true,
          "internalType": "bytes32",
          "name": "newAdminRole",
          "type": "bytes32"
        }
      ],
      "name": "RoleAdminChanged",
      "type": "event"
    },
    {
      "anonymous": false,
      "inputs": [
        {
          "indexed": true,
          "internalType": "bytes32",
          "name": "role",
          "type": "bytes32"
        },
        {
          "indexed": true,
          "internalType": "address",
          "name": "account",
          "type": "address"
        },
        {
          "indexed": true,
          "internalType": "address",
          "name": "sender",
          "type": "address"
        }
      ],
      "name": "RoleGranted",
      "type": "event"
    },
    {
      "anonymous": false,
      "inputs": [
        {
          "indexed": true,
          "internalType": "bytes32",
          "name": "role",
          "type": "bytes32"
        },
        {
          "indexed": true,
          "internalType": "address",
          "name": "account",
          "type": "address"
        },
        {
          "indexed": true,
          "internalType": "address",
          "name": "sender",
          "type": "address"
        }
      ],
      "name": "RoleRevoked",
      "type": "event"
    },
    {
      "anonymous": false,
      "inputs": [
        {
          "indexed": false,
          "internalType": "address",
          "name": "account",
          "type": "address"
        },
        {
          "indexed": true,
          "internalType": "uint256",
          "name": "streamShares",
          "type": "uint256"
        },
        {
          "indexed": true,
          "internalType": "uint256",
          "name": "nVEMainTkn",
          "type": "uint256"
        },
        {
          "indexed": true,
          "internalType": "uint256",
          "name": "lockId",
          "type": "uint256"
        }
      ],
      "name": "Staked",
      "type": "event"
    },
    {
      "anonymous": false,
      "inputs": [
        {
          "indexed": true,
          "internalType": "uint256",
          "name": "streamId",
          "type": "uint256"
        },
        {
          "indexed": true,
          "internalType": "address",
          "name": "owner",
          "type": "address"
        },
        {
          "indexed": true,
          "internalType": "address",
          "name": "token",
          "type": "address"
        },
        {
          "indexed": false,
          "internalType": "uint256",
          "name": "tokenAmount",
          "type": "uint256"
        }
      ],
      "name": "StreamCreated",
      "type": "event"
    },
    {
      "anonymous": false,
      "inputs": [
        {
          "indexed": true,
          "internalType": "uint256",
          "name": "streamId",
          "type": "uint256"
        },
        {
          "indexed": true,
          "internalType": "address",
          "name": "streamOwner",
          "type": "address"
        },
        {
          "indexed": false,
          "internalType": "uint256",
          "name": "mainTknStreamOwnerReward",
          "type": "uint256"
        }
      ],
      "name": "StreamOwnerRewardReleased",
      "type": "event"
    },
    {
      "anonymous": false,
      "inputs": [
        {
          "indexed": true,
          "internalType": "uint256",
          "name": "streamId",
          "type": "uint256"
        },
        {
          "indexed": true,
          "internalType": "address",
          "name": "owner",
          "type": "address"
        },
        {
          "indexed": true,
          "internalType": "address",
          "name": "token",
          "type": "address"
        }
      ],
      "name": "StreamProposalCancelled",
      "type": "event"
    },
    {
      "anonymous": false,
      "inputs": [
        {
          "indexed": true,
          "internalType": "uint256",
          "name": "streamId",
          "type": "uint256"
        },
        {
          "indexed": true,
          "internalType": "address",
          "name": "streamOwner",
          "type": "address"
        },
        {
          "indexed": true,
          "internalType": "address",
          "name": "rewardToken",
          "type": "address"
        },
        {
          "indexed": false,
          "internalType": "uint256",
          "name": "maxDepositAmount",
          "type": "uint256"
        }
      ],
      "name": "StreamProposed",
      "type": "event"
    },
    {
      "anonymous": false,
      "inputs": [
        {
          "indexed": true,
          "internalType": "uint256",
          "name": "streamId",
          "type": "uint256"
        },
        {
          "indexed": true,
          "internalType": "address",
          "name": "owner",
          "type": "address"
        },
        {
          "indexed": true,
          "internalType": "address",
          "name": "token",
          "type": "address"
        }
      ],
      "name": "StreamRemoved",
      "type": "event"
    },
    {
      "anonymous": false,
      "inputs": [
        {
          "indexed": true,
          "internalType": "address",
          "name": "oldTreasuryAddress",
          "type": "address"
        },
        {
          "indexed": true,
          "internalType": "address",
          "name": "newTreasuryAddress",
          "type": "address"
        }
      ],
      "name": "TreasuryAddressSet",
      "type": "event"
    },
    {
      "anonymous": false,
      "inputs": [
        {
          "indexed": true,
          "internalType": "address",
          "name": "account",
          "type": "address"
        },
        {
          "indexed": true,
          "internalType": "uint256",
          "name": "amount",
          "type": "uint256"
        },
        {
          "indexed": true,
          "internalType": "uint256",
          "name": "lockId",
          "type": "uint256"
        }
      ],
      "name": "Unstaked",
      "type": "event"
    },
    {
      "inputs": [],
      "name": "DEFAULT_ADMIN_ROLE",
      "outputs": [
        {
          "internalType": "bytes32",
          "name": "",
          "type": "bytes32"
        }
      ],
      "stateMutability": "view",
      "type": "function"
    },
    {
      "inputs": [],
      "name": "GOVERNANCE_ROLE",
      "outputs": [
        {
          "internalType": "bytes32",
          "name": "",
          "type": "bytes32"
        }
      ],
      "stateMutability": "view",
      "type": "function"
    },
    {
      "inputs": [],
      "name": "PAUSE_ROLE",
      "outputs": [
        {
          "internalType": "bytes32",
          "name": "",
          "type": "bytes32"
        }
      ],
      "stateMutability": "view",
      "type": "function"
    },
    {
      "inputs": [],
      "name": "STREAM_MANAGER_ROLE",
      "outputs": [
        {
          "internalType": "bytes32",
          "name": "",
          "type": "bytes32"
        }
      ],
      "stateMutability": "view",
      "type": "function"
    },
    {
      "inputs": [],
      "name": "admin",
      "outputs": [
        {
          "internalType": "address",
          "name": "",
          "type": "address"
        }
      ],
      "stateMutability": "view",
      "type": "function"
    },
    {
      "inputs": [
        {
          "internalType": "uint256",
          "name": "flags",
          "type": "uint256"
        }
      ],
      "name": "adminPause",
      "outputs": [],
      "stateMutability": "nonpayable",
      "type": "function"
    },
    {
      "inputs": [
        {
          "internalType": "uint256[]",
          "name": "streamIds",
          "type": "uint256[]"
        },
        {
          "internalType": "uint256",
          "name": "lockId",
          "type": "uint256"
        }
      ],
      "name": "batchClaimRewards",
      "outputs": [],
      "stateMutability": "nonpayable",
      "type": "function"
    },
    {
      "inputs": [
        {
          "internalType": "uint256",
          "name": "streamId",
          "type": "uint256"
        }
      ],
      "name": "cancelStreamProposal",
      "outputs": [],
      "stateMutability": "nonpayable",
      "type": "function"
    },
    {
      "inputs": [
        {
          "internalType": "uint256",
          "name": "lockId",
          "type": "uint256"
        }
      ],
      "name": "claimAllRewards",
      "outputs": [],
      "stateMutability": "nonpayable",
      "type": "function"
    },
    {
      "inputs": [
        {
          "internalType": "uint256",
          "name": "streamId",
          "type": "uint256"
        },
        {
          "internalType": "uint256",
          "name": "lockId",
          "type": "uint256"
        }
      ],
      "name": "claimRewards",
      "outputs": [],
      "stateMutability": "nonpayable",
      "type": "function"
    },
    {
      "inputs": [
        {
          "internalType": "uint256",
          "name": "amount",
          "type": "uint256"
        },
        {
          "internalType": "uint256",
          "name": "unlockTime",
          "type": "uint256"
        }
      ],
      "name": "createLock",
      "outputs": [],
      "stateMutability": "nonpayable",
      "type": "function"
    },
    {
      "inputs": [
        {
          "internalType": "uint256",
          "name": "streamId",
          "type": "uint256"
        },
        {
          "internalType": "uint256",
          "name": "rewardTokenAmount",
          "type": "uint256"
        }
      ],
      "name": "createStream",
      "outputs": [],
      "stateMutability": "nonpayable",
      "type": "function"
    },
    {
      "inputs": [
        {
          "internalType": "uint256",
          "name": "lockId",
          "type": "uint256"
        }
      ],
      "name": "earlyUnlock",
      "outputs": [],
      "stateMutability": "nonpayable",
      "type": "function"
    },
    {
      "inputs": [],
      "name": "earlyWithdrawPenaltyWeight",
      "outputs": [
        {
          "internalType": "uint64",
          "name": "",
          "type": "uint64"
        }
      ],
      "stateMutability": "view",
      "type": "function"
    },
    {
      "inputs": [
        {
          "internalType": "address",
          "name": "account",
          "type": "address"
        }
      ],
      "name": "getAllLocks",
      "outputs": [
        {
          "components": [
            {
              "internalType": "uint128",
              "name": "amountOfMAINTkn",
              "type": "uint128"
            },
            {
              "internalType": "uint128",
              "name": "amountOfveMAINTkn",
              "type": "uint128"
            },
            {
              "internalType": "uint128",
              "name": "mainTknShares",
              "type": "uint128"
            },
            {
              "internalType": "uint128",
              "name": "positionStreamShares",
              "type": "uint128"
            },
            {
              "internalType": "uint64",
              "name": "end",
              "type": "uint64"
            },
            {
              "internalType": "address",
              "name": "owner",
              "type": "address"
            }
          ],
          "internalType": "struct LockedBalance[]",
          "name": "",
          "type": "tuple[]"
        }
      ],
      "stateMutability": "view",
      "type": "function"
    },
    {
      "inputs": [
        {
          "internalType": "uint256",
          "name": "streamId",
          "type": "uint256"
        }
      ],
      "name": "getLatestRewardsPerShare",
      "outputs": [
        {
          "internalType": "uint256",
          "name": "",
          "type": "uint256"
        }
      ],
      "stateMutability": "view",
      "type": "function"
    },
    {
      "inputs": [
        {
          "internalType": "address",
          "name": "account",
          "type": "address"
        },
        {
          "internalType": "uint256",
          "name": "lockId",
          "type": "uint256"
        }
      ],
      "name": "getLockInfo",
      "outputs": [
        {
          "components": [
            {
              "internalType": "uint128",
              "name": "amountOfMAINTkn",
              "type": "uint128"
            },
            {
              "internalType": "uint128",
              "name": "amountOfveMAINTkn",
              "type": "uint128"
            },
            {
              "internalType": "uint128",
              "name": "mainTknShares",
              "type": "uint128"
            },
            {
              "internalType": "uint128",
              "name": "positionStreamShares",
              "type": "uint128"
            },
            {
              "internalType": "uint64",
              "name": "end",
              "type": "uint64"
            },
            {
              "internalType": "address",
              "name": "owner",
              "type": "address"
            }
          ],
          "internalType": "struct LockedBalance",
          "name": "",
          "type": "tuple"
        }
      ],
      "stateMutability": "view",
      "type": "function"
    },
    {
      "inputs": [
        {
          "internalType": "uint256",
          "name": "streamId",
          "type": "uint256"
        },
        {
          "internalType": "address",
          "name": "account",
          "type": "address"
        }
      ],
      "name": "getPending",
      "outputs": [
        {
          "internalType": "uint256",
          "name": "",
          "type": "uint256"
        }
      ],
      "stateMutability": "view",
      "type": "function"
    },
    {
      "inputs": [
        {
          "internalType": "bytes32",
          "name": "role",
          "type": "bytes32"
        }
      ],
      "name": "getRoleAdmin",
      "outputs": [
        {
          "internalType": "bytes32",
          "name": "",
          "type": "bytes32"
        }
      ],
      "stateMutability": "view",
      "type": "function"
    },
    {
      "inputs": [
        {
          "internalType": "uint256",
          "name": "streamId",
          "type": "uint256"
        }
      ],
      "name": "getStream",
      "outputs": [
        {
          "internalType": "address",
          "name": "streamOwner",
          "type": "address"
        },
        {
          "internalType": "address",
          "name": "rewardToken",
          "type": "address"
        },
        {
          "internalType": "uint256",
          "name": "rewardDepositAmount",
          "type": "uint256"
        },
        {
          "internalType": "uint256",
          "name": "rewardClaimedAmount",
          "type": "uint256"
        },
        {
          "internalType": "uint256",
          "name": "maxDepositAmount",
          "type": "uint256"
        },
        {
          "internalType": "uint256",
          "name": "rps",
          "type": "uint256"
        },
        {
          "internalType": "uint256",
          "name": "tau",
          "type": "uint256"
        },
        {
          "internalType": "enum StreamStatus",
          "name": "status",
          "type": "uint8"
        }
      ],
      "stateMutability": "view",
      "type": "function"
    },
    {
      "inputs": [
        {
          "internalType": "address",
          "name": "account",
          "type": "address"
        }
      ],
      "name": "getUserTotalDeposit",
      "outputs": [
        {
          "internalType": "uint256",
          "name": "",
          "type": "uint256"
        }
      ],
      "stateMutability": "view",
      "type": "function"
    },
    {
      "inputs": [
        {
          "internalType": "address",
          "name": "account",
          "type": "address"
        },
        {
          "internalType": "uint256",
          "name": "streamId",
          "type": "uint256"
        }
      ],
      "name": "getUsersPendingRewards",
      "outputs": [
        {
          "internalType": "uint256",
          "name": "",
          "type": "uint256"
        }
      ],
      "stateMutability": "view",
      "type": "function"
    },
    {
      "inputs": [],
      "name": "govnContract",
      "outputs": [
        {
          "internalType": "address",
          "name": "",
          "type": "address"
        }
      ],
      "stateMutability": "view",
      "type": "function"
    },
    {
      "inputs": [
        {
          "internalType": "bytes32",
          "name": "role",
          "type": "bytes32"
        },
        {
          "internalType": "address",
          "name": "account",
          "type": "address"
        }
      ],
      "name": "grantRole",
      "outputs": [],
      "stateMutability": "nonpayable",
      "type": "function"
    },
    {
      "inputs": [
        {
          "internalType": "bytes32",
          "name": "role",
          "type": "bytes32"
        },
        {
          "internalType": "address",
          "name": "account",
          "type": "address"
        }
      ],
      "name": "hasRole",
      "outputs": [
        {
          "internalType": "bool",
          "name": "",
          "type": "bool"
        }
      ],
      "stateMutability": "view",
      "type": "function"
    },
    {
      "inputs": [
        {
          "internalType": "address",
          "name": "_vault",
          "type": "address"
        },
        {
          "internalType": "address",
          "name": "_mainTkn",
          "type": "address"
        },
        {
          "internalType": "address",
          "name": "_veMAINTkn",
          "type": "address"
        },
        {
          "components": [
            {
              "internalType": "uint32",
              "name": "maxWeightShares",
              "type": "uint32"
            },
            {
              "internalType": "uint32",
              "name": "minWeightShares",
              "type": "uint32"
            },
            {
              "internalType": "uint32",
              "name": "maxWeightPenalty",
              "type": "uint32"
            },
            {
              "internalType": "uint32",
              "name": "minWeightPenalty",
              "type": "uint32"
            },
            {
              "internalType": "uint32",
              "name": "penaltyWeightMultiplier",
              "type": "uint32"
            }
          ],
          "internalType": "struct Weight",
          "name": "_weight",
          "type": "tuple"
        },
        {
          "internalType": "address",
          "name": "streamOwner",
          "type": "address"
        },
        {
          "internalType": "uint256[]",
          "name": "scheduleTimes",
          "type": "uint256[]"
        },
        {
          "internalType": "uint256[]",
          "name": "scheduleRewards",
          "type": "uint256[]"
        },
        {
          "internalType": "uint256",
          "name": "tau",
          "type": "uint256"
        },
        {
          "internalType": "uint256",
          "name": "_voteShareCoef",
          "type": "uint256"
        },
        {
          "internalType": "uint256",
          "name": "_voteLockWeight",
          "type": "uint256"
        },
        {
          "internalType": "uint256",
          "name": "_maxLocks",
          "type": "uint256"
        }
      ],
      "name": "initializeStaking",
      "outputs": [],
      "stateMutability": "nonpayable",
      "type": "function"
    },
    {
      "inputs": [],
      "name": "mainTkn",
      "outputs": [
        {
          "internalType": "address",
          "name": "",
          "type": "address"
        }
      ],
      "stateMutability": "view",
      "type": "function"
    },
    {
      "inputs": [],
      "name": "maxLockPositions",
      "outputs": [
        {
          "internalType": "uint256",
          "name": "",
          "type": "uint256"
        }
      ],
      "stateMutability": "view",
      "type": "function"
    },
    {
      "inputs": [],
      "name": "paused",
      "outputs": [
        {
          "internalType": "uint256",
          "name": "",
          "type": "uint256"
        }
      ],
      "stateMutability": "view",
      "type": "function"
    },
    {
      "inputs": [
        {
          "internalType": "address",
          "name": "streamOwner",
          "type": "address"
        },
        {
          "internalType": "address",
          "name": "rewardToken",
          "type": "address"
        },
        {
          "internalType": "uint256",
          "name": "maxDepositAmount",
          "type": "uint256"
        },
        {
          "internalType": "uint256",
          "name": "minDepositAmount",
          "type": "uint256"
        },
        {
          "internalType": "uint256[]",
          "name": "scheduleTimes",
          "type": "uint256[]"
        },
        {
          "internalType": "uint256[]",
          "name": "scheduleRewards",
          "type": "uint256[]"
        },
        {
          "internalType": "uint256",
          "name": "tau",
          "type": "uint256"
        }
      ],
      "name": "proposeStream",
      "outputs": [],
      "stateMutability": "nonpayable",
      "type": "function"
    },
    {
      "inputs": [
        {
          "internalType": "uint256",
          "name": "streamId",
          "type": "uint256"
        },
        {
          "internalType": "address",
          "name": "streamFundReceiver",
          "type": "address"
        }
      ],
      "name": "removeStream",
      "outputs": [],
      "stateMutability": "nonpayable",
      "type": "function"
    },
    {
      "inputs": [
        {
          "internalType": "bytes32",
          "name": "role",
          "type": "bytes32"
        },
        {
          "internalType": "address",
          "name": "account",
          "type": "address"
        }
      ],
      "name": "renounceRole",
      "outputs": [],
      "stateMutability": "nonpayable",
      "type": "function"
    },
    {
      "inputs": [
        {
          "internalType": "bytes32",
          "name": "role",
          "type": "bytes32"
        },
        {
          "internalType": "address",
          "name": "account",
          "type": "address"
        }
      ],
      "name": "revokeRole",
      "outputs": [],
      "stateMutability": "nonpayable",
      "type": "function"
    },
    {
      "inputs": [
        {
          "internalType": "bool",
          "name": "_flag",
          "type": "bool"
        }
      ],
      "name": "setEarlyWithdrawalFlag",
      "outputs": [],
      "stateMutability": "nonpayable",
      "type": "function"
    },
    {
      "inputs": [
        {
          "internalType": "address",
          "name": "_govnContract",
          "type": "address"
        }
      ],
      "name": "setGovernanceContract",
      "outputs": [],
      "stateMutability": "nonpayable",
      "type": "function"
    },
    {
      "inputs": [
        {
          "internalType": "uint8",
          "name": "_maxLockPositions",
          "type": "uint8"
        }
      ],
      "name": "setMaxLockPositions",
      "outputs": [],
      "stateMutability": "nonpayable",
      "type": "function"
    },
    {
      "inputs": [
        {
          "internalType": "address",
          "name": "_treasury",
          "type": "address"
        }
      ],
      "name": "setTreasuryAddress",
      "outputs": [],
      "stateMutability": "nonpayable",
      "type": "function"
    },
    {
      "inputs": [
        {
          "internalType": "bytes4",
          "name": "interfaceId",
          "type": "bytes4"
        }
      ],
      "name": "supportsInterface",
      "outputs": [
        {
          "internalType": "bool",
          "name": "",
          "type": "bool"
        }
      ],
      "stateMutability": "view",
      "type": "function"
    },
    {
      "inputs": [],
      "name": "totalAmountOfStakedMAINTkn",
      "outputs": [
        {
          "internalType": "uint256",
          "name": "",
          "type": "uint256"
        }
      ],
      "stateMutability": "view",
      "type": "function"
    },
    {
      "inputs": [],
      "name": "totalAmountOfveMAINTkn",
      "outputs": [
        {
          "internalType": "uint256",
          "name": "",
          "type": "uint256"
        }
      ],
      "stateMutability": "view",
      "type": "function"
    },
    {
      "inputs": [],
      "name": "totalMAINTknShares",
      "outputs": [
        {
          "internalType": "uint256",
          "name": "",
          "type": "uint256"
        }
      ],
      "stateMutability": "view",
      "type": "function"
    },
    {
      "inputs": [],
      "name": "totalPenaltyBalance",
      "outputs": [
        {
          "internalType": "uint256",
          "name": "",
          "type": "uint256"
        }
      ],
      "stateMutability": "view",
      "type": "function"
    },
    {
      "inputs": [],
      "name": "totalStreamShares",
      "outputs": [
        {
          "internalType": "uint256",
          "name": "",
          "type": "uint256"
        }
      ],
      "stateMutability": "view",
      "type": "function"
    },
    {
      "inputs": [
        {
          "internalType": "uint256",
          "name": "lockId",
          "type": "uint256"
        }
      ],
      "name": "unlock",
      "outputs": [],
      "stateMutability": "nonpayable",
      "type": "function"
    },
    {
      "inputs": [
        {
          "internalType": "address",
          "name": "",
          "type": "address"
        }
      ],
      "name": "users",
      "outputs": [
        {
          "internalType": "uint128",
          "name": "veMAINTknBalance",
          "type": "uint128"
        },
        {
          "internalType": "uint128",
          "name": "veMAINTknReleased",
          "type": "uint128"
        }
      ],
      "stateMutability": "view",
      "type": "function"
    },
    {
      "inputs": [],
      "name": "vault",
      "outputs": [
        {
          "internalType": "address",
          "name": "",
          "type": "address"
        }
      ],
      "stateMutability": "view",
      "type": "function"
    },
    {
      "inputs": [],
      "name": "veMAINTkn",
      "outputs": [
        {
          "internalType": "address",
          "name": "",
          "type": "address"
        }
      ],
      "stateMutability": "view",
      "type": "function"
    },
    {
      "inputs": [],
      "name": "voteLockWeight",
      "outputs": [
        {
          "internalType": "uint256",
          "name": "",
          "type": "uint256"
        }
      ],
      "stateMutability": "view",
      "type": "function"
    },
    {
      "inputs": [
        {
          "internalType": "uint256",
          "name": "streamId",
          "type": "uint256"
        }
      ],
      "name": "withdraw",
      "outputs": [],
      "stateMutability": "nonpayable",
      "type": "function"
    },
    {
      "inputs": [],
      "name": "withdrawAll",
      "outputs": [],
      "stateMutability": "nonpayable",
      "type": "function"
    },
    {
      "inputs": [
        {
          "internalType": "address",
          "name": "penaltyReceiver",
          "type": "address"
        }
      ],
      "name": "withdrawPenalty",
      "outputs": [],
      "stateMutability": "nonpayable",
      "type": "function"
    }
  ],
  "bytecode": "0x60806040523480156200001157600080fd5b50600160148190555061a216806200002a6000396000f3fe608060405234801561001057600080fd5b50600436106102f15760003560e01c80636605bfda1161019d57806391d14854116100e9578063cb6a496d116100a2578063f36c8f5c1161007c578063f36c8f5c14610908578063f604037314610926578063f851a44014610944578063fbfa77cf14610962576102f1565b8063cb6a496d146108b2578063d547741f146108d0578063eb55a47c146108ec576102f1565b806391d14854146107b7578063a217fddf146107e7578063a4c828dc14610805578063a87430ba14610835578063a8d85f7014610866578063b52c05fe14610896576102f1565b80637f37df3b11610156578063894e9a0d11610130578063894e9a0d146107185780638d40bd031461074f578063904033221461076b5780639113281214610787576102f1565b80637f37df3b146106c0578063853828b6146106f05780638659ef62146106fa576102f1565b80636605bfda14610614578063670d2dfc146106305780636a5212af1461064c5780636db8e53d146106685780637e583913146106865780637ebd739f146106a4576102f1565b80632f2ff15d1161025c5780633a3f15111161021557806355021b3a116101ef57806355021b3a146105a2578063594dd432146105be5780635c975abb146105da5780636198e339146105f8576102f1565b80633a3f15111461054a5780633ba31abf146105685780633ea005c814610584576102f1565b80632f2ff15d1461049c578063338e3078146104b857806336085c51146104d657806336568abe146104f2578063369bd2c51461050e578063389ed2671461052c576102f1565b8063248a9ca3116102ae578063248a9ca3146103cc5780632692c59f146103fc578063277d96b7146104185780632851ed12146104485780632b6a7221146104645780632e1a7d4d14610480576102f1565b806301ffc9a7146102f65780631129753f1461032657806315b9672c14610342578063160d3fee1461037257806319e220a4146103905780631f5b2ac0146103ae575b600080fd5b610310600480360381019061030b9190617518565b610980565b60405161031d9190617560565b60405180910390f35b610340600480360381019061033b91906175d9565b6109fa565b005b61035c6004803603810190610357919061763c565b610a93565b6040516103699190617754565b60405180910390f35b61037a610d4e565b604051610387919061777e565b60405180910390f35b610398610d54565b6040516103a591906177a8565b60405180910390f35b6103b6610d7a565b6040516103c3919061777e565b60405180910390f35b6103e660048036038101906103e191906177f9565b610d80565b6040516103f39190617835565b60405180910390f35b61041660048036038101906104119190617850565b610da0565b005b610432600480360381019061042d9190617850565b610e06565b60405161043f919061777e565b60405180910390f35b610462600480360381019061045d9190617aa3565b610e18565b005b61047e600480360381019061047991906175d9565b6113d0565b005b61049a60048036038101906104959190617850565b6114aa565b005b6104b660048036038101906104b19190617bd3565b6115a9565b005b6104c06115ca565b6040516104cd9190617c22565b60405180910390f35b6104f060048036038101906104eb9190617850565b6115e4565b005b61050c60048036038101906105079190617bd3565b6119b5565b005b610516611a38565b604051610523919061777e565b60405180910390f35b610534611a3e565b6040516105419190617835565b60405180910390f35b610552611a62565b60405161055f919061777e565b60405180910390f35b610582600480360381019061057d9190617c3d565b611a68565b005b61058c611d57565b6040516105999190617835565b60405180910390f35b6105bc60048036038101906105b79190617c7d565b611d7b565b005b6105d860048036038101906105d39190617d57565b61217e565b005b6105e2612278565b6040516105ef919061777e565b60405180910390f35b610612600480360381019061060d9190617850565b61227e565b005b61062e600480360381019061062991906175d9565b6125fa565b005b61064a60048036038101906106459190617dc3565b61270d565b005b61066660048036038101906106619190617e4b565b61279c565b005b610670612898565b60405161067d919061777e565b60405180910390f35b61068e61289e565b60405161069b91906177a8565b60405180910390f35b6106be60048036038101906106b99190617850565b6128c4565b005b6106da60048036038101906106d59190617c3d565b6129bc565b6040516106e7919061777e565b60405180910390f35b6106f8612a1a565b005b610702612b31565b60405161070f91906177a8565b60405180910390f35b610732600480360381019061072d9190617850565b612b57565b604051610746989796959493929190617f22565b60405180910390f35b61076960048036038101906107649190617d57565b612c1a565b005b61078560048036038101906107809190617850565b61303c565b005b6107a1600480360381019061079c919061763c565b6131d9565b6040516107ae919061777e565b60405180910390f35b6107d160048036038101906107cc9190617bd3565b613237565b6040516107de9190617560565b60405180910390f35b6107ef6132a2565b6040516107fc9190617835565b60405180910390f35b61081f600480360381019061081a91906175d9565b6132a9565b60405161082c919061777e565b60405180910390f35b61084f600480360381019061084a91906175d9565b6133b8565b60405161085d929190617faf565b60405180910390f35b610880600480360381019061087b91906175d9565b613414565b60405161088d9190618102565b60405180910390f35b6108b060048036038101906108ab9190617d57565b613662565b005b6108ba6139be565b6040516108c7919061777e565b60405180910390f35b6108ea60048036038101906108e59190617bd3565b6139c4565b005b6109066004803603810190610901919061815d565b6139e5565b005b610910613a2b565b60405161091d9190617835565b60405180910390f35b61092e613a4f565b60405161093b919061777e565b60405180910390f35b61094c613a55565b60405161095991906177a8565b60405180910390f35b61096a613a7b565b60405161097791906177a8565b60405180910390f35b60007f7965db0b000000000000000000000000000000000000000000000000000000007bffffffffffffffffffffffffffffffffffffffffffffffffffffffff1916827bffffffffffffffffffffffffffffffffffffffffffffffffffffffff191614806109f357506109f282613aa1565b5b9050919050565b7f71840dc4906352362b0cdaf79870196c8e42acafade72d5d5a6d59291253ceb1610a2481613b0b565b610a4e7f71840dc4906352362b0cdaf79870196c8e42acafade72d5d5a6d59291253ceb183613b1f565b81601360006101000a81548173ffffffffffffffffffffffffffffffffffffffff021916908373ffffffffffffffffffffffffffffffffffffffff1602179055505050565b610a9b6173a4565b601060008473ffffffffffffffffffffffffffffffffffffffff1673ffffffffffffffffffffffffffffffffffffffff16815260200190815260200160002080549050821115610b20576040517f08c379a0000000000000000000000000000000000000000000000000000000008152600401610b17906181e7565b60405180910390fd5b601060008473ffffffffffffffffffffffffffffffffffffffff1673ffffffffffffffffffffffffffffffffffffffff168152602001908152602001600020600183610b6c9190618236565b81548110610b7d57610b7c61826a565b5b90600052602060002090600302016040518060c00160405290816000820160009054906101000a90046fffffffffffffffffffffffffffffffff166fffffffffffffffffffffffffffffffff166fffffffffffffffffffffffffffffffff1681526020016000820160109054906101000a90046fffffffffffffffffffffffffffffffff166fffffffffffffffffffffffffffffffff166fffffffffffffffffffffffffffffffff1681526020016001820160009054906101000a90046fffffffffffffffffffffffffffffffff166fffffffffffffffffffffffffffffffff166fffffffffffffffffffffffffffffffff1681526020016001820160109054906101000a90046fffffffffffffffffffffffffffffffff166fffffffffffffffffffffffffffffffff166fffffffffffffffffffffffffffffffff1681526020016002820160009054906101000a900467ffffffffffffffff1667ffffffffffffffff1667ffffffffffffffff1681526020016002820160089054906101000a900473ffffffffffffffffffffffffffffffffffffffff1673ffffffffffffffffffffffffffffffffffffffff1673ffffffffffffffffffffffffffffffffffffffff1681525050905092915050565b60035481565b600c60009054906101000a900473ffffffffffffffffffffffffffffffffffffffff1681565b60055481565b600060156000838152602001908152602001600020600101549050919050565b60175481601754161480610dbd5750610dbc6000801b33613237565b5b610dfc576040517f08c379a0000000000000000000000000000000000000000000000000000000008152600401610df3906182e5565b60405180910390fd5b8060178190555050565b6000610e1182613c00565b9050919050565b60008054906101000a900460ff1615610e66576040517f08c379a0000000000000000000000000000000000000000000000000000000008152600401610e5d90618351565b60405180910390fd5b610eab878b87600081518110610e7f57610e7e61826a565b5b602002602001015188600081518110610e9b57610e9a61826a565b5b60200260200101518a8a8a613cae565b610eba8a8a8a8e878787614177565b600d60009054906101000a900473ffffffffffffffffffffffffffffffffffffffff1673ffffffffffffffffffffffffffffffffffffffff1663240028e88b6040518263ffffffff1660e01b8152600401610f1591906177a8565b602060405180830381865afa158015610f32573d6000803e3d6000fd5b505050506040513d601f19601f82011682018060405250810190610f569190618386565b610f95576040517f08c379a0000000000000000000000000000000000000000000000000000000008152600401610f8c906183ff565b60405180910390fd5b610f9f600061451a565b610fc97f930802d0eadfb856cb83e01d1c4daa3c89e9c6d9f74cfbe13124decf2b33128a33613b1f565b610ff37f71840dc4906352362b0cdaf79870196c8e42acafade72d5d5a6d59291253ceb133613b1f565b6000806040518060400160405280898152602001888152509050600f6040518061016001604052808b73ffffffffffffffffffffffffffffffffffffffff1681526020018b73ffffffffffffffffffffffffffffffffffffffff168152602001600b60009054906101000a900473ffffffffffffffffffffffffffffffffffffffff1673ffffffffffffffffffffffffffffffffffffffff16815260200160008152602001600081526020016000815260200160008152602001888152602001600081526020018381526020016002808111156110d3576110d2617eab565b5b81525090806001815401808255809150506001900390600052602060002090600c020160009091909190915060008201518160000160006101000a81548173ffffffffffffffffffffffffffffffffffffffff021916908373ffffffffffffffffffffffffffffffffffffffff16021790555060208201518160010160006101000a81548173ffffffffffffffffffffffffffffffffffffffff021916908373ffffffffffffffffffffffffffffffffffffffff16021790555060408201518160020160006101000a81548173ffffffffffffffffffffffffffffffffffffffff021916908373ffffffffffffffffffffffffffffffffffffffff160217905550606082015181600301556080820151816004015560a0820151816005015560c0820151816006015560e082015181600701556101008201518160080155610120820151816009016000820151816000019080519060200190611237929190617442565b506020820151816001019080519060200190611254929190617442565b50505061014082015181600b0160006101000a81548160ff0219169083600281111561128357611282617eab565b5b021790555050506001601360146101000a81548160ff02191690831515021790555060016000806101000a81548160ff0219169083151502179055508b73ffffffffffffffffffffffffffffffffffffffff168973ffffffffffffffffffffffffffffffffffffffff16837f16284487ea0f1368a3aac8128c3dd7d8e577839303a834c010386a8aea2265708a6000815181106113235761132261826a565b5b6020026020010151604051611338919061777e565b60405180910390a48b73ffffffffffffffffffffffffffffffffffffffff168973ffffffffffffffffffffffffffffffffffffffff16837f4396d7c3edc1447dac8dd2b7143af95840c926a210524a0d3198012c7fdf37c78a6000815181106113a4576113a361826a565b5b60200260200101516040516113b9919061777e565b60405180910390a450505050505050505050505050565b60016000816017541614806113ee57506113ed6000801b33613237565b5b61142d576040517f08c379a00000000000000000000000000000000000000000000000000000000081526004016114249061846b565b60405180910390fd5b7f71840dc4906352362b0cdaf79870196c8e42acafade72d5d5a6d59291253ceb161145781613b0b565b60006007541161149c576040517f08c379a0000000000000000000000000000000000000000000000000000000008152600401611493906184d7565b60405180910390fd5b6114a5836145c6565b505050565b60016000816017541614806114c857506114c76000801b33613237565b5b611507576040517f08c379a00000000000000000000000000000000000000000000000000000000081526004016114fe9061846b565b60405180910390fd5b600e60003373ffffffffffffffffffffffffffffffffffffffff1673ffffffffffffffffffffffffffffffffffffffff168152602001908152602001600020600201600083815260200190815260200160002054421161159c576040517f08c379a000000000000000000000000000000000000000000000000000000000815260040161159390618543565b60405180910390fd5b6115a5826146a5565b5050565b6115b282610d80565b6115bb81613b0b565b6115c58383613b1f565b505050565b600860149054906101000a900467ffffffffffffffff1681565b6115ec614847565b600160008160175416148061160a57506116096000801b33613237565b5b611649576040517f08c379a00000000000000000000000000000000000000000000000000000000081526004016116409061846b565b60405180910390fd5b60011515601360149054906101000a900460ff1615151461169f576040517f08c379a0000000000000000000000000000000000000000000000000000000008152600401611696906185af565b60405180910390fd5b600082036116e2576040517f08c379a00000000000000000000000000000000000000000000000000000000081526004016116d99061861b565b60405180910390fd5b601060003373ffffffffffffffffffffffffffffffffffffffff1673ffffffffffffffffffffffffffffffffffffffff16815260200190815260200160002080549050821115611767576040517f08c379a000000000000000000000000000000000000000000000000000000000815260040161175e90618687565b60405180910390fd5b6000601060003373ffffffffffffffffffffffffffffffffffffffff1673ffffffffffffffffffffffffffffffffffffffff1681526020019081526020016000206001846117b59190618236565b815481106117c6576117c561826a565b5b9060005260206000209060030201905060008160000160009054906101000a90046fffffffffffffffffffffffffffffffff166fffffffffffffffffffffffffffffffff161161184b576040517f08c379a0000000000000000000000000000000000000000000000000000000008152600401611842906186f3565b60405180910390fd5b428160020160009054906101000a900467ffffffffffffffff1667ffffffffffffffff16116118af576040517f08c379a00000000000000000000000000000000000000000000000000000000081526004016118a69061875f565b60405180910390fd5b3373ffffffffffffffffffffffffffffffffffffffff168160020160089054906101000a900473ffffffffffffffffffffffffffffffffffffffff1673ffffffffffffffffffffffffffffffffffffffff1614611941576040517f08c379a0000000000000000000000000000000000000000000000000000000008152600401611938906187cb565b60405180910390fd5b611949614896565b60006003548260010160009054906101000a90046fffffffffffffffffffffffffffffffff166fffffffffffffffffffffffffffffffff1660025461198e91906187eb565b6119989190618874565b90506119a784828385336149a7565b5050506119b2614af2565b50565b6119bd614afc565b73ffffffffffffffffffffffffffffffffffffffff168173ffffffffffffffffffffffffffffffffffffffff1614611a2a576040517f08c379a0000000000000000000000000000000000000000000000000000000008152600401611a2190618917565b60405180910390fd5b611a348282614b04565b5050565b600a5481565b7f139c2898040ef16910dc9f44dc697df79363da767d8bc92f2e310312b816e46d81565b60125481565b7f930802d0eadfb856cb83e01d1c4daa3c89e9c6d9f74cfbe13124decf2b33128a611a9281613b0b565b60008303611ad5576040517f08c379a0000000000000000000000000000000000000000000000000000000008152600401611acc90618983565b60405180910390fd5b6000600f8481548110611aeb57611aea61826a565b5b90600052602060002090600c02019050600280811115611b0e57611b0d617eab565b5b81600b0160009054906101000a900460ff166002811115611b3257611b31617eab565b5b14611b72576040517f08c379a0000000000000000000000000000000000000000000000000000000008152600401611b69906189ef565b60405180910390fd5b600081600b0160006101000a81548160ff02191690836002811115611b9a57611b99617eab565b5b0217905550600081600401548260030154611bb59190618236565b90506000611be68360020160009054906101000a900473ffffffffffffffffffffffffffffffffffffffff16614be6565b9050600d60009054906101000a900473ffffffffffffffffffffffffffffffffffffffff1673ffffffffffffffffffffffffffffffffffffffff1663da0c1a88868560020160009054906101000a900473ffffffffffffffffffffffffffffffffffffffff1684861115611c5a5784611c5c565b855b6040518463ffffffff1660e01b8152600401611c7a93929190618a0f565b600060405180830381600087803b158015611c9457600080fd5b505af1158015611ca8573d6000803e3d6000fd5b505050508260020160009054906101000a900473ffffffffffffffffffffffffffffffffffffffff1673ffffffffffffffffffffffffffffffffffffffff168360000160009054906101000a900473ffffffffffffffffffffffffffffffffffffffff1673ffffffffffffffffffffffffffffffffffffffff16877f661da9ced4b5d786f5b5f451a5f68af24721a01b0a65bb47fa4fdf70b80b887c60405160405180910390a4505050505050565b7f930802d0eadfb856cb83e01d1c4daa3c89e9c6d9f74cfbe13124decf2b33128a81565b7f930802d0eadfb856cb83e01d1c4daa3c89e9c6d9f74cfbe13124decf2b33128a611da581613b0b565b611db488888888888888613cae565b600d60009054906101000a900473ffffffffffffffffffffffffffffffffffffffff1673ffffffffffffffffffffffffffffffffffffffff1663240028e8886040518263ffffffff1660e01b8152600401611e0f91906177a8565b602060405180830381865afa158015611e2c573d6000803e3d6000fd5b505050506040513d601f19601f82011682018060405250810190611e509190618386565b611e8f576040517f08c379a0000000000000000000000000000000000000000000000000000000008152600401611e8690618a92565b60405180910390fd5b600060405180604001604052808681526020018581525090506000600f805490509050600f6040518061016001604052808c73ffffffffffffffffffffffffffffffffffffffff1681526020013373ffffffffffffffffffffffffffffffffffffffff1681526020018b73ffffffffffffffffffffffffffffffffffffffff16815260200160008152602001600081526020018a81526020018981526020018681526020016000815260200184815260200160016002811115611f5557611f54617eab565b5b81525090806001815401808255809150506001900390600052602060002090600c020160009091909190915060008201518160000160006101000a81548173ffffffffffffffffffffffffffffffffffffffff021916908373ffffffffffffffffffffffffffffffffffffffff16021790555060208201518160010160006101000a81548173ffffffffffffffffffffffffffffffffffffffff021916908373ffffffffffffffffffffffffffffffffffffffff16021790555060408201518160020160006101000a81548173ffffffffffffffffffffffffffffffffffffffff021916908373ffffffffffffffffffffffffffffffffffffffff160217905550606082015181600301556080820151816004015560a0820151816005015560c0820151816006015560e0820151816007015561010082015181600801556101208201518160090160008201518160000190805190602001906120b9929190617442565b5060208201518160010190805190602001906120d6929190617442565b50505061014082015181600b0160006101000a81548160ff0219169083600281111561210557612104617eab565b5b021790555050508873ffffffffffffffffffffffffffffffffffffffff168a73ffffffffffffffffffffffffffffffffffffffff16827f16284487ea0f1368a3aac8128c3dd7d8e577839303a834c010386a8aea2265708b60405161216a919061777e565b60405180910390a450505050505050505050565b600160008160175416148061219c575061219b6000801b33613237565b5b6121db576040517f08c379a00000000000000000000000000000000000000000000000000000000081526004016121d29061846b565b60405180910390fd5b601060003373ffffffffffffffffffffffffffffffffffffffff1673ffffffffffffffffffffffffffffffffffffffff16815260200190815260200160002080549050821115612260576040517f08c379a000000000000000000000000000000000000000000000000000000000815260040161225790618687565b60405180910390fd5b612268614896565b612273338484614c8b565b505050565b60175481565b612286614847565b60016000816017541614806122a457506122a36000801b33613237565b5b6122e3576040517f08c379a00000000000000000000000000000000000000000000000000000000081526004016122da9061846b565b60405180910390fd5b60008203612326576040517f08c379a000000000000000000000000000000000000000000000000000000000815260040161231d9061861b565b60405180910390fd5b601060003373ffffffffffffffffffffffffffffffffffffffff1673ffffffffffffffffffffffffffffffffffffffff168152602001908152602001600020805490508211156123ab576040517f08c379a00000000000000000000000000000000000000000000000000000000081526004016123a290618687565b60405180910390fd5b6000601060003373ffffffffffffffffffffffffffffffffffffffff1673ffffffffffffffffffffffffffffffffffffffff1681526020019081526020016000206001846123f99190618236565b8154811061240a5761240961826a565b5b9060005260206000209060030201905060008160000160009054906101000a90046fffffffffffffffffffffffffffffffff166fffffffffffffffffffffffffffffffff161161248f576040517f08c379a0000000000000000000000000000000000000000000000000000000008152600401612486906186f3565b60405180910390fd5b428160020160009054906101000a900467ffffffffffffffff1667ffffffffffffffff1611156124f4576040517f08c379a00000000000000000000000000000000000000000000000000000000081526004016124eb90618afe565b60405180910390fd5b3373ffffffffffffffffffffffffffffffffffffffff168160020160089054906101000a900473ffffffffffffffffffffffffffffffffffffffff1673ffffffffffffffffffffffffffffffffffffffff1614612586576040517f08c379a000000000000000000000000000000000000000000000000000000000815260040161257d906187cb565b60405180910390fd5b61258e614896565b60006003548260010160009054906101000a90046fffffffffffffffffffffffffffffffff166fffffffffffffffffffffffffffffffff166002546125d391906187eb565b6125dd9190618874565b90506125ec84828385336150b2565b5050506125f7614af2565b50565b7f71840dc4906352362b0cdaf79870196c8e42acafade72d5d5a6d59291253ceb161262481613b0b565b6000600860009054906101000a900473ffffffffffffffffffffffffffffffffffffffff16905082600860006101000a81548173ffffffffffffffffffffffffffffffffffffffff021916908373ffffffffffffffffffffffffffffffffffffffff160217905550600860009054906101000a900473ffffffffffffffffffffffffffffffffffffffff1673ffffffffffffffffffffffffffffffffffffffff168173ffffffffffffffffffffffffffffffffffffffff167f1db696c9becb6c7e5b140934fe902d723d35791ef36d36c9b1586f6a502fd29760405160405180910390a3505050565b7f71840dc4906352362b0cdaf79870196c8e42acafade72d5d5a6d59291253ceb161273781613b0b565b6000601360149054906101000a900460ff16905082601360146101000a81548160ff0219169083151502179055508215158115157f6cd354be06b6c3ce9871ee8831b718be7a99ce8fe7c914e03ee420fa85bc6a7560405160405180910390a3505050565b60016000816017541614806127ba57506127b96000801b33613237565b5b6127f9576040517f08c379a00000000000000000000000000000000000000000000000000000000081526004016127f09061846b565b60405180910390fd5b601060003373ffffffffffffffffffffffffffffffffffffffff1673ffffffffffffffffffffffffffffffffffffffff1681526020019081526020016000208054905082111561287e576040517f08c379a000000000000000000000000000000000000000000000000000000000815260040161287590618687565b60405180910390fd5b612886614896565b61289233858585615288565b50505050565b60045481565b601360009054906101000a900473ffffffffffffffffffffffffffffffffffffffff1681565b60016000816017541614806128e257506128e16000801b33613237565b5b612921576040517f08c379a00000000000000000000000000000000000000000000000000000000081526004016129189061846b565b60405180910390fd5b601060003373ffffffffffffffffffffffffffffffffffffffff1673ffffffffffffffffffffffffffffffffffffffff168152602001908152602001600020805490508211156129a6576040517f08c379a000000000000000000000000000000000000000000000000000000000815260040161299d90618687565b60405180910390fd5b6129ae614896565b6129b8338361534b565b5050565b6000600e60008373ffffffffffffffffffffffffffffffffffffffff1673ffffffffffffffffffffffffffffffffffffffff168152602001908152602001600020600101600084815260200190815260200160002054905092915050565b6001600081601754161480612a385750612a376000801b33613237565b5b612a77576040517f08c379a0000000000000000000000000000000000000000000000000000000008152600401612a6e9061846b565b60405180910390fd5b6000600e60003373ffffffffffffffffffffffffffffffffffffffff1673ffffffffffffffffffffffffffffffffffffffff16815260200190815260200160002090506000600f80549050905060005b81811015612b2b5760008360010160008381526020019081526020016000205414158015612b0957508260020160008281526020019081526020016000205442115b15612b1857612b17816146a5565b5b8080612b2390618b1e565b915050612ac7565b50505050565b600b60009054906101000a900473ffffffffffffffffffffffffffffffffffffffff1681565b6000806000806000806000806000600f8a81548110612b7957612b7861826a565b5b90600052602060002090600c020190508060000160009054906101000a900473ffffffffffffffffffffffffffffffffffffffff168160020160009054906101000a900473ffffffffffffffffffffffffffffffffffffffff168260030154836004015484600501548560080154866007015487600b0160009054906101000a900460ff169850985098509850985098509850985050919395975091939597565b6001600081601754161480612c385750612c376000801b33613237565b5b612c77576040517f08c379a0000000000000000000000000000000000000000000000000000000008152600401612c6e9061846b565b60405180910390fd5b6000600f8481548110612c8d57612c8c61826a565b5b90600052602060002090600c0201905060016002811115612cb157612cb0617eab565b5b81600b0160009054906101000a900460ff166002811115612cd557612cd4617eab565b5b14612d15576040517f08c379a0000000000000000000000000000000000000000000000000000000008152600401612d0c90618bb2565b60405180910390fd5b4281600901600001600081548110612d3057612d2f61826a565b5b90600052602060002001541015612d7c576040517f08c379a0000000000000000000000000000000000000000000000000000000008152600401612d7390618c1e565b60405180910390fd5b8060050154831115612dc3576040517f08c379a0000000000000000000000000000000000000000000000000000000008152600401612dba90618c8a565b60405180910390fd5b8060060154831015612e0a576040517f08c379a0000000000000000000000000000000000000000000000000000000008152600401612e0190618cf6565b60405180910390fd5b600281600b0160006101000a81548160ff02191690836002811115612e3257612e31617eab565b5b02179055508281600301819055508060050154831015612e5757612e5684846153e6565b5b806003015481600901600101600081548110612e7657612e7561826a565b5b906000526020600020015414612ec1576040517f08c379a0000000000000000000000000000000000000000000000000000000008152600401612eb890618d62565b60405180910390fd5b8060020160009054906101000a900473ffffffffffffffffffffffffffffffffffffffff1673ffffffffffffffffffffffffffffffffffffffff168160000160009054906101000a900473ffffffffffffffffffffffffffffffffffffffff1673ffffffffffffffffffffffffffffffffffffffff16857f4396d7c3edc1447dac8dd2b7143af95840c926a210524a0d3198012c7fdf37c786604051612f67919061777e565b60405180910390a48060020160009054906101000a900473ffffffffffffffffffffffffffffffffffffffff1673ffffffffffffffffffffffffffffffffffffffff166323b872dd33600d60009054906101000a900473ffffffffffffffffffffffffffffffffffffffff16866040518463ffffffff1660e01b8152600401612ff293929190618a0f565b6020604051808303816000875af1158015613011573d6000803e3d6000fd5b505050506040513d601f19601f820116820180604052508101906130359190618386565b5050505050565b7f930802d0eadfb856cb83e01d1c4daa3c89e9c6d9f74cfbe13124decf2b33128a61306681613b0b565b6000600f838154811061307c5761307b61826a565b5b90600052602060002090600c02019050600160028111156130a05761309f617eab565b5b81600b0160009054906101000a900460ff1660028111156130c4576130c3617eab565b5b14613104576040517f08c379a00000000000000000000000000000000000000000000000000000000081526004016130fb90618dce565b60405180910390fd5b600081600b0160006101000a81548160ff0219169083600281111561312c5761312b617eab565b5b02179055508060020160009054906101000a900473ffffffffffffffffffffffffffffffffffffffff1673ffffffffffffffffffffffffffffffffffffffff168160000160009054906101000a900473ffffffffffffffffffffffffffffffffffffffff1673ffffffffffffffffffffffffffffffffffffffff16847ffadbcbd495527ce5e10fd0cceba57d404a4625dd6ce0499c254ac523789ef3ad60405160405180910390a4505050565b6000600e60008473ffffffffffffffffffffffffffffffffffffffff1673ffffffffffffffffffffffffffffffffffffffff168152602001908152602001600020600101600083815260200190815260200160002054905092915050565b60006015600084815260200190815260200160002060000160008373ffffffffffffffffffffffffffffffffffffffff1673ffffffffffffffffffffffffffffffffffffffff16815260200190815260200160002060009054906101000a900460ff16905092915050565b6000801b81565b6000806000905060005b601060008573ffffffffffffffffffffffffffffffffffffffff1673ffffffffffffffffffffffffffffffffffffffff168152602001908152602001600020805490508110156133ae57601060008573ffffffffffffffffffffffffffffffffffffffff1673ffffffffffffffffffffffffffffffffffffffff168152602001908152602001600020818154811061334e5761334d61826a565b5b906000526020600020906003020160000160009054906101000a90046fffffffffffffffffffffffffffffffff166fffffffffffffffffffffffffffffffff16826133999190618dee565b915080806133a690618b1e565b9150506132b3565b5080915050919050565b600e6020528060005260406000206000915090508060000160009054906101000a90046fffffffffffffffffffffffffffffffff16908060000160109054906101000a90046fffffffffffffffffffffffffffffffff16905082565b6060601060008373ffffffffffffffffffffffffffffffffffffffff1673ffffffffffffffffffffffffffffffffffffffff168152602001908152602001600020805480602002602001604051908101604052809291908181526020016000905b8282101561365757838290600052602060002090600302016040518060c00160405290816000820160009054906101000a90046fffffffffffffffffffffffffffffffff166fffffffffffffffffffffffffffffffff166fffffffffffffffffffffffffffffffff1681526020016000820160109054906101000a90046fffffffffffffffffffffffffffffffff166fffffffffffffffffffffffffffffffff166fffffffffffffffffffffffffffffffff1681526020016001820160009054906101000a90046fffffffffffffffffffffffffffffffff166fffffffffffffffffffffffffffffffff166fffffffffffffffffffffffffffffffff1681526020016001820160109054906101000a90046fffffffffffffffffffffffffffffffff166fffffffffffffffffffffffffffffffff166fffffffffffffffffffffffffffffffff1681526020016002820160009054906101000a900467ffffffffffffffff1667ffffffffffffffff1667ffffffffffffffff1681526020016002820160089054906101000a900473ffffffffffffffffffffffffffffffffffffffff1673ffffffffffffffffffffffffffffffffffffffff1673ffffffffffffffffffffffffffffffffffffffff168152505081526020019060010190613475565b505050509050919050565b61366a614847565b600160008160175416148061368857506136876000801b33613237565b5b6136c7576040517f08c379a00000000000000000000000000000000000000000000000000000000081526004016136be9061846b565b60405180910390fd5b601254601060003373ffffffffffffffffffffffffffffffffffffffff1673ffffffffffffffffffffffffffffffffffffffff16815260200190815260200160002080549050111561374e576040517f08c379a000000000000000000000000000000000000000000000000000000000815260040161374590618e90565b60405180910390fd5b60008311613791576040517f08c379a000000000000000000000000000000000000000000000000000000000815260040161378890618efc565b60405180910390fd5b4282116137d3576040517f08c379a00000000000000000000000000000000000000000000000000000000081526004016137ca90618f68565b60405180910390fd5b62093a806301e133806137e69190618dee565b426137f19190618dee565b821115613833576040517f08c379a000000000000000000000000000000000000000000000000000000000815260040161382a90618fd4565b60405180910390fd5b61383b614896565b60006040518060c0016040528060006fffffffffffffffffffffffffffffffff16815260200160006fffffffffffffffffffffffffffffffff16815260200160006fffffffffffffffffffffffffffffffff16815260200160006fffffffffffffffffffffffffffffffff1681526020016138b585615502565b67ffffffffffffffff1681526020013373ffffffffffffffffffffffffffffffffffffffff1681525090506138eb338286615559565b600b60009054906101000a900473ffffffffffffffffffffffffffffffffffffffff1673ffffffffffffffffffffffffffffffffffffffff166323b872dd33600d60009054906101000a900473ffffffffffffffffffffffffffffffffffffffff16876040518463ffffffff1660e01b815260040161396c93929190618a0f565b6020604051808303816000875af115801561398b573d6000803e3d6000fd5b505050506040513d601f19601f820116820180604052508101906139af9190618386565b5050506139ba614af2565b5050565b60025481565b6139cd82610d80565b6139d681613b0b565b6139e08383614b04565b505050565b600060125490508160ff166012819055508160ff16817f46a30b28ed71185fea149df29e60cb4e801e2371324ab100861181aaa4e28b6d60405160405180910390a35050565b7f71840dc4906352362b0cdaf79870196c8e42acafade72d5d5a6d59291253ceb181565b60075481565b601660009054906101000a900473ffffffffffffffffffffffffffffffffffffffff1681565b600d60009054906101000a900473ffffffffffffffffffffffffffffffffffffffff1681565b60007f01ffc9a7000000000000000000000000000000000000000000000000000000007bffffffffffffffffffffffffffffffffffffffffffffffffffffffff1916827bffffffffffffffffffffffffffffffffffffffffffffffffffffffff1916149050919050565b613b1c81613b17614afc565b6158ef565b50565b613b298282613237565b613bfc5760016015600084815260200190815260200160002060000160008373ffffffffffffffffffffffffffffffffffffffff1673ffffffffffffffffffffffffffffffffffffffff16815260200190815260200160002060006101000a81548160ff021916908315150217905550613ba1614afc565b73ffffffffffffffffffffffffffffffffffffffff168173ffffffffffffffffffffffffffffffffffffffff16837f2f8788117e7eff1d82e926ec794901d17c78024a50270940304540a733656f0d60405160405180910390a45b5050565b60008060045403613c46576040517f08c379a0000000000000000000000000000000000000000000000000000000008152600401613c3d90619040565b60405180910390fd5b6004546c7e37be2022c0914b2680000000613c638460015461598c565b613c6d91906187eb565b613c779190618874565b600f8381548110613c8b57613c8a61826a565b5b90600052602060002090600c020160080154613ca79190618dee565b9050919050565b600073ffffffffffffffffffffffffffffffffffffffff168773ffffffffffffffffffffffffffffffffffffffff1603613d1d576040517f08c379a0000000000000000000000000000000000000000000000000000000008152600401613d14906190ac565b60405180910390fd5b600073ffffffffffffffffffffffffffffffffffffffff168673ffffffffffffffffffffffffffffffffffffffff1603613d8c576040517f08c379a0000000000000000000000000000000000000000000000000000000008152600401613d8390619118565b60405180910390fd5b60008511613dcf576040517f08c379a0000000000000000000000000000000000000000000000000000000008152600401613dc690619184565b60405180910390fd5b60008411613e12576040517f08c379a0000000000000000000000000000000000000000000000000000000008152600401613e09906191f0565b60405180910390fd5b84841115613e55576040517f08c379a0000000000000000000000000000000000000000000000000000000008152600401613e4c9061925c565b60405180910390fd5b81600081518110613e6957613e6861826a565b5b60200260200101518514613eb2576040517f08c379a0000000000000000000000000000000000000000000000000000000008152600401613ea9906192ee565b60405180910390fd5b4283600081518110613ec757613ec661826a565b5b602002602001015111613f0f576040517f08c379a0000000000000000000000000000000000000000000000000000000008152600401613f069061935a565b60405180910390fd5b8151835114613f53576040517f08c379a0000000000000000000000000000000000000000000000000000000008152600401613f4a906193ec565b60405180910390fd5b600283511015613f98576040517f08c379a0000000000000000000000000000000000000000000000000000000008152600401613f8f90619458565b60405180910390fd5b60008103613fdb576040517f08c379a0000000000000000000000000000000000000000000000000000000008152600401613fd2906194c4565b60405180910390fd5b6000600190505b83518110156141035783600182613ff99190618236565b8151811061400a5761400961826a565b5b60200260200101518482815181106140255761402461826a565b5b60200260200101511161406d576040517f08c379a000000000000000000000000000000000000000000000000000000000815260040161406490619530565b60405180910390fd5b8260018261407b9190618236565b8151811061408c5761408b61826a565b5b60200260200101518382815181106140a7576140a661826a565b5b602002602001015111156140f0576040517f08c379a00000000000000000000000000000000000000000000000000000000081526004016140e79061959c565b60405180910390fd5b80806140fb90618b1e565b915050613fe2565b50600082600184516141159190618236565b815181106141265761412561826a565b5b60200260200101511461416e576040517f08c379a000000000000000000000000000000000000000000000000000000000815260040161416590619608565b60405180910390fd5b50505050505050565b600073ffffffffffffffffffffffffffffffffffffffff168773ffffffffffffffffffffffffffffffffffffffff16036141e6576040517f08c379a00000000000000000000000000000000000000000000000000000000081526004016141dd90619674565b60405180910390fd5b600073ffffffffffffffffffffffffffffffffffffffff168673ffffffffffffffffffffffffffffffffffffffff1603614255576040517f08c379a000000000000000000000000000000000000000000000000000000000815260040161424c906196e0565b60405180910390fd5b600073ffffffffffffffffffffffffffffffffffffffff168473ffffffffffffffffffffffffffffffffffffffff16036142c4576040517f08c379a00000000000000000000000000000000000000000000000000000000081526004016142bb9061974c565b60405180910390fd5b846020015163ffffffff16856000015163ffffffff161161431a576040517f08c379a0000000000000000000000000000000000000000000000000000000008152600401614311906197b8565b60405180910390fd5b846060015163ffffffff16856040015163ffffffff1611614370576040517f08c379a000000000000000000000000000000000000000000000000000000000815260040161436790619824565b60405180910390fd5b86600b60006101000a81548173ffffffffffffffffffffffffffffffffffffffff021916908373ffffffffffffffffffffffffffffffffffffffff16021790555085600c60006101000a81548173ffffffffffffffffffffffffffffffffffffffff021916908373ffffffffffffffffffffffffffffffffffffffff16021790555084601160008201518160000160006101000a81548163ffffffff021916908363ffffffff16021790555060208201518160000160046101000a81548163ffffffff021916908363ffffffff16021790555060408201518160000160086101000a81548163ffffffff021916908363ffffffff160217905550606082015181600001600c6101000a81548163ffffffff021916908363ffffffff16021790555060808201518160000160106101000a81548163ffffffff021916908363ffffffff16021790555090505083600d60006101000a81548173ffffffffffffffffffffffffffffffffffffffff021916908373ffffffffffffffffffffffffffffffffffffffff1602179055508260098190555081600a819055508060128190555050505050505050565b601860009054906101000a900460ff161561456a576040517f08c379a000000000000000000000000000000000000000000000000000000000815260040161456190619890565b60405180910390fd5b6145776000801b33613b1f565b6145a17f139c2898040ef16910dc9f44dc697df79363da767d8bc92f2e310312b816e46d33613b1f565b806017819055506001601860006101000a81548160ff02191690831515021790555050565b60006007549050600060078190555080600660008282546145e79190618dee565b92505081905550600d60009054906101000a900473ffffffffffffffffffffffffffffffffffffffff1673ffffffffffffffffffffffffffffffffffffffff1663da0c1a8883600b60009054906101000a900473ffffffffffffffffffffffffffffffffffffffff16846040518463ffffffff1660e01b815260040161466f93929190618a0f565b600060405180830381600087803b15801561468957600080fd5b505af115801561469d573d6000803e3d6000fd5b505050505050565b6000600e60003373ffffffffffffffffffffffffffffffffffffffff1673ffffffffffffffffffffffffffffffffffffffff168152602001908152602001600020905060008160010160008481526020019081526020016000205490506000826001016000858152602001908152602001600020819055503373ffffffffffffffffffffffffffffffffffffffff16837f3bfce8de0db7450cc169b94323c210e69a36c6a4a58c9f5d96bec4973adce39283604051614764919061777e565b60405180910390a3600d60009054906101000a900473ffffffffffffffffffffffffffffffffffffffff1673ffffffffffffffffffffffffffffffffffffffff1663da0c1a8833600f86815481106147bf576147be61826a565b5b90600052602060002090600c020160020160009054906101000a900473ffffffffffffffffffffffffffffffffffffffff16846040518463ffffffff1660e01b815260040161481093929190618a0f565b600060405180830381600087803b15801561482a57600080fd5b505af115801561483e573d6000803e3d6000fd5b50505050505050565b60026014540361488c576040517f08c379a0000000000000000000000000000000000000000000000000000000008152600401614883906198fc565b60405180910390fd5b6002601481905550565b4260015403156149a5576000600f8054905090506000600354141580156148be575060008114155b1561499c576148d0600060015461598c565b600260008282546148e19190618dee565b925050819055506000600190505b8181101561499a5760028081111561490a57614909617eab565b5b600f828154811061491e5761491d61826a565b5b90600052602060002090600c0201600b0160009054906101000a900460ff16600281111561494f5761494e617eab565b5b036149875761495d81613c00565b600f82815481106149715761497061826a565b5b90600052602060002090600c0201600801819055505b808061499290618b1e565b9150506148ef565b505b42600181905550505b565b60008260020160009054906101000a900467ffffffffffffffff1667ffffffffffffffff1690506149db86868686866150b2565b60006149e78242615b11565b90506000620186a087836149fb91906187eb565b614a059190618874565b90506000600e60008673ffffffffffffffffffffffffffffffffffffffff1673ffffffffffffffffffffffffffffffffffffffff168152602001908152602001600020905081816001016000808152602001908152602001600020541015614aa2576040517f08c379a0000000000000000000000000000000000000000000000000000000008152600401614a9990619968565b60405180910390fd5b818160010160008081526020019081526020016000206000828254614ac79190618236565b925050819055508160076000828254614ae09190618dee565b92505081905550505050505050505050565b6001601481905550565b600033905090565b614b0e8282613237565b15614be25760006015600084815260200190815260200160002060000160008373ffffffffffffffffffffffffffffffffffffffff1673ffffffffffffffffffffffffffffffffffffffff16815260200190815260200160002060006101000a81548160ff021916908315150217905550614b87614afc565b73ffffffffffffffffffffffffffffffffffffffff168173ffffffffffffffffffffffffffffffffffffffff16837ff6391f5c32d9c69d2a47ea670b442974b53935d1edc7fd64eb21e047a839171b60405160405180910390a45b5050565b60008173ffffffffffffffffffffffffffffffffffffffff166370a08231600d60009054906101000a900473ffffffffffffffffffffffffffffffffffffffff166040518263ffffffff1660e01b8152600401614c4391906177a8565b602060405180830381865afa158015614c60573d6000803e3d6000fd5b505050506040513d601f19601f82011682018060405250810190614c84919061999d565b9050919050565b6000601060008573ffffffffffffffffffffffffffffffffffffffff1673ffffffffffffffffffffffffffffffffffffffff168152602001908152602001600020600183614cd99190618236565b81548110614cea57614ce961826a565b5b9060005260206000209060030201905060008303614d3d576040517f08c379a0000000000000000000000000000000000000000000000000000000008152600401614d3490619a16565b60405180910390fd5b600280811115614d5057614d4f617eab565b5b600f8481548110614d6457614d6361826a565b5b90600052602060002090600c0201600b0160009054906101000a900460ff166002811115614d9557614d94617eab565b5b14614dd5576040517f08c379a0000000000000000000000000000000000000000000000000000000008152600401614dcc90619a82565b60405180910390fd5b6000600e60008673ffffffffffffffffffffffffffffffffffffffff1673ffffffffffffffffffffffffffffffffffffffff168152602001908152602001600020905060008260010160009054906101000a90046fffffffffffffffffffffffffffffffff166fffffffffffffffffffffffffffffffff1603614e8d576040517f08c379a0000000000000000000000000000000000000000000000000000000008152600401614e8490619aee565b60405180910390fd5b60006c7e37be2022c0914b26800000008360010160109054906101000a90046fffffffffffffffffffffffffffffffff166fffffffffffffffffffffffffffffffff16836003016000878152602001908152602001600020600088815260200190815260200160002054600f8881548110614f0b57614f0a61826a565b5b90600052602060002090600c020160080154614f279190618236565b614f3191906187eb565b614f3b9190618874565b905060008103614f4d575050506150ad565b808260010160008781526020019081526020016000206000828254614f729190618dee565b92505081905550600f8581548110614f8d57614f8c61826a565b5b90600052602060002090600c020160080154826003016000868152602001908152602001600020600087815260200190815260200160002081905550600f8581548110614fdd57614fdc61826a565b5b90600052602060002090600c02016007015442614ffa9190618dee565b8260020160008781526020019081526020016000208190555080600f86815481106150285761502761826a565b5b90600052602060002090600c020160040160008282546150489190618dee565b92505081905550816001016000868152602001908152602001600020548673ffffffffffffffffffffffffffffffffffffffff16867f5f1c6be51c8ec7fa7e7ddd9f798ec55927b06cfc8d9159987d1ae3358cb10b5960405160405180910390a45050505b505050565b6000600e60008373ffffffffffffffffffffffffffffffffffffffff1673ffffffffffffffffffffffffffffffffffffffff168152602001908152602001600020905060008360000160109054906101000a90046fffffffffffffffffffffffffffffffff166fffffffffffffffffffffffffffffffff1690506151368483615c0e565b6151438685878a87615d60565b6000600c60009054906101000a900473ffffffffffffffffffffffffffffffffffffffff1673ffffffffffffffffffffffffffffffffffffffff166370a08231856040518263ffffffff1660e01b81526004016151a091906177a8565b602060405180830381865afa1580156151bd573d6000803e3d6000fd5b505050506040513d601f19601f820116820180604052508101906151e1919061999d565b9050818110156151ef578091505b600c60009054906101000a900473ffffffffffffffffffffffffffffffffffffffff1673ffffffffffffffffffffffffffffffffffffffff16639dc29fac85846040518363ffffffff1660e01b815260040161524c929190619b0e565b600060405180830381600087803b15801561526657600080fd5b505af115801561527a573d6000803e3d6000fd5b505050505050505050505050565b60005b83839050811015615344576002808111156152a9576152a8617eab565b5b600f8585848181106152be576152bd61826a565b5b90506020020135815481106152d6576152d561826a565b5b90600052602060002090600c0201600b0160009054906101000a900460ff16600281111561530757615306617eab565b5b0361533157615330858585848181106153235761532261826a565b5b9050602002013584614c8b565b5b808061533c90618b1e565b91505061528b565b5050505050565b6000600f8054905090506000600190505b818110156153e05760028081111561537757615376617eab565b5b600f828154811061538b5761538a61826a565b5b90600052602060002090600c0201600b0160009054906101000a900460ff1660028111156153bc576153bb617eab565b5b036153cd576153cc848285614c8b565b5b80806153d890618b1e565b91505061535c565b50505050565b6000600f83815481106153fc576153fb61826a565b5b90600052602060002090600c020160090160010180549050905060005b818110156154fc57600f84815481106154355761543461826a565b5b90600052602060002090600c02016005015483600f868154811061545c5761545b61826a565b5b90600052602060002090600c020160090160010183815481106154825761548161826a565b5b906000526020600020015461549791906187eb565b6154a19190618874565b600f85815481106154b5576154b461826a565b5b90600052602060002090600c020160090160010182815481106154db576154da61826a565b5b906000526020600020018190555080806154f490618b1e565b915050615419565b50505050565b600067ffffffffffffffff8016821115615551576040517f08c379a000000000000000000000000000000000000000000000000000000000815260040161554890619b83565b60405180910390fd5b819050919050565b600042836080015167ffffffffffffffff166155759190618236565b90506000615584838387615f21565b905061558f81616005565b846020018181516155a09190619ba3565b9150906fffffffffffffffffffffffffffffffff1690816fffffffffffffffffffffffffffffffff1681525050600083111561561e576155df83616005565b846000018181516155f09190619ba3565b9150906fffffffffffffffffffffffffffffffff1690816fffffffffffffffffffffffffffffffff16815250505b601060008673ffffffffffffffffffffffffffffffffffffffff1673ffffffffffffffffffffffffffffffffffffffff16815260200190815260200160002084908060018154018082558091505060019003906000526020600020906003020160009091909190915060008201518160000160006101000a8154816fffffffffffffffffffffffffffffffff02191690836fffffffffffffffffffffffffffffffff16021790555060208201518160000160106101000a8154816fffffffffffffffffffffffffffffffff02191690836fffffffffffffffffffffffffffffffff16021790555060408201518160010160006101000a8154816fffffffffffffffffffffffffffffffff02191690836fffffffffffffffffffffffffffffffff16021790555060608201518160010160106101000a8154816fffffffffffffffffffffffffffffffff02191690836fffffffffffffffffffffffffffffffff16021790555060808201518160020160006101000a81548167ffffffffffffffff021916908367ffffffffffffffff16021790555060a08201518160020160086101000a81548173ffffffffffffffffffffffffffffffffffffffff021916908373ffffffffffffffffffffffffffffffffffffffff16021790555050506000601060008773ffffffffffffffffffffffffffffffffffffffff1673ffffffffffffffffffffffffffffffffffffffff16815260200190815260200160002080549050905061584e86858484616064565b60008211156158e757600c60009054906101000a900473ffffffffffffffffffffffffffffffffffffffff1673ffffffffffffffffffffffffffffffffffffffff166340c10f1987846040518363ffffffff1660e01b81526004016158b4929190619b0e565b600060405180830381600087803b1580156158ce57600080fd5b505af11580156158e2573d6000803e3d6000fd5b505050505b505050505050565b6158f98282613237565b6159885761591e8173ffffffffffffffffffffffffffffffffffffffff166014616319565b61592c8360001c6020616319565b60405160200161593d929190619cfb565b6040516020818303038152906040526040517f08c379a000000000000000000000000000000000000000000000000000000000815260040161597f9190619d6e565b60405180910390fd5b5050565b6000428211156159d1576040517f08c379a00000000000000000000000000000000000000000000000000000000081526004016159c890619e02565b60405180910390fd5b4282036159e15760009050615b0b565b6000600f84815481106159f7576159f661826a565b5b90600052602060002090600c0201600901600001600081548110615a1e57615a1d61826a565b5b90600052602060002001549050804211615a3c576000915050615b0b565b6000600f8581548110615a5257615a5161826a565b5b90600052602060002090600c02016009016000016001600f8781548110615a7c57615a7b61826a565b5b90600052602060002090600c020160090160000180549050615a9e9190618236565b81548110615aaf57615aae61826a565b5b90600052602060002001549050808410615ace57600092505050615b0b565b60008083861115615ae157859150615ae5565b8391505b82421015615af557429050615af9565b8290505b615b04878383616555565b9450505050505b92915050565b60008083905060008382615b259190618236565b9050818410615b3957600092505050615c08565b62093a806301e13380615b4c9190618dee565b816011600001600c9054906101000a900463ffffffff16601160000160089054906101000a900463ffffffff16615b839190619e22565b601160000160109054906101000a900463ffffffff16615ba39190619e56565b63ffffffff16615bb391906187eb565b615bbd9190618874565b6011600001600c9054906101000a900463ffffffff16601160000160109054906101000a900463ffffffff16615bf39190619e56565b63ffffffff16615c039190618dee565b925050505b92915050565b60008260000160109054906101000a90046fffffffffffffffffffffffffffffffff166fffffffffffffffffffffffffffffffff16905060008360000160106101000a8154816fffffffffffffffffffffffffffffffff02191690836fffffffffffffffffffffffffffffffff1602179055508060056000828254615c939190618236565b925050819055506000818360000160009054906101000a90046fffffffffffffffffffffffffffffffff166fffffffffffffffffffffffffffffffff161115615d1757818360000160009054906101000a90046fffffffffffffffffffffffffffffffff166fffffffffffffffffffffffffffffffff16615d149190618236565b90505b615d2081616005565b8360000160006101000a8154816fffffffffffffffffffffffffffffffff02191690836fffffffffffffffffffffffffffffffff16021790555050505050565b6000600e60008373ffffffffffffffffffffffffffffffffffffffff1673ffffffffffffffffffffffffffffffffffffffff16815260200190815260200160002090508360026000828254615db59190618236565b925050819055508460010160109054906101000a90046fffffffffffffffffffffffffffffffff166fffffffffffffffffffffffffffffffff1660046000828254615e009190618236565b925050819055508460010160009054906101000a90046fffffffffffffffffffffffffffffffff166fffffffffffffffffffffffffffffffff1660036000828254615e4b9190618236565b92505081905550858160010160008081526020019081526020016000206000828254615e779190618dee565b92505081905550600f600081548110615e9357615e9261826a565b5b90600052602060002090600c02016007015442615eb09190618dee565b8160020160008081526020019081526020016000208190555082868373ffffffffffffffffffffffffffffffffffffffff167f7fc4727e062e336010f2c282598ef5f14facb3de68cf8195c2f23e1454b2b74e60405160405180910390a4615f198183856168ef565b505050505050565b600080600e60008473ffffffffffffffffffffffffffffffffffffffff1673ffffffffffffffffffffffffffffffffffffffff16815260200190815260200160002090506000615f718686616e49565b9050615f7c81616005565b8260000160008282829054906101000a90046fffffffffffffffffffffffffffffffff16615faa9190619ba3565b92506101000a8154816fffffffffffffffffffffffffffffffff02191690836fffffffffffffffffffffffffffffffff1602179055508060056000828254615ff29190618dee565b9250508190555080925050509392505050565b60006fffffffffffffffffffffffffffffffff801682111561605c576040517f08c379a000000000000000000000000000000000000000000000000000000000815260040161605390619ee0565b60405180910390fd5b819050919050565b6000600e60008673ffffffffffffffffffffffffffffffffffffffff1673ffffffffffffffffffffffffffffffffffffffff16815260200190815260200160002090506000601060008773ffffffffffffffffffffffffffffffffffffffff1673ffffffffffffffffffffffffffffffffffffffff1681526020019081526020016000206001846160f59190618236565b815481106161065761610561826a565b5b90600052602060002090600302019050600061612186616e92565b905085600260008282546161359190618dee565b92505081905550806003600082825461614e9190618dee565b925050819055506000616162828742616efd565b905080600460008282546161769190618dee565b9250508190555061618681616005565b8360010160108282829054906101000a90046fffffffffffffffffffffffffffffffff166161b49190619ba3565b92506101000a8154816fffffffffffffffffffffffffffffffff02191690836fffffffffffffffffffffffffffffffff1602179055506161f382616005565b8360010160008282829054906101000a90046fffffffffffffffffffffffffffffffff166162219190619ba3565b92506101000a8154816fffffffffffffffffffffffffffffffff02191690836fffffffffffffffffffffffffffffffff1602179055506000600f8054905090506000600190505b818110156162d357600f81815481106162845761628361826a565b5b90600052602060002090600c02016008015486600301600089815260200190815260200160002060008381526020019081526020016000208190555080806162cb90618b1e565b915050616268565b508587837fb4caaf29adda3eefee3ad552a8e85058589bf834c7466cae4ee58787f70589ed8c60405161630691906177a8565b60405180910390a4505050505050505050565b60606000600283600261632c91906187eb565b6163369190618dee565b67ffffffffffffffff81111561634f5761634e617893565b5b6040519080825280601f01601f1916602001820160405280156163815781602001600182028036833780820191505090505b5090507f3000000000000000000000000000000000000000000000000000000000000000816000815181106163b9576163b861826a565b5b60200101907effffffffffffffffffffffffffffffffffffffffffffffffffffffffffffff1916908160001a9053507f78000000000000000000000000000000000000000000000000000000000000008160018151811061641d5761641c61826a565b5b60200101907effffffffffffffffffffffffffffffffffffffffffffffffffffffffffffff1916908160001a9053506000600184600261645d91906187eb565b6164679190618dee565b90505b6001811115616507577f3031323334353637383961626364656600000000000000000000000000000000600f8616601081106164a9576164a861826a565b5b1a60f81b8282815181106164c0576164bf61826a565b5b60200101907effffffffffffffffffffffffffffffffffffffffffffffffffffffffffffff1916908160001a905350600485901c94508061650090619f00565b905061646a565b506000841461654b576040517f08c379a000000000000000000000000000000000000000000000000000000000815260040161654290619f75565b60405180910390fd5b8091505092915050565b600080600f858154811061656c5761656b61826a565b5b90600052602060002090600c0201600901905060008061658d8787876170b6565b809250819350505060008082840361667957846001016001856165b09190618dee565b815481106165c1576165c061826a565b5b90600052602060002001548560010185815481106165e2576165e161826a565b5b90600052602060002001546165f79190618236565b905084600001848154811061660f5761660e61826a565b5b90600052602060002001548560000160018661662b9190618dee565b8154811061663c5761663b61826a565b5b90600052602060002001546166519190618236565b888861665d9190618236565b8261666891906187eb565b6166729190618874565b91506168e0565b8460010160018561668a9190618dee565b8154811061669b5761669a61826a565b5b90600052602060002001548560010185815481106166bc576166bb61826a565b5b90600052602060002001546166d19190618236565b90508460000184815481106166e9576166e861826a565b5b9060005260206000200154856000016001866167059190618dee565b815481106167165761671561826a565b5b906000526020600020015461672b9190618236565b888660000160018761673d9190618dee565b8154811061674e5761674d61826a565b5b90600052602060002001546167639190618236565b8261676e91906187eb565b6167789190618874565b91508460010183815481106167905761678f61826a565b5b9060005260206000200154856001016001866167ac9190618dee565b815481106167bd576167bc61826a565b5b90600052602060002001546167d29190618236565b826167dd9190618dee565b9150846001016001846167f09190618dee565b815481106168015761680061826a565b5b90600052602060002001548560010184815481106168225761682161826a565b5b90600052602060002001546168379190618236565b905084600001838154811061684f5761684e61826a565b5b90600052602060002001548560000160018561686b9190618dee565b8154811061687c5761687b61826a565b5b90600052602060002001546168919190618236565b8560000184815481106168a7576168a661826a565b5b9060005260206000200154886168bd9190618236565b826168c891906187eb565b6168d29190618874565b826168dd9190618dee565b91505b81955050505050509392505050565b6000600f8054905090506000601060008573ffffffffffffffffffffffffffffffffffffffff1673ffffffffffffffffffffffffffffffffffffffff1681526020019081526020016000208054905090508281141580156169505750600181115b15616cbf576000601060008673ffffffffffffffffffffffffffffffffffffffff1673ffffffffffffffffffffffffffffffffffffffff1681526020019081526020016000206001836169a39190618236565b815481106169b4576169b361826a565b5b9060005260206000209060030201905080601060008773ffffffffffffffffffffffffffffffffffffffff1673ffffffffffffffffffffffffffffffffffffffff168152602001908152602001600020600186616a119190618236565b81548110616a2257616a2161826a565b5b90600052602060002090600302016000820160009054906101000a90046fffffffffffffffffffffffffffffffff168160000160006101000a8154816fffffffffffffffffffffffffffffffff02191690836fffffffffffffffffffffffffffffffff1602179055506000820160109054906101000a90046fffffffffffffffffffffffffffffffff168160000160106101000a8154816fffffffffffffffffffffffffffffffff02191690836fffffffffffffffffffffffffffffffff1602179055506001820160009054906101000a90046fffffffffffffffffffffffffffffffff168160010160006101000a8154816fffffffffffffffffffffffffffffffff02191690836fffffffffffffffffffffffffffffffff1602179055506001820160109054906101000a90046fffffffffffffffffffffffffffffffff168160010160106101000a8154816fffffffffffffffffffffffffffffffff02191690836fffffffffffffffffffffffffffffffff1602179055506002820160009054906101000a900467ffffffffffffffff168160020160006101000a81548167ffffffffffffffff021916908367ffffffffffffffff1602179055506002820160089054906101000a900473ffffffffffffffffffffffffffffffffffffffff168160020160086101000a81548173ffffffffffffffffffffffffffffffffffffffff021916908373ffffffffffffffffffffffffffffffffffffffff1602179055509050506000600190505b83811015616cbc578660030160008481526020019081526020016000206000828152602001908152602001600020548760030160008781526020019081526020016000206000838152602001908152602001600020819055508080616cb490618b1e565b915050616c50565b50505b6000600190505b82811015616d0b578560030160008381526020019081526020016000206000828152602001908152602001600020600090558080616d0390618b1e565b915050616cc6565b50601060008573ffffffffffffffffffffffffffffffffffffffff1673ffffffffffffffffffffffffffffffffffffffff168152602001908152602001600020805480616d5b57616d5a619f95565b5b6001900381819060005260206000209060030201600080820160006101000a8154906fffffffffffffffffffffffffffffffff02191690556000820160106101000a8154906fffffffffffffffffffffffffffffffff02191690556001820160006101000a8154906fffffffffffffffffffffffffffffffff02191690556001820160106101000a8154906fffffffffffffffffffffffffffffffff02191690556002820160006101000a81549067ffffffffffffffff02191690556002820160086101000a81549073ffffffffffffffffffffffffffffffffffffffff0219169055505090555050505050565b6000670de0b6b3a7640000600a54670de0b6b3a76400008486616e6c91906187eb565b616e7691906187eb565b616e809190618874565b616e8a9190618874565b905092915050565b60008060009050600060035403616eab57829050616ef4565b600060035484616ebb91906187eb565b905060025481616ecb9190618874565b91508060025483616edc91906187eb565b1015616ef257600182616eef9190618dee565b91505b505b80915050919050565b6000806103e884600954616f1191906187eb565b616f1b9190618874565b85616f269190618dee565b9050600062282072600f600081548110616f4357616f4261826a565b5b90600052602060002090600c0201600901600001600081548110616f6a57616f6961826a565b5b9060005260206000200154616f7f9190618dee565b905060006301e1338082616f939190618dee565b9050818511616fcd57601160000160009054906101000a900463ffffffff1663ffffffff1683616fc391906187eb565b93505050506170af565b80851061700557601160000160049054906101000a900463ffffffff1663ffffffff1683616ffb91906187eb565b93505050506170af565b81816170119190618236565b858261701d9190618236565b601160000160049054906101000a900463ffffffff16601160000160009054906101000a900463ffffffff166170539190619e22565b63ffffffff168561706491906187eb565b61706e91906187eb565b6170789190618874565b601160000160009054906101000a900463ffffffff1663ffffffff168461709f91906187eb565b6170a99190618dee565b93505050505b9392505050565b6000806000600f86815481106170cf576170ce61826a565b5b90600052602060002090600c0201600901905060008160000180549050905060008111617131576040517f08c379a00000000000000000000000000000000000000000000000000000000081526004016171289061a010565b60405180910390fd5b858511617173576040517f08c379a000000000000000000000000000000000000000000000000000000000815260040161716a9061a07c565b60405180910390fd5b8160000160008154811061718a5761718961826a565b5b90600052602060002001548610156171d7576040517f08c379a00000000000000000000000000000000000000000000000000000000081526004016171ce9061a0e8565b60405180910390fd5b816000016001826171e89190618236565b815481106171f9576171f861826a565b5b9060005260206000200154851115617246576040517f08c379a000000000000000000000000000000000000000000000000000000000815260040161723d9061a154565b60405180910390fd5b6000600190505b818110156172a45782600001818154811061726b5761726a61826a565b5b90600052602060002001548710156172915760018161728a9190618236565b94506172a4565b808061729c90618b1e565b91505061724d565b50816000016001826172b69190618236565b815481106172c7576172c661826a565b5b906000526020600020015485036172ec576002816172e59190618236565b9250617357565b60006001856172fb9190618dee565b90505b818110156173555782600001818154811061731c5761731b61826a565b5b90600052602060002001548610156173425760018161733b9190618236565b9350617355565b808061734d90618b1e565b9150506172fe565b505b8284111561739a576040517f08c379a00000000000000000000000000000000000000000000000000000000081526004016173919061a1c0565b60405180910390fd5b5050935093915050565b6040518060c0016040528060006fffffffffffffffffffffffffffffffff16815260200160006fffffffffffffffffffffffffffffffff16815260200160006fffffffffffffffffffffffffffffffff16815260200160006fffffffffffffffffffffffffffffffff168152602001600067ffffffffffffffff168152602001600073ffffffffffffffffffffffffffffffffffffffff1681525090565b82805482825590600052602060002090810192821561747e579160200282015b8281111561747d578251825591602001919060010190617462565b5b50905061748b919061748f565b5090565b5b808211156174a8576000816000905550600101617490565b5090565b6000604051905090565b600080fd5b600080fd5b60007fffffffff0000000000000000000000000000000000000000000000000000000082169050919050565b6174f5816174c0565b811461750057600080fd5b50565b600081359050617512816174ec565b92915050565b60006020828403121561752e5761752d6174b6565b5b600061753c84828501617503565b91505092915050565b60008115159050919050565b61755a81617545565b82525050565b60006020820190506175756000830184617551565b92915050565b600073ffffffffffffffffffffffffffffffffffffffff82169050919050565b60006175a68261757b565b9050919050565b6175b68161759b565b81146175c157600080fd5b50565b6000813590506175d3816175ad565b92915050565b6000602082840312156175ef576175ee6174b6565b5b60006175fd848285016175c4565b91505092915050565b6000819050919050565b61761981617606565b811461762457600080fd5b50565b60008135905061763681617610565b92915050565b60008060408385031215617653576176526174b6565b5b6000617661858286016175c4565b925050602061767285828601617627565b9150509250929050565b60006fffffffffffffffffffffffffffffffff82169050919050565b6176a18161767c565b82525050565b600067ffffffffffffffff82169050919050565b6176c4816176a7565b82525050565b6176d38161759b565b82525050565b60c0820160008201516176ef6000850182617698565b5060208201516177026020850182617698565b5060408201516177156040850182617698565b5060608201516177286060850182617698565b50608082015161773b60808501826176bb565b5060a082015161774e60a08501826176ca565b50505050565b600060c08201905061776960008301846176d9565b92915050565b61777881617606565b82525050565b6000602082019050617793600083018461776f565b92915050565b6177a28161759b565b82525050565b60006020820190506177bd6000830184617799565b92915050565b6000819050919050565b6177d6816177c3565b81146177e157600080fd5b50565b6000813590506177f3816177cd565b92915050565b60006020828403121561780f5761780e6174b6565b5b600061781d848285016177e4565b91505092915050565b61782f816177c3565b82525050565b600060208201905061784a6000830184617826565b92915050565b600060208284031215617866576178656174b6565b5b600061787484828501617627565b91505092915050565b600080fd5b6000601f19601f8301169050919050565b7f4e487b7100000000000000000000000000000000000000000000000000000000600052604160045260246000fd5b6178cb82617882565b810181811067ffffffffffffffff821117156178ea576178e9617893565b5b80604052505050565b60006178fd6174ac565b905061790982826178c2565b919050565b600063ffffffff82169050919050565b6179278161790e565b811461793257600080fd5b50565b6000813590506179448161791e565b92915050565b600060a082840312156179605761795f61787d565b5b61796a60a06178f3565b9050600061797a84828501617935565b600083015250602061798e84828501617935565b60208301525060406179a284828501617935565b60408301525060606179b684828501617935565b60608301525060806179ca84828501617935565b60808301525092915050565b600080fd5b600067ffffffffffffffff8211156179f6576179f5617893565b5b602082029050602081019050919050565b600080fd5b6000617a1f617a1a846179db565b6178f3565b90508083825260208201905060208402830185811115617a4257617a41617a07565b5b835b81811015617a6b5780617a578882617627565b845260208401935050602081019050617a44565b5050509392505050565b600082601f830112617a8a57617a896179d6565b5b8135617a9a848260208601617a0c565b91505092915050565b60008060008060008060008060008060006101e08c8e031215617ac957617ac86174b6565b5b6000617ad78e828f016175c4565b9b50506020617ae88e828f016175c4565b9a50506040617af98e828f016175c4565b9950506060617b0a8e828f0161794a565b985050610100617b1c8e828f016175c4565b9750506101208c013567ffffffffffffffff811115617b3e57617b3d6174bb565b5b617b4a8e828f01617a75565b9650506101408c013567ffffffffffffffff811115617b6c57617b6b6174bb565b5b617b788e828f01617a75565b955050610160617b8a8e828f01617627565b945050610180617b9c8e828f01617627565b9350506101a0617bae8e828f01617627565b9250506101c0617bc08e828f01617627565b9150509295989b509295989b9093969950565b60008060408385031215617bea57617be96174b6565b5b6000617bf8858286016177e4565b9250506020617c09858286016175c4565b9150509250929050565b617c1c816176a7565b82525050565b6000602082019050617c376000830184617c13565b92915050565b60008060408385031215617c5457617c536174b6565b5b6000617c6285828601617627565b9250506020617c73858286016175c4565b9150509250929050565b600080600080600080600060e0888a031215617c9c57617c9b6174b6565b5b6000617caa8a828b016175c4565b9750506020617cbb8a828b016175c4565b9650506040617ccc8a828b01617627565b9550506060617cdd8a828b01617627565b945050608088013567ffffffffffffffff811115617cfe57617cfd6174bb565b5b617d0a8a828b01617a75565b93505060a088013567ffffffffffffffff811115617d2b57617d2a6174bb565b5b617d378a828b01617a75565b92505060c0617d488a828b01617627565b91505092959891949750929550565b60008060408385031215617d6e57617d6d6174b6565b5b6000617d7c85828601617627565b9250506020617d8d85828601617627565b9150509250929050565b617da081617545565b8114617dab57600080fd5b50565b600081359050617dbd81617d97565b92915050565b600060208284031215617dd957617dd86174b6565b5b6000617de784828501617dae565b91505092915050565b600080fd5b60008083601f840112617e0b57617e0a6179d6565b5b8235905067ffffffffffffffff811115617e2857617e27617df0565b5b602083019150836020820283011115617e4457617e43617a07565b5b9250929050565b600080600060408486031215617e6457617e636174b6565b5b600084013567ffffffffffffffff811115617e8257617e816174bb565b5b617e8e86828701617df5565b93509350506020617ea186828701617627565b9150509250925092565b7f4e487b7100000000000000000000000000000000000000000000000000000000600052602160045260246000fd5b60038110617eeb57617eea617eab565b5b50565b6000819050617efc82617eda565b919050565b6000617f0c82617eee565b9050919050565b617f1c81617f01565b82525050565b600061010082019050617f38600083018b617799565b617f45602083018a617799565b617f52604083018961776f565b617f5f606083018861776f565b617f6c608083018761776f565b617f7960a083018661776f565b617f8660c083018561776f565b617f9360e0830184617f13565b9998505050505050505050565b617fa98161767c565b82525050565b6000604082019050617fc46000830185617fa0565b617fd16020830184617fa0565b9392505050565b600081519050919050565b600082825260208201905092915050565b6000819050602082019050919050565b60c08201600082015161801a6000850182617698565b50602082015161802d6020850182617698565b5060408201516180406040850182617698565b5060608201516180536060850182617698565b50608082015161806660808501826176bb565b5060a082015161807960a08501826176ca565b50505050565b600061808b8383618004565b60c08301905092915050565b6000602082019050919050565b60006180af82617fd8565b6180b98185617fe3565b93506180c483617ff4565b8060005b838110156180f55781516180dc888261807f565b97506180e783618097565b9250506001810190506180c8565b5085935050505092915050565b6000602082019050818103600083015261811c81846180a4565b905092915050565b600060ff82169050919050565b61813a81618124565b811461814557600080fd5b50565b60008135905061815781618131565b92915050565b600060208284031215618173576181726174b6565b5b600061818184828501618148565b91505092915050565b600082825260208201905092915050565b7f6765744c6f636b496e666f3a204c6f636b4964206f7574206f6620696e646578600082015250565b60006181d160208361818a565b91506181dc8261819b565b602082019050919050565b60006020820190508181036000830152618200816181c4565b9050919050565b7f4e487b7100000000000000000000000000000000000000000000000000000000600052601160045260246000fd5b600061824182617606565b915061824c83617606565b92508282101561825f5761825e618207565b5b828203905092915050565b7f4e487b7100000000000000000000000000000000000000000000000000000000600052603260045260246000fd5b7f6f6e6c792061646d696e2063616e20756e706175736500000000000000000000600082015250565b60006182cf60168361818a565b91506182da82618299565b602082019050919050565b600060208201905081810360008301526182fe816182c2565b9050919050565b7f416c726561647920696e746961696c6973656400000000000000000000000000600082015250565b600061833b60138361818a565b915061834682618305565b602082019050919050565b6000602082019050818103600083015261836a8161832e565b9050919050565b60008151905061838081617d97565b92915050565b60006020828403121561839c5761839b6174b6565b5b60006183aa84828501618371565b91505092915050565b7f556e737570706f7274656420746f6b656e000000000000000000000000000000600082015250565b60006183e960118361818a565b91506183f4826183b3565b602082019050919050565b60006020820190508181036000830152618418816183dc565b9050919050565b7f70617573656420636f6e74726163740000000000000000000000000000000000600082015250565b6000618455600f8361818a565b91506184608261841f565b602082019050919050565b6000602082019050818103600083015261848481618448565b9050919050565b7f6e6f2070656e616c747900000000000000000000000000000000000000000000600082015250565b60006184c1600a8361818a565b91506184cc8261848b565b602082019050919050565b600060208201905081810360008301526184f0816184b4565b9050919050565b7f6e6f742072656c65617365642079657400000000000000000000000000000000600082015250565b600061852d60108361818a565b9150618538826184f7565b602082019050919050565b6000602082019050818103600083015261855c81618520565b9050919050565b7f6e6f206561726c79207769746864726177000000000000000000000000000000600082015250565b600061859960118361818a565b91506185a482618563565b602082019050919050565b600060208201905081810360008301526185c88161858c565b9050919050565b7f6c6f636b49642030000000000000000000000000000000000000000000000000600082015250565b600061860560088361818a565b9150618610826185cf565b602082019050919050565b60006020820190508181036000830152618634816185f8565b9050919050565b7f696e76616c6964206c6f636b6964000000000000000000000000000000000000600082015250565b6000618671600e8361818a565b915061867c8261863b565b602082019050919050565b600060208201905081810360008301526186a081618664565b9050919050565b7f6e6f206c6f636b20616d6f756e74000000000000000000000000000000000000600082015250565b60006186dd600e8361818a565b91506186e8826186a7565b602082019050919050565b6000602082019050818103600083015261870c816186d0565b9050919050565b7f6c6f636b206f70656e6564000000000000000000000000000000000000000000600082015250565b6000618749600b8361818a565b915061875482618713565b602082019050919050565b600060208201905081810360008301526187788161873c565b9050919050565b7f626164206f776e65720000000000000000000000000000000000000000000000600082015250565b60006187b560098361818a565b91506187c08261877f565b602082019050919050565b600060208201905081810360008301526187e4816187a8565b9050919050565b60006187f682617606565b915061880183617606565b9250817fffffffffffffffffffffffffffffffffffffffffffffffffffffffffffffffff048311821515161561883a57618839618207565b5b828202905092915050565b7f4e487b7100000000000000000000000000000000000000000000000000000000600052601260045260246000fd5b600061887f82617606565b915061888a83617606565b92508261889a57618899618845565b5b828204905092915050565b7f416363657373436f6e74726f6c3a2063616e206f6e6c792072656e6f756e636560008201527f20726f6c657320666f722073656c660000000000000000000000000000000000602082015250565b6000618901602f8361818a565b915061890c826188a5565b604082019050919050565b60006020820190508181036000830152618930816188f4565b9050919050565b7f53747265616d2030000000000000000000000000000000000000000000000000600082015250565b600061896d60088361818a565b915061897882618937565b602082019050919050565b6000602082019050818103600083015261899c81618960565b9050919050565b7f4e6f2053747265616d0000000000000000000000000000000000000000000000600082015250565b60006189d960098361818a565b91506189e4826189a3565b602082019050919050565b60006020820190508181036000830152618a08816189cc565b9050919050565b6000606082019050618a246000830186617799565b618a316020830185617799565b618a3e604083018461776f565b949350505050565b7f556e737570706f727420546f6b656e0000000000000000000000000000000000600082015250565b6000618a7c600f8361818a565b9150618a8782618a46565b602082019050919050565b60006020820190508181036000830152618aab81618a6f565b9050919050565b7f6c6f636b206e6f74206f70656e00000000000000000000000000000000000000600082015250565b6000618ae8600d8361818a565b9150618af382618ab2565b602082019050919050565b60006020820190508181036000830152618b1781618adb565b9050919050565b6000618b2982617606565b91507fffffffffffffffffffffffffffffffffffffffffffffffffffffffffffffffff8203618b5b57618b5a618207565b5b600182019050919050565b7f53747265616d206e742070726f706f7365640000000000000000000000000000600082015250565b6000618b9c60128361818a565b9150618ba782618b66565b602082019050919050565b60006020820190508181036000830152618bcb81618b8f565b9050919050565b7f53747265616d2070726f706f73616c2065787069726500000000000000000000600082015250565b6000618c0860168361818a565b9150618c1382618bd2565b602082019050919050565b60006020820190508181036000830152618c3781618bfb565b9050919050565b7f5265776172647320686967680000000000000000000000000000000000000000600082015250565b6000618c74600c8361818a565b9150618c7f82618c3e565b602082019050919050565b60006020820190508181036000830152618ca381618c67565b9050919050565b7f52657761726473206c6f77000000000000000000000000000000000000000000600082015250565b6000618ce0600b8361818a565b9150618ceb82618caa565b602082019050919050565b60006020820190508181036000830152618d0f81618cd3565b9050919050565b7f696e76616c696420737461727420706f696e7400000000000000000000000000600082015250565b6000618d4c60138361818a565b9150618d5782618d16565b602082019050919050565b60006020820190508181036000830152618d7b81618d3f565b9050919050565b7f73747265616d206e742070726f706f7365640000000000000000000000000000600082015250565b6000618db860128361818a565b9150618dc382618d82565b602082019050919050565b60006020820190508181036000830152618de781618dab565b9050919050565b6000618df982617606565b9150618e0483617606565b9250827fffffffffffffffffffffffffffffffffffffffffffffffffffffffffffffffff03821115618e3957618e38618207565b5b828201905092915050565b7f6d6178206c6f636b730000000000000000000000000000000000000000000000600082015250565b6000618e7a60098361818a565b9150618e8582618e44565b602082019050919050565b60006020820190508181036000830152618ea981618e6d565b9050919050565b7f616d6f756e742030000000000000000000000000000000000000000000000000600082015250565b6000618ee660088361818a565b9150618ef182618eb0565b602082019050919050565b60006020820190508181036000830152618f1581618ed9565b9050919050565b7f626164206c6f636b2074696d6500000000000000000000000000000000000000600082015250565b6000618f52600d8361818a565b9150618f5d82618f1c565b602082019050919050565b60006020820190508181036000830152618f8181618f45565b9050919050565b7f6d61782031207965617200000000000000000000000000000000000000000000600082015250565b6000618fbe600a8361818a565b9150618fc982618f88565b602082019050919050565b60006020820190508181036000830152618fed81618fb1565b9050919050565b7f4e6f2053747265616d205368617265732074696c6c206e6f7700000000000000600082015250565b600061902a60198361818a565b915061903582618ff4565b602082019050919050565b600060208201905081810360008301526190598161901d565b9050919050565b7f496e76616c69642053747265616d204f776e6572000000000000000000000000600082015250565b600061909660148361818a565b91506190a182619060565b602082019050919050565b600060208201905081810360008301526190c581619089565b9050919050565b7f496e76616c69642052657761726420546f6b656e000000000000000000000000600082015250565b600061910260148361818a565b915061910d826190cc565b602082019050919050565b60006020820190508181036000830152619131816190f5565b9050919050565b7f5a65726f204d6178204465706f73697400000000000000000000000000000000600082015250565b600061916e60108361818a565b915061917982619138565b602082019050919050565b6000602082019050818103600083015261919d81619161565b9050919050565b7f5a65726f204d696e204465706f73697400000000000000000000000000000000600082015250565b60006191da60108361818a565b91506191e5826191a4565b602082019050919050565b60006020820190508181036000830152619209816191cd565b9050919050565b7f496e76616c6964204d696e204465706f73697400000000000000000000000000600082015250565b600061924660138361818a565b915061925182619210565b602082019050919050565b6000602082019050818103600083015261927581619239565b9050919050565b7f4d6178204465706f736974204d75737420457175616c2066697273742053636860008201527f6564756c65642072657761726473000000000000000000000000000000000000602082015250565b60006192d8602e8361818a565b91506192e38261927c565b604082019050919050565b60006020820190508181036000830152619307816192cb565b9050919050565b7f496e76616c69642050726f706f73616c2045787069726174696f6e2044617465600082015250565b600061934460208361818a565b915061934f8261930e565b602082019050919050565b6000602082019050818103600083015261937381619337565b9050919050565b7f496e76616c6964205363686564756c65732c206c656e677468206e6f7420657160008201527f75616c0000000000000000000000000000000000000000000000000000000000602082015250565b60006193d660238361818a565b91506193e18261937a565b604082019050919050565b60006020820190508181036000830152619405816193c9565b9050919050565b7f205363686564756c657320746f2053686f727400000000000000000000000000600082015250565b600061944260138361818a565b915061944d8261940c565b602082019050919050565b6000602082019050818103600083015261947181619435565b9050919050565b7f496e76616c69642054617520506572696f640000000000000000000000000000600082015250565b60006194ae60128361818a565b91506194b982619478565b602082019050919050565b600060208201905081810360008301526194dd816194a1565b9050919050565b7f496e76616c6964207363686564756c652074696d657300000000000000000000600082015250565b600061951a60168361818a565b9150619525826194e4565b602082019050919050565b600060208201905081810360008301526195498161950d565b9050919050565b7f496e76616c6964205363686564756c6520526577617264730000000000000000600082015250565b600061958660188361818a565b915061959182619550565b602082019050919050565b600060208201905081810360008301526195b581619579565b9050919050565b7f496e76616c6964205363686564756c6520456e64205265776172647300000000600082015250565b60006195f2601c8361818a565b91506195fd826195bc565b602082019050919050565b60006020820190508181036000830152619621816195e5565b9050919050565b7f6d61696e2061646472207a65726f000000000000000000000000000000000000600082015250565b600061965e600e8361818a565b915061966982619628565b602082019050919050565b6000602082019050818103600083015261968d81619651565b9050919050565b7f766f74652061646472207a65726f000000000000000000000000000000000000600082015250565b60006196ca600e8361818a565b91506196d582619694565b602082019050919050565b600060208201905081810360008301526196f9816196bd565b9050919050565b7f7661756c7441646472207a65726f000000000000000000000000000000000000600082015250565b6000619736600e8361818a565b915061974182619700565b602082019050919050565b6000602082019050818103600083015261976581619729565b9050919050565b7f696e76616c696420736861726520777473000000000000000000000000000000600082015250565b60006197a260118361818a565b91506197ad8261976c565b602082019050919050565b600060208201905081810360008301526197d181619795565b9050919050565b7f696e76616c69642070656e616c74792077747300000000000000000000000000600082015250565b600061980e60138361818a565b9150619819826197d8565b602082019050919050565b6000602082019050818103600083015261983d81619801565b9050919050565b7f616c726561647920696e7469616c697a65640000000000000000000000000000600082015250565b600061987a60128361818a565b915061988582619844565b602082019050919050565b600060208201905081810360008301526198a98161986d565b9050919050565b7f5265656e7472616e637947756172643a207265656e7472616e742063616c6c00600082015250565b60006198e6601f8361818a565b91506198f1826198b0565b602082019050919050565b60006020820190508181036000830152619915816198d9565b9050919050565b7f70656e616c747920686967680000000000000000000000000000000000000000600082015250565b6000619952600c8361818a565b915061995d8261991c565b602082019050919050565b6000602082019050818103600083015261998181619945565b9050919050565b60008151905061999781617610565b92915050565b6000602082840312156199b3576199b26174b6565b5b60006199c184828501619988565b91505092915050565b7f524557415244535f434f4d504f554e4400000000000000000000000000000000600082015250565b6000619a0060108361818a565b9150619a0b826199ca565b602082019050919050565b60006020820190508181036000830152619a2f816199f3565b9050919050565b7f696e616374697665206f722070726f706f736564000000000000000000000000600082015250565b6000619a6c60148361818a565b9150619a7782619a36565b602082019050919050565b60006020820190508181036000830152619a9b81619a5f565b9050919050565b7f4c6f636b204e6f205374616b6500000000000000000000000000000000000000600082015250565b6000619ad8600d8361818a565b9150619ae382619aa2565b602082019050919050565b60006020820190508181036000830152619b0781619acb565b9050919050565b6000604082019050619b236000830185617799565b619b30602083018461776f565b9392505050565b7f426f72696e674d6174683a2075696e743634204f766572666c6f770000000000600082015250565b6000619b6d601b8361818a565b9150619b7882619b37565b602082019050919050565b60006020820190508181036000830152619b9c81619b60565b9050919050565b6000619bae8261767c565b9150619bb98361767c565b9250826fffffffffffffffffffffffffffffffff03821115619bde57619bdd618207565b5b828201905092915050565b600081905092915050565b7f416363657373436f6e74726f6c3a206163636f756e7420000000000000000000600082015250565b6000619c2a601783619be9565b9150619c3582619bf4565b601782019050919050565b600081519050919050565b60005b83811015619c69578082015181840152602081019050619c4e565b83811115619c78576000848401525b50505050565b6000619c8982619c40565b619c938185619be9565b9350619ca3818560208601619c4b565b80840191505092915050565b7f206973206d697373696e6720726f6c6520000000000000000000000000000000600082015250565b6000619ce5601183619be9565b9150619cf082619caf565b601182019050919050565b6000619d0682619c1d565b9150619d128285619c7e565b9150619d1d82619cd8565b9150619d298284619c7e565b91508190509392505050565b6000619d4082619c40565b619d4a818561818a565b9350619d5a818560208601619c4b565b619d6381617882565b840191505092915050565b60006020820190508181036000830152619d888184619d35565b905092915050565b7f67657452657761726473416d6f756e743a20496e76616c6964206c617374205560008201527f7064617465000000000000000000000000000000000000000000000000000000602082015250565b6000619dec60258361818a565b9150619df782619d90565b604082019050919050565b60006020820190508181036000830152619e1b81619ddf565b9050919050565b6000619e2d8261790e565b9150619e388361790e565b925082821015619e4b57619e4a618207565b5b828203905092915050565b6000619e618261790e565b9150619e6c8361790e565b92508163ffffffff0483118215151615619e8957619e88618207565b5b828202905092915050565b7f426f72696e674d6174683a2075696e74313238204f766572666c6f7700000000600082015250565b6000619eca601c8361818a565b9150619ed582619e94565b602082019050919050565b60006020820190508181036000830152619ef981619ebd565b9050919050565b6000619f0b82617606565b915060008203619f1e57619f1d618207565b5b600182039050919050565b7f537472696e67733a20686578206c656e67746820696e73756666696369656e74600082015250565b6000619f5f60208361818a565b9150619f6a82619f29565b602082019050919050565b60006020820190508181036000830152619f8e81619f52565b9050919050565b7f4e487b7100000000000000000000000000000000000000000000000000000000600052603160045260246000fd5b7f7363686564756c6573206973206e6f7420726967687400000000000000000000600082015250565b6000619ffa60168361818a565b915061a00582619fc4565b602082019050919050565b6000602082019050818103600083015261a02981619fed565b9050919050565b7f496e76616c69642052657761726420517565727920506572696f640000000000600082015250565b600061a066601b8361818a565b915061a0718261a030565b602082019050919050565b6000602082019050818103600083015261a0958161a059565b9050919050565b7f5175657279204265666f7265205363686564756c657320737461727400000000600082015250565b600061a0d2601c8361818a565b915061a0dd8261a09c565b602082019050919050565b6000602082019050818103600083015261a1018161a0c5565b9050919050565b7f7175657279206166746572207363686564756c6520656e640000000000000000600082015250565b600061a13e60188361818a565b915061a1498261a108565b602082019050919050565b6000602082019050818103600083015261a16d8161a131565b9050919050565b7f496e76616c696420696e6465782063616c63756c6174696f6e00000000000000600082015250565b600061a1aa60198361818a565b915061a1b58261a174565b602082019050919050565b6000602082019050818103600083015261a1d98161a19d565b905091905056fea26469706673582212208bc2cc0e13c4dd3db39363fbe0bc00451a09d47c8a42d9a42470c1eabffbae7864736f6c634300080d0033",
  "linkReferences": {},
  "deployedLinkReferences": {}
}