{
  "_format": "hh-sol-artifact-1",
  "contractName": "VeMainToken",
  "sourceName": "contracts/dao/governance/VeMainToken.sol",
  "abi": [
    {
      "inputs": [],
      "stateMutability": "nonpayable",
      "type": "constructor"
    },
    {
      "anonymous": false,
      "inputs": [
        {
          "indexed": true,
          "internalType": "address",
          "name": "owner",
          "type": "address"
        },
        {
          "indexed": true,
          "internalType": "address",
          "name": "spender",
          "type": "address"
        },
        {
          "indexed": false,
          "internalType": "uint256",
          "name": "value",
          "type": "uint256"
        }
      ],
      "name": "Approval",
      "type": "event"
    },
    {
      "anonymous": false,
      "inputs": [
        {
          "indexed": true,
          "internalType": "address",
          "name": "delegator",
          "type": "address"
        },
        {
          "indexed": true,
          "internalType": "address",
          "name": "fromDelegate",
          "type": "address"
        },
        {
          "indexed": true,
          "internalType": "address",
          "name": "toDelegate",
          "type": "address"
        }
      ],
      "name": "DelegateChanged",
      "type": "event"
    },
    {
      "anonymous": false,
      "inputs": [
        {
          "indexed": true,
          "internalType": "address",
          "name": "delegate",
          "type": "address"
        },
        {
          "indexed": false,
          "internalType": "uint256",
          "name": "previousBalance",
          "type": "uint256"
        },
        {
          "indexed": false,
          "internalType": "uint256",
          "name": "newBalance",
          "type": "uint256"
        }
      ],
      "name": "DelegateVotesChanged",
      "type": "event"
    },
    {
      "anonymous": false,
      "inputs": [
        {
          "indexed": false,
          "internalType": "address",
          "name": "_member",
          "type": "address"
        }
      ],
      "name": "MemberAddedToWhitelist",
      "type": "event"
    },
    {
      "anonymous": false,
      "inputs": [
        {
          "indexed": false,
          "internalType": "address",
          "name": "_member",
          "type": "address"
        }
      ],
      "name": "MemberRemovedFromWhitelist",
      "type": "event"
    },
    {
      "anonymous": false,
      "inputs": [
        {
          "indexed": false,
          "internalType": "address",
          "name": "account",
          "type": "address"
        }
      ],
      "name": "Paused",
      "type": "event"
    },
    {
      "anonymous": false,
      "inputs": [
        {
          "indexed": true,
          "internalType": "bytes32",
          "name": "role",
          "type": "bytes32"
        },
        {
          "indexed": true,
          "internalType": "bytes32",
          "name": "previousAdminRole",
          "type": "bytes32"
        },
        {
          "indexed": true,
          "internalType": "bytes32",
          "name": "newAdminRole",
          "type": "bytes32"
        }
      ],
      "name": "RoleAdminChanged",
      "type": "event"
    },
    {
      "anonymous": false,
      "inputs": [
        {
          "indexed": true,
          "internalType": "bytes32",
          "name": "role",
          "type": "bytes32"
        },
        {
          "indexed": true,
          "internalType": "address",
          "name": "account",
          "type": "address"
        },
        {
          "indexed": true,
          "internalType": "address",
          "name": "sender",
          "type": "address"
        }
      ],
      "name": "RoleGranted",
      "type": "event"
    },
    {
      "anonymous": false,
      "inputs": [
        {
          "indexed": true,
          "internalType": "bytes32",
          "name": "role",
          "type": "bytes32"
        },
        {
          "indexed": true,
          "internalType": "address",
          "name": "account",
          "type": "address"
        },
        {
          "indexed": true,
          "internalType": "address",
          "name": "sender",
          "type": "address"
        }
      ],
      "name": "RoleRevoked",
      "type": "event"
    },
    {
      "anonymous": false,
      "inputs": [
        {
          "indexed": true,
          "internalType": "address",
          "name": "from",
          "type": "address"
        },
        {
          "indexed": true,
          "internalType": "address",
          "name": "to",
          "type": "address"
        },
        {
          "indexed": false,
          "internalType": "uint256",
          "name": "value",
          "type": "uint256"
        }
      ],
      "name": "Transfer",
      "type": "event"
    },
    {
      "anonymous": false,
      "inputs": [
        {
          "indexed": false,
          "internalType": "address",
          "name": "account",
          "type": "address"
        }
      ],
      "name": "Unpaused",
      "type": "event"
    },
    {
      "inputs": [],
      "name": "DEFAULT_ADMIN_ROLE",
      "outputs": [
        {
          "internalType": "bytes32",
          "name": "",
          "type": "bytes32"
        }
      ],
      "stateMutability": "view",
      "type": "function"
    },
    {
      "inputs": [],
      "name": "DOMAIN_SEPARATOR",
      "outputs": [
        {
          "internalType": "bytes32",
          "name": "",
          "type": "bytes32"
        }
      ],
      "stateMutability": "view",
      "type": "function"
    },
    {
      "inputs": [],
      "name": "MINTER_ROLE",
      "outputs": [
        {
          "internalType": "bytes32",
          "name": "",
          "type": "bytes32"
        }
      ],
      "stateMutability": "view",
      "type": "function"
    },
    {
      "inputs": [],
      "name": "PAUSER_ROLE",
      "outputs": [
        {
          "internalType": "bytes32",
          "name": "",
          "type": "bytes32"
        }
      ],
      "stateMutability": "view",
      "type": "function"
    },
    {
      "inputs": [],
      "name": "WHITELISTER_ROLE",
      "outputs": [
        {
          "internalType": "bytes32",
          "name": "",
          "type": "bytes32"
        }
      ],
      "stateMutability": "view",
      "type": "function"
    },
    {
      "inputs": [
        {
          "internalType": "address",
          "name": "_toAdd",
          "type": "address"
        }
      ],
      "name": "addToWhitelist",
      "outputs": [],
      "stateMutability": "nonpayable",
      "type": "function"
    },
    {
      "inputs": [
        {
          "internalType": "address",
          "name": "owner",
          "type": "address"
        },
        {
          "internalType": "address",
          "name": "spender",
          "type": "address"
        }
      ],
      "name": "allowance",
      "outputs": [
        {
          "internalType": "uint256",
          "name": "",
          "type": "uint256"
        }
      ],
      "stateMutability": "view",
      "type": "function"
    },
    {
      "inputs": [
        {
          "internalType": "address",
          "name": "spender",
          "type": "address"
        },
        {
          "internalType": "uint256",
          "name": "amount",
          "type": "uint256"
        }
      ],
      "name": "approve",
      "outputs": [
        {
          "internalType": "bool",
          "name": "",
          "type": "bool"
        }
      ],
      "stateMutability": "nonpayable",
      "type": "function"
    },
    {
      "inputs": [
        {
          "internalType": "address",
          "name": "account",
          "type": "address"
        }
      ],
      "name": "balanceOf",
      "outputs": [
        {
          "internalType": "uint256",
          "name": "",
          "type": "uint256"
        }
      ],
      "stateMutability": "view",
      "type": "function"
    },
    {
      "inputs": [
        {
          "internalType": "uint256",
          "name": "amount",
          "type": "uint256"
        }
      ],
      "name": "burn",
      "outputs": [],
      "stateMutability": "nonpayable",
      "type": "function"
    },
    {
      "inputs": [
        {
          "internalType": "address",
          "name": "account",
          "type": "address"
        },
        {
          "internalType": "uint256",
          "name": "amount",
          "type": "uint256"
        }
      ],
      "name": "burn",
      "outputs": [],
      "stateMutability": "nonpayable",
      "type": "function"
    },
    {
      "inputs": [
        {
          "internalType": "address",
          "name": "account",
          "type": "address"
        },
        {
          "internalType": "uint256",
          "name": "amount",
          "type": "uint256"
        }
      ],
      "name": "burnFrom",
      "outputs": [],
      "stateMutability": "nonpayable",
      "type": "function"
    },
    {
      "inputs": [
        {
          "internalType": "address",
          "name": "account",
          "type": "address"
        },
        {
          "internalType": "uint32",
          "name": "pos",
          "type": "uint32"
        }
      ],
      "name": "checkpoints",
      "outputs": [
        {
          "components": [
            {
              "internalType": "uint32",
              "name": "fromBlock",
              "type": "uint32"
            },
            {
              "internalType": "uint224",
              "name": "votes",
              "type": "uint224"
            }
          ],
          "internalType": "struct ERC20Votes.Checkpoint",
          "name": "",
          "type": "tuple"
        }
      ],
      "stateMutability": "view",
      "type": "function"
    },
    {
      "inputs": [],
      "name": "decimals",
      "outputs": [
        {
          "internalType": "uint8",
          "name": "",
          "type": "uint8"
        }
      ],
      "stateMutability": "view",
      "type": "function"
    },
    {
      "inputs": [
        {
          "internalType": "address",
          "name": "spender",
          "type": "address"
        },
        {
          "internalType": "uint256",
          "name": "subtractedValue",
          "type": "uint256"
        }
      ],
      "name": "decreaseAllowance",
      "outputs": [
        {
          "internalType": "bool",
          "name": "",
          "type": "bool"
        }
      ],
      "stateMutability": "nonpayable",
      "type": "function"
    },
    {
      "inputs": [
        {
          "internalType": "address",
          "name": "delegatee",
          "type": "address"
        }
      ],
      "name": "delegate",
      "outputs": [],
      "stateMutability": "nonpayable",
      "type": "function"
    },
    {
      "inputs": [
        {
          "internalType": "address",
          "name": "delegatee",
          "type": "address"
        },
        {
          "internalType": "uint256",
          "name": "nonce",
          "type": "uint256"
        },
        {
          "internalType": "uint256",
          "name": "expiry",
          "type": "uint256"
        },
        {
          "internalType": "uint8",
          "name": "v",
          "type": "uint8"
        },
        {
          "internalType": "bytes32",
          "name": "r",
          "type": "bytes32"
        },
        {
          "internalType": "bytes32",
          "name": "s",
          "type": "bytes32"
        }
      ],
      "name": "delegateBySig",
      "outputs": [],
      "stateMutability": "nonpayable",
      "type": "function"
    },
    {
      "inputs": [
        {
          "internalType": "address",
          "name": "account",
          "type": "address"
        }
      ],
      "name": "delegates",
      "outputs": [
        {
          "internalType": "address",
          "name": "",
          "type": "address"
        }
      ],
      "stateMutability": "view",
      "type": "function"
    },
    {
      "inputs": [
        {
          "internalType": "uint256",
          "name": "blockNumber",
          "type": "uint256"
        }
      ],
      "name": "getPastTotalSupply",
      "outputs": [
        {
          "internalType": "uint256",
          "name": "",
          "type": "uint256"
        }
      ],
      "stateMutability": "view",
      "type": "function"
    },
    {
      "inputs": [
        {
          "internalType": "address",
          "name": "account",
          "type": "address"
        },
        {
          "internalType": "uint256",
          "name": "blockNumber",
          "type": "uint256"
        }
      ],
      "name": "getPastVotes",
      "outputs": [
        {
          "internalType": "uint256",
          "name": "",
          "type": "uint256"
        }
      ],
      "stateMutability": "view",
      "type": "function"
    },
    {
      "inputs": [
        {
          "internalType": "bytes32",
          "name": "role",
          "type": "bytes32"
        }
      ],
      "name": "getRoleAdmin",
      "outputs": [
        {
          "internalType": "bytes32",
          "name": "",
          "type": "bytes32"
        }
      ],
      "stateMutability": "view",
      "type": "function"
    },
    {
      "inputs": [
        {
          "internalType": "address",
          "name": "account",
          "type": "address"
        }
      ],
      "name": "getVotes",
      "outputs": [
        {
          "internalType": "uint256",
          "name": "",
          "type": "uint256"
        }
      ],
      "stateMutability": "view",
      "type": "function"
    },
    {
      "inputs": [
        {
          "internalType": "bytes32",
          "name": "role",
          "type": "bytes32"
        },
        {
          "internalType": "address",
          "name": "account",
          "type": "address"
        }
      ],
      "name": "grantRole",
      "outputs": [],
      "stateMutability": "nonpayable",
      "type": "function"
    },
    {
      "inputs": [
        {
          "internalType": "bytes32",
          "name": "role",
          "type": "bytes32"
        },
        {
          "internalType": "address",
          "name": "account",
          "type": "address"
        }
      ],
      "name": "hasRole",
      "outputs": [
        {
          "internalType": "bool",
          "name": "",
          "type": "bool"
        }
      ],
      "stateMutability": "view",
      "type": "function"
    },
    {
      "inputs": [
        {
          "internalType": "address",
          "name": "spender",
          "type": "address"
        },
        {
          "internalType": "uint256",
          "name": "addedValue",
          "type": "uint256"
        }
      ],
      "name": "increaseAllowance",
      "outputs": [
        {
          "internalType": "bool",
          "name": "",
          "type": "bool"
        }
      ],
      "stateMutability": "nonpayable",
      "type": "function"
    },
    {
      "inputs": [
        {
          "internalType": "address",
          "name": "",
          "type": "address"
        }
      ],
      "name": "isWhiteListed",
      "outputs": [
        {
          "internalType": "bool",
          "name": "",
          "type": "bool"
        }
      ],
      "stateMutability": "view",
      "type": "function"
    },
    {
      "inputs": [
        {
          "internalType": "address",
          "name": "to",
          "type": "address"
        },
        {
          "internalType": "uint256",
          "name": "amount",
          "type": "uint256"
        }
      ],
      "name": "mint",
      "outputs": [],
      "stateMutability": "nonpayable",
      "type": "function"
    },
    {
      "inputs": [],
      "name": "name",
      "outputs": [
        {
          "internalType": "string",
          "name": "",
          "type": "string"
        }
      ],
      "stateMutability": "view",
      "type": "function"
    },
    {
      "inputs": [
        {
          "internalType": "address",
          "name": "owner",
          "type": "address"
        }
      ],
      "name": "nonces",
      "outputs": [
        {
          "internalType": "uint256",
          "name": "",
          "type": "uint256"
        }
      ],
      "stateMutability": "view",
      "type": "function"
    },
    {
      "inputs": [
        {
          "internalType": "address",
          "name": "account",
          "type": "address"
        }
      ],
      "name": "numCheckpoints",
      "outputs": [
        {
          "internalType": "uint32",
          "name": "",
          "type": "uint32"
        }
      ],
      "stateMutability": "view",
      "type": "function"
    },
    {
      "inputs": [],
      "name": "pause",
      "outputs": [],
      "stateMutability": "nonpayable",
      "type": "function"
    },
    {
      "inputs": [],
      "name": "paused",
      "outputs": [
        {
          "internalType": "bool",
          "name": "",
          "type": "bool"
        }
      ],
      "stateMutability": "view",
      "type": "function"
    },
    {
      "inputs": [
        {
          "internalType": "address",
          "name": "owner",
          "type": "address"
        },
        {
          "internalType": "address",
          "name": "spender",
          "type": "address"
        },
        {
          "internalType": "uint256",
          "name": "value",
          "type": "uint256"
        },
        {
          "internalType": "uint256",
          "name": "deadline",
          "type": "uint256"
        },
        {
          "internalType": "uint8",
          "name": "v",
          "type": "uint8"
        },
        {
          "internalType": "bytes32",
          "name": "r",
          "type": "bytes32"
        },
        {
          "internalType": "bytes32",
          "name": "s",
          "type": "bytes32"
        }
      ],
      "name": "permit",
      "outputs": [],
      "stateMutability": "nonpayable",
      "type": "function"
    },
    {
      "inputs": [
        {
          "internalType": "address",
          "name": "_toRemove",
          "type": "address"
        }
      ],
      "name": "removeFromWhitelist",
      "outputs": [],
      "stateMutability": "nonpayable",
      "type": "function"
    },
    {
      "inputs": [
        {
          "internalType": "bytes32",
          "name": "role",
          "type": "bytes32"
        },
        {
          "internalType": "address",
          "name": "account",
          "type": "address"
        }
      ],
      "name": "renounceRole",
      "outputs": [],
      "stateMutability": "nonpayable",
      "type": "function"
    },
    {
      "inputs": [
        {
          "internalType": "bytes32",
          "name": "role",
          "type": "bytes32"
        },
        {
          "internalType": "address",
          "name": "account",
          "type": "address"
        }
      ],
      "name": "revokeRole",
      "outputs": [],
      "stateMutability": "nonpayable",
      "type": "function"
    },
    {
      "inputs": [
        {
          "internalType": "bytes4",
          "name": "interfaceId",
          "type": "bytes4"
        }
      ],
      "name": "supportsInterface",
      "outputs": [
        {
          "internalType": "bool",
          "name": "",
          "type": "bool"
        }
      ],
      "stateMutability": "view",
      "type": "function"
    },
    {
      "inputs": [],
      "name": "symbol",
      "outputs": [
        {
          "internalType": "string",
          "name": "",
          "type": "string"
        }
      ],
      "stateMutability": "view",
      "type": "function"
    },
    {
      "inputs": [],
      "name": "totalSupply",
      "outputs": [
        {
          "internalType": "uint256",
          "name": "",
          "type": "uint256"
        }
      ],
      "stateMutability": "view",
      "type": "function"
    },
    {
      "inputs": [
        {
          "internalType": "address",
          "name": "to",
          "type": "address"
        },
        {
          "internalType": "uint256",
          "name": "amount",
          "type": "uint256"
        }
      ],
      "name": "transfer",
      "outputs": [
        {
          "internalType": "bool",
          "name": "",
          "type": "bool"
        }
      ],
      "stateMutability": "nonpayable",
      "type": "function"
    },
    {
      "inputs": [
        {
          "internalType": "address",
          "name": "from",
          "type": "address"
        },
        {
          "internalType": "address",
          "name": "to",
          "type": "address"
        },
        {
          "internalType": "uint256",
          "name": "amount",
          "type": "uint256"
        }
      ],
      "name": "transferFrom",
      "outputs": [
        {
          "internalType": "bool",
          "name": "",
          "type": "bool"
        }
      ],
      "stateMutability": "nonpayable",
      "type": "function"
    },
    {
      "inputs": [],
      "name": "unpause",
      "outputs": [],
      "stateMutability": "nonpayable",
      "type": "function"
    }
  ],
  "bytecode": "0x6101406040523480156200001257600080fd5b506040518060400160405280600b81526020017f76654d61696e546f6b656e000000000000000000000000000000000000000000815250806040518060400160405280600181526020017f31000000000000000000000000000000000000000000000000000000000000008152506040518060400160405280600b81526020017f76654d61696e546f6b656e0000000000000000000000000000000000000000008152506040518060400160405280600b81526020017f76654d61696e546f6b656e00000000000000000000000000000000000000000081525081600390805190602001906200010492919062000440565b5080600490805190602001906200011d92919062000440565b5050506000600560006101000a81548160ff02191690831515021790555060008280519060200120905060008280519060200120905060007f8b73c3c69bb8fe3d512ecc4cf759cc79239f7b179b0ffacaa9a75d522b39400f90508260e081815250508161010081815250504660a08181525050620001a48184846200029f60201b60201c565b608081815250503073ffffffffffffffffffffffffffffffffffffffff1660c08173ffffffffffffffffffffffffffffffffffffffff1681525050806101208181525050505050505050620002036000801b33620002db60201b60201c565b620002357f65d7a28e3265b37a6474929f336521b332c1681b933f6cb9f3376673440d862a33620002db60201b60201c565b620002677f9f2df0fed2c77648de5860a4cc508cd0818c85b8b8a1ab4ceeef8d981c8956a633620002db60201b60201c565b620002997f9f2df0fed2c77648de5860a4cc508cd0818c85b8b8a1ab4ceeef8d981c8956a633620002db60201b60201c565b6200062c565b60008383834630604051602001620002bc9594939291906200056b565b6040516020818303038152906040528051906020012090509392505050565b620002ed8282620003cd60201b60201c565b620003c95760016006600084815260200190815260200160002060000160008373ffffffffffffffffffffffffffffffffffffffff1673ffffffffffffffffffffffffffffffffffffffff16815260200190815260200160002060006101000a81548160ff0219169083151502179055506200036e6200043860201b60201c565b73ffffffffffffffffffffffffffffffffffffffff168173ffffffffffffffffffffffffffffffffffffffff16837f2f8788117e7eff1d82e926ec794901d17c78024a50270940304540a733656f0d60405160405180910390a45b5050565b60006006600084815260200190815260200160002060000160008373ffffffffffffffffffffffffffffffffffffffff1673ffffffffffffffffffffffffffffffffffffffff16815260200190815260200160002060009054906101000a900460ff16905092915050565b600033905090565b8280546200044e90620005f7565b90600052602060002090601f016020900481019282620004725760008555620004be565b82601f106200048d57805160ff1916838001178555620004be565b82800160010185558215620004be579182015b82811115620004bd578251825591602001919060010190620004a0565b5b509050620004cd9190620004d1565b5090565b5b80821115620004ec576000816000905550600101620004d2565b5090565b6000819050919050565b6200050581620004f0565b82525050565b6000819050919050565b62000520816200050b565b82525050565b600073ffffffffffffffffffffffffffffffffffffffff82169050919050565b6000620005538262000526565b9050919050565b620005658162000546565b82525050565b600060a082019050620005826000830188620004fa565b620005916020830187620004fa565b620005a06040830186620004fa565b620005af606083018562000515565b620005be60808301846200055a565b9695505050505050565b7f4e487b7100000000000000000000000000000000000000000000000000000000600052602260045260246000fd5b600060028204905060018216806200061057607f821691505b602082108103620006265762000625620005c8565b5b50919050565b60805160a05160c05160e0516101005161012051614f746200067c6000396000611ded01526000611e2f01526000611e0e01526000611d4301526000611d9901526000611dc20152614f746000f3fe608060405234801561001057600080fd5b506004361061025e5760003560e01c806370a0823111610146578063a217fddf116100c3578063d539139311610087578063d53913931461077f578063d547741f1461079d578063dd62ed3e146107b9578063e43252d7146107e9578063e63ab1e914610805578063f1127ed8146108235761025e565b8063a217fddf146106c9578063a457c2d7146106e7578063a9059cbb14610717578063c3cda52014610747578063d505accf146107635761025e565b80638e539e8c1161010a5780638e539e8c146105ff57806391d148541461062f57806395d89b411461065f5780639ab24eb01461067d5780639dc29fac146106ad5761025e565b806370a082311461055d57806379cc67901461058d5780637ecebe00146105a95780638456cb59146105d95780638ab1d681146105e35761025e565b806339509351116101df578063570618e1116101a3578063570618e114610475578063587cde1e146104935780635c19a95c146104c35780635c975abb146104df5780636f9170f6146104fd5780636fcfff451461052d5761025e565b806339509351146103d35780633a46b1a8146104035780633f4ba83a1461043357806340c10f191461043d57806342966c68146104595761025e565b8063248a9ca311610226578063248a9ca31461032f5780632f2ff15d1461035f578063313ce5671461037b5780633644e5151461039957806336568abe146103b75761025e565b806301ffc9a71461026357806306fdde0314610293578063095ea7b3146102b157806318160ddd146102e157806323b872dd146102ff575b600080fd5b61027d60048036038101906102789190613505565b610853565b60405161028a919061354d565b60405180910390f35b61029b6108cd565b6040516102a89190613601565b60405180910390f35b6102cb60048036038101906102c691906136b7565b61095f565b6040516102d8919061354d565b60405180910390f35b6102e9610982565b6040516102f69190613706565b60405180910390f35b61031960048036038101906103149190613721565b61098c565b604051610326919061354d565b60405180910390f35b610349600480360381019061034491906137aa565b6109bb565b60405161035691906137e6565b60405180910390f35b61037960048036038101906103749190613801565b6109db565b005b6103836109fc565b604051610390919061385d565b60405180910390f35b6103a1610a05565b6040516103ae91906137e6565b60405180910390f35b6103d160048036038101906103cc9190613801565b610a14565b005b6103ed60048036038101906103e891906136b7565b610a97565b6040516103fa919061354d565b60405180910390f35b61041d600480360381019061041891906136b7565b610ace565b60405161042a9190613706565b60405180910390f35b61043b610b62565b005b610457600480360381019061045291906136b7565b610b97565b005b610473600480360381019061046e9190613878565b610bda565b005b61047d610bee565b60405161048a91906137e6565b60405180910390f35b6104ad60048036038101906104a891906138a5565b610c12565b6040516104ba91906138e1565b60405180910390f35b6104dd60048036038101906104d891906138a5565b610c7b565b005b6104e7610c8f565b6040516104f4919061354d565b60405180910390f35b610517600480360381019061051291906138a5565b610ca6565b604051610524919061354d565b60405180910390f35b610547600480360381019061054291906138a5565b610cc6565b604051610554919061391b565b60405180910390f35b610577600480360381019061057291906138a5565b610d1a565b6040516105849190613706565b60405180910390f35b6105a760048036038101906105a291906136b7565b610d62565b005b6105c360048036038101906105be91906138a5565b610d82565b6040516105d09190613706565b60405180910390f35b6105e1610dd2565b005b6105fd60048036038101906105f891906138a5565b610e07565b005b61061960048036038101906106149190613878565b610ec3565b6040516106269190613706565b60405180910390f35b61064960048036038101906106449190613801565b610f19565b604051610656919061354d565b60405180910390f35b610667610f84565b6040516106749190613601565b60405180910390f35b610697600480360381019061069291906138a5565b611016565b6040516106a49190613706565b60405180910390f35b6106c760048036038101906106c291906136b7565b611127565b005b6106d1611160565b6040516106de91906137e6565b60405180910390f35b61070160048036038101906106fc91906136b7565b611167565b60405161070e919061354d565b60405180910390f35b610731600480360381019061072c91906136b7565b6111de565b60405161073e919061354d565b60405180910390f35b610761600480360381019061075c9190613962565b611201565b005b61077d600480360381019061077891906139ef565b611305565b005b610787611447565b60405161079491906137e6565b60405180910390f35b6107b760048036038101906107b29190613801565b61146b565b005b6107d360048036038101906107ce9190613a91565b61148c565b6040516107e09190613706565b60405180910390f35b61080360048036038101906107fe91906138a5565b611513565b005b61080d6115d0565b60405161081a91906137e6565b60405180910390f35b61083d60048036038101906108389190613afd565b6115f4565b60405161084a9190613bb2565b60405180910390f35b60007f7965db0b000000000000000000000000000000000000000000000000000000007bffffffffffffffffffffffffffffffffffffffffffffffffffffffff1916827bffffffffffffffffffffffffffffffffffffffffffffffffffffffff191614806108c657506108c582611704565b5b9050919050565b6060600380546108dc90613bfc565b80601f016020809104026020016040519081016040528092919081815260200182805461090890613bfc565b80156109555780601f1061092a57610100808354040283529160200191610955565b820191906000526020600020905b81548152906001019060200180831161093857829003601f168201915b5050505050905090565b60008061096a61176e565b9050610977818585611776565b600191505092915050565b6000600254905090565b60008061099761176e565b90506109a485828561193f565b6109af8585856119cb565b60019150509392505050565b600060066000838152602001908152602001600020600101549050919050565b6109e4826109bb565b6109ed81611c4a565b6109f78383611c5e565b505050565b60006012905090565b6000610a0f611d3f565b905090565b610a1c61176e565b73ffffffffffffffffffffffffffffffffffffffff168173ffffffffffffffffffffffffffffffffffffffff1614610a89576040517f08c379a0000000000000000000000000000000000000000000000000000000008152600401610a8090613c9f565b60405180910390fd5b610a938282611e59565b5050565b600080610aa261176e565b9050610ac3818585610ab4858961148c565b610abe9190613cee565b611776565b600191505092915050565b6000438210610b12576040517f08c379a0000000000000000000000000000000000000000000000000000000008152600401610b0990613d90565b60405180910390fd5b610b5a600a60008573ffffffffffffffffffffffffffffffffffffffff1673ffffffffffffffffffffffffffffffffffffffff16815260200190815260200160002083611f3b565b905092915050565b7f65d7a28e3265b37a6474929f336521b332c1681b933f6cb9f3376673440d862a610b8c81611c4a565b610b94612047565b50565b7f9f2df0fed2c77648de5860a4cc508cd0818c85b8b8a1ab4ceeef8d981c8956a6610bc181611c4a565b610bcb83836120aa565b610bd583846120b8565b505050565b610beb610be561176e565b826121d2565b50565b7f9f2df0fed2c77648de5860a4cc508cd0818c85b8b8a1ab4ceeef8d981c8956a681565b6000600960008373ffffffffffffffffffffffffffffffffffffffff1673ffffffffffffffffffffffffffffffffffffffff16815260200190815260200160002060009054906101000a900473ffffffffffffffffffffffffffffffffffffffff169050919050565b610c8c610c8661176e565b826120b8565b50565b6000600560009054906101000a900460ff16905090565b600c6020528060005260406000206000915054906101000a900460ff1681565b6000610d13600a60008473ffffffffffffffffffffffffffffffffffffffff1673ffffffffffffffffffffffffffffffffffffffff168152602001908152602001600020805490506121e0565b9050919050565b60008060008373ffffffffffffffffffffffffffffffffffffffff1673ffffffffffffffffffffffffffffffffffffffff168152602001908152602001600020549050919050565b610d7482610d6e61176e565b8361193f565b610d7e82826121d2565b5050565b6000610dcb600760008473ffffffffffffffffffffffffffffffffffffffff1673ffffffffffffffffffffffffffffffffffffffff168152602001908152602001600020612233565b9050919050565b7f65d7a28e3265b37a6474929f336521b332c1681b933f6cb9f3376673440d862a610dfc81611c4a565b610e04612241565b50565b7f9f2df0fed2c77648de5860a4cc508cd0818c85b8b8a1ab4ceeef8d981c8956a6610e3181611c4a565b6000600c60008473ffffffffffffffffffffffffffffffffffffffff1673ffffffffffffffffffffffffffffffffffffffff16815260200190815260200160002060006101000a81548160ff0219169083151502179055507e8fe2920df89e63074013b74630735e25f89636a2c65cb9ab56cef5091abe0782604051610eb791906138e1565b60405180910390a15050565b6000438210610f07576040517f08c379a0000000000000000000000000000000000000000000000000000000008152600401610efe90613d90565b60405180910390fd5b610f12600b83611f3b565b9050919050565b60006006600084815260200190815260200160002060000160008373ffffffffffffffffffffffffffffffffffffffff1673ffffffffffffffffffffffffffffffffffffffff16815260200190815260200160002060009054906101000a900460ff16905092915050565b606060048054610f9390613bfc565b80601f0160208091040260200160405190810160405280929190818152602001828054610fbf90613bfc565b801561100c5780601f10610fe15761010080835404028352916020019161100c565b820191906000526020600020905b815481529060010190602001808311610fef57829003601f168201915b5050505050905090565b600080600a60008473ffffffffffffffffffffffffffffffffffffffff1673ffffffffffffffffffffffffffffffffffffffff168152602001908152602001600020805490509050600081146110fe57600a60008473ffffffffffffffffffffffffffffffffffffffff1673ffffffffffffffffffffffffffffffffffffffff1681526020019081526020016000206001826110b29190613db0565b815481106110c3576110c2613de4565b5b9060005260206000200160000160049054906101000a90047bffffffffffffffffffffffffffffffffffffffffffffffffffffffff16611101565b60005b7bffffffffffffffffffffffffffffffffffffffffffffffffffffffff16915050919050565b7f9f2df0fed2c77648de5860a4cc508cd0818c85b8b8a1ab4ceeef8d981c8956a661115181611c4a565b61115b83836121d2565b505050565b6000801b81565b60008061117261176e565b90506000611180828661148c565b9050838110156111c5576040517f08c379a00000000000000000000000000000000000000000000000000000000081526004016111bc90613e85565b60405180910390fd5b6111d28286868403611776565b60019250505092915050565b6000806111e961176e565b90506111f68185856119cb565b600191505092915050565b83421115611244576040517f08c379a000000000000000000000000000000000000000000000000000000000815260040161123b90613ef1565b60405180910390fd5b60006112a661129e7fe48329057bfd03d55e49b547132e39cffd9c1820ad7b9d4c5307691425d15adf8989896040516020016112839493929190613f11565b604051602081830303815290604052805190602001206122a4565b8585856122be565b90506112b1816122e9565b86146112f2576040517f08c379a00000000000000000000000000000000000000000000000000000000081526004016112e990613fa2565b60405180910390fd5b6112fc81886120b8565b50505050505050565b83421115611348576040517f08c379a000000000000000000000000000000000000000000000000000000000815260040161133f9061400e565b60405180910390fd5b60007f6e71edae12b1b97f4d1f60370fef10105fa2faae0126114a169c64845d6126c98888886113778c6122e9565b8960405160200161138d9695949392919061402e565b60405160208183030381529060405280519060200120905060006113b0826122a4565b905060006113c0828787876122be565b90508973ffffffffffffffffffffffffffffffffffffffff168173ffffffffffffffffffffffffffffffffffffffff1614611430576040517f08c379a0000000000000000000000000000000000000000000000000000000008152600401611427906140db565b60405180910390fd5b61143b8a8a8a611776565b50505050505050505050565b7f9f2df0fed2c77648de5860a4cc508cd0818c85b8b8a1ab4ceeef8d981c8956a681565b611474826109bb565b61147d81611c4a565b6114878383611e59565b505050565b6000600160008473ffffffffffffffffffffffffffffffffffffffff1673ffffffffffffffffffffffffffffffffffffffff16815260200190815260200160002060008373ffffffffffffffffffffffffffffffffffffffff1673ffffffffffffffffffffffffffffffffffffffff16815260200190815260200160002054905092915050565b7f9f2df0fed2c77648de5860a4cc508cd0818c85b8b8a1ab4ceeef8d981c8956a661153d81611c4a565b6001600c60008473ffffffffffffffffffffffffffffffffffffffff1673ffffffffffffffffffffffffffffffffffffffff16815260200190815260200160002060006101000a81548160ff0219169083151502179055507f642006de5dd49be99f93aade2b891285b19f1195aa61af884f61fb9ee5736564826040516115c491906138e1565b60405180910390a15050565b7f65d7a28e3265b37a6474929f336521b332c1681b933f6cb9f3376673440d862a81565b6115fc61346a565b600a60008473ffffffffffffffffffffffffffffffffffffffff1673ffffffffffffffffffffffffffffffffffffffff1681526020019081526020016000208263ffffffff168154811061165357611652613de4565b5b906000526020600020016040518060400160405290816000820160009054906101000a900463ffffffff1663ffffffff1663ffffffff1681526020016000820160049054906101000a90047bffffffffffffffffffffffffffffffffffffffffffffffffffffffff167bffffffffffffffffffffffffffffffffffffffffffffffffffffffff167bffffffffffffffffffffffffffffffffffffffffffffffffffffffff1681525050905092915050565b60007f01ffc9a7000000000000000000000000000000000000000000000000000000007bffffffffffffffffffffffffffffffffffffffffffffffffffffffff1916827bffffffffffffffffffffffffffffffffffffffffffffffffffffffff1916149050919050565b600033905090565b600073ffffffffffffffffffffffffffffffffffffffff168373ffffffffffffffffffffffffffffffffffffffff16036117e5576040517f08c379a00000000000000000000000000000000000000000000000000000000081526004016117dc9061416d565b60405180910390fd5b600073ffffffffffffffffffffffffffffffffffffffff168273ffffffffffffffffffffffffffffffffffffffff1603611854576040517f08c379a000000000000000000000000000000000000000000000000000000000815260040161184b906141ff565b60405180910390fd5b80600160008573ffffffffffffffffffffffffffffffffffffffff1673ffffffffffffffffffffffffffffffffffffffff16815260200190815260200160002060008473ffffffffffffffffffffffffffffffffffffffff1673ffffffffffffffffffffffffffffffffffffffff168152602001908152602001600020819055508173ffffffffffffffffffffffffffffffffffffffff168373ffffffffffffffffffffffffffffffffffffffff167f8c5be1e5ebec7d5bd14f71427d1e84f3dd0314c0f7b2291e5b200ac8c7c3b925836040516119329190613706565b60405180910390a3505050565b600061194b848461148c565b90507fffffffffffffffffffffffffffffffffffffffffffffffffffffffffffffffff81146119c557818110156119b7576040517f08c379a00000000000000000000000000000000000000000000000000000000081526004016119ae9061426b565b60405180910390fd5b6119c48484848403611776565b5b50505050565b600073ffffffffffffffffffffffffffffffffffffffff168373ffffffffffffffffffffffffffffffffffffffff1603611a3a576040517f08c379a0000000000000000000000000000000000000000000000000000000008152600401611a31906142fd565b60405180910390fd5b600073ffffffffffffffffffffffffffffffffffffffff168273ffffffffffffffffffffffffffffffffffffffff1603611aa9576040517f08c379a0000000000000000000000000000000000000000000000000000000008152600401611aa09061438f565b60405180910390fd5b611ab4838383612347565b60008060008573ffffffffffffffffffffffffffffffffffffffff1673ffffffffffffffffffffffffffffffffffffffff16815260200190815260200160002054905081811015611b3a576040517f08c379a0000000000000000000000000000000000000000000000000000000008152600401611b3190614421565b60405180910390fd5b8181036000808673ffffffffffffffffffffffffffffffffffffffff1673ffffffffffffffffffffffffffffffffffffffff16815260200190815260200160002081905550816000808573ffffffffffffffffffffffffffffffffffffffff1673ffffffffffffffffffffffffffffffffffffffff1681526020019081526020016000206000828254611bcd9190613cee565b925050819055508273ffffffffffffffffffffffffffffffffffffffff168473ffffffffffffffffffffffffffffffffffffffff167fddf252ad1be2c89b69c2b068fc378daa952ba7f163c4a11628f55a4df523b3ef84604051611c319190613706565b60405180910390a3611c448484846123eb565b50505050565b611c5b81611c5661176e565b6123fb565b50565b611c688282610f19565b611d3b5760016006600084815260200190815260200160002060000160008373ffffffffffffffffffffffffffffffffffffffff1673ffffffffffffffffffffffffffffffffffffffff16815260200190815260200160002060006101000a81548160ff021916908315150217905550611ce061176e565b73ffffffffffffffffffffffffffffffffffffffff168173ffffffffffffffffffffffffffffffffffffffff16837f2f8788117e7eff1d82e926ec794901d17c78024a50270940304540a733656f0d60405160405180910390a45b5050565b60007f000000000000000000000000000000000000000000000000000000000000000073ffffffffffffffffffffffffffffffffffffffff163073ffffffffffffffffffffffffffffffffffffffff16148015611dbb57507f000000000000000000000000000000000000000000000000000000000000000046145b15611de8577f00000000000000000000000000000000000000000000000000000000000000009050611e56565b611e537f00000000000000000000000000000000000000000000000000000000000000007f00000000000000000000000000000000000000000000000000000000000000007f0000000000000000000000000000000000000000000000000000000000000000612498565b90505b90565b611e638282610f19565b15611f375760006006600084815260200190815260200160002060000160008373ffffffffffffffffffffffffffffffffffffffff1673ffffffffffffffffffffffffffffffffffffffff16815260200190815260200160002060006101000a81548160ff021916908315150217905550611edc61176e565b73ffffffffffffffffffffffffffffffffffffffff168173ffffffffffffffffffffffffffffffffffffffff16837ff6391f5c32d9c69d2a47ea670b442974b53935d1edc7fd64eb21e047a839171b60405160405180910390a45b5050565b6000808380549050905060005b81811015611fba576000611f5c82846124d2565b905084868281548110611f7257611f71613de4565b5b9060005260206000200160000160009054906101000a900463ffffffff1663ffffffff161115611fa457809250611fb4565b600181611fb19190613cee565b91505b50611f48565b6000821461201c5784600183611fd09190613db0565b81548110611fe157611fe0613de4565b5b9060005260206000200160000160049054906101000a90047bffffffffffffffffffffffffffffffffffffffffffffffffffffffff1661201f565b60005b7bffffffffffffffffffffffffffffffffffffffffffffffffffffffff169250505092915050565b61204f612539565b6000600560006101000a81548160ff0219169083151502179055507f5db9ee0a495bf2e6ff9c91a7834c1ba4fdd244a5e8aa4e537bd38aeae4b073aa61209361176e565b6040516120a091906138e1565b60405180910390a1565b6120b48282612582565b5050565b60006120c383610c12565b905060006120d084610d1a565b905082600960008673ffffffffffffffffffffffffffffffffffffffff1673ffffffffffffffffffffffffffffffffffffffff16815260200190815260200160002060006101000a81548173ffffffffffffffffffffffffffffffffffffffff021916908373ffffffffffffffffffffffffffffffffffffffff1602179055508273ffffffffffffffffffffffffffffffffffffffff168273ffffffffffffffffffffffffffffffffffffffff168573ffffffffffffffffffffffffffffffffffffffff167f3134e8a2e6d97e929a7e54011ea5485d7d196dd5f0ba4d4ef95803e8e3fc257f60405160405180910390a46121cc82848361260f565b50505050565b6121dc8282612808565b5050565b600063ffffffff801682111561222b576040517f08c379a0000000000000000000000000000000000000000000000000000000008152600401612222906144b3565b60405180910390fd5b819050919050565b600081600001549050919050565b612249612826565b6001600560006101000a81548160ff0219169083151502179055507f62e78cea01bee320cd4e420270b5ea74000d11b0c9f74754ebdbfc544b05a25861228d61176e565b60405161229a91906138e1565b60405180910390a1565b60006122b76122b1611d3f565b83612870565b9050919050565b60008060006122cf878787876128a3565b915091506122dc816129af565b8192505050949350505050565b600080600760008473ffffffffffffffffffffffffffffffffffffffff1673ffffffffffffffffffffffffffffffffffffffff168152602001908152602001600020905061233681612233565b915061234181612b7b565b50919050565b61234f612826565b600c60003373ffffffffffffffffffffffffffffffffffffffff1673ffffffffffffffffffffffffffffffffffffffff16815260200190815260200160002060009054906101000a900460ff166123db576040517f08c379a00000000000000000000000000000000000000000000000000000000081526004016123d290614545565b60405180910390fd5b6123e6838383612b91565b505050565b6123f6838383612b96565b505050565b6124058282610f19565b6124945761242a8173ffffffffffffffffffffffffffffffffffffffff166014612bc1565b6124388360001c6020612bc1565b604051602001612449929190614639565b6040516020818303038152906040526040517f08c379a000000000000000000000000000000000000000000000000000000000815260040161248b9190613601565b60405180910390fd5b5050565b600083838346306040516020016124b3959493929190614673565b6040516020818303038152906040528051906020012090509392505050565b6000600280836124e291906146f5565b6002856124ef91906146f5565b6124f99190613cee565b6125039190614726565b6002836125109190614726565b60028561251d9190614726565b6125279190613cee565b6125319190613cee565b905092915050565b612541610c8f565b612580576040517f08c379a0000000000000000000000000000000000000000000000000000000008152600401612577906147a3565b60405180910390fd5b565b61258c8282612dfd565b612594612f5c565b7bffffffffffffffffffffffffffffffffffffffffffffffffffffffff166125ba610982565b11156125fb576040517f08c379a00000000000000000000000000000000000000000000000000000000081526004016125f290614835565b60405180910390fd5b612609600b612f8083612f96565b50505050565b8173ffffffffffffffffffffffffffffffffffffffff168373ffffffffffffffffffffffffffffffffffffffff161415801561264b5750600081115b1561280357600073ffffffffffffffffffffffffffffffffffffffff168373ffffffffffffffffffffffffffffffffffffffff1614612729576000806126d2600a60008773ffffffffffffffffffffffffffffffffffffffff1673ffffffffffffffffffffffffffffffffffffffff16815260200190815260200160002061320e85612f96565b915091508473ffffffffffffffffffffffffffffffffffffffff167fdec2bacdd2f05b59de34da9b523dff8be42e5e38e818c82fdb0bae774387a724838360405161271e929190614855565b60405180910390a250505b600073ffffffffffffffffffffffffffffffffffffffff168273ffffffffffffffffffffffffffffffffffffffff1614612802576000806127ab600a60008673ffffffffffffffffffffffffffffffffffffffff1673ffffffffffffffffffffffffffffffffffffffff168152602001908152602001600020612f8085612f96565b915091508373ffffffffffffffffffffffffffffffffffffffff167fdec2bacdd2f05b59de34da9b523dff8be42e5e38e818c82fdb0bae774387a72483836040516127f7929190614855565b60405180910390a250505b5b505050565b6128128282613224565b612820600b61320e83612f96565b50505050565b61282e610c8f565b1561286e576040517f08c379a0000000000000000000000000000000000000000000000000000000008152600401612865906148ca565b60405180910390fd5b565b60008282604051602001612885929190614957565b60405160208183030381529060405280519060200120905092915050565b6000807f7fffffffffffffffffffffffffffffff5d576e7357a4501ddfe92f46681b20a08360001c11156128de5760006003915091506129a6565b601b8560ff16141580156128f65750601c8560ff1614155b156129085760006004915091506129a6565b60006001878787876040516000815260200160405260405161292d949392919061498e565b6020604051602081039080840390855afa15801561294f573d6000803e3d6000fd5b505050602060405103519050600073ffffffffffffffffffffffffffffffffffffffff168173ffffffffffffffffffffffffffffffffffffffff160361299d576000600192509250506129a6565b80600092509250505b94509492505050565b600060048111156129c3576129c26149d3565b5b8160048111156129d6576129d56149d3565b5b0315612b7857600160048111156129f0576129ef6149d3565b5b816004811115612a0357612a026149d3565b5b03612a43576040517f08c379a0000000000000000000000000000000000000000000000000000000008152600401612a3a90614a4e565b60405180910390fd5b60026004811115612a5757612a566149d3565b5b816004811115612a6a57612a696149d3565b5b03612aaa576040517f08c379a0000000000000000000000000000000000000000000000000000000008152600401612aa190614aba565b60405180910390fd5b60036004811115612abe57612abd6149d3565b5b816004811115612ad157612ad06149d3565b5b03612b11576040517f08c379a0000000000000000000000000000000000000000000000000000000008152600401612b0890614b4c565b60405180910390fd5b600480811115612b2457612b236149d3565b5b816004811115612b3757612b366149d3565b5b03612b77576040517f08c379a0000000000000000000000000000000000000000000000000000000008152600401612b6e90614bde565b60405180910390fd5b5b50565b6001816000016000828254019250508190555050565b505050565b612ba18383836133fa565b612bbc612bad84610c12565b612bb684610c12565b8361260f565b505050565b606060006002836002612bd49190614bfe565b612bde9190613cee565b67ffffffffffffffff811115612bf757612bf6614c58565b5b6040519080825280601f01601f191660200182016040528015612c295781602001600182028036833780820191505090505b5090507f300000000000000000000000000000000000000000000000000000000000000081600081518110612c6157612c60613de4565b5b60200101907effffffffffffffffffffffffffffffffffffffffffffffffffffffffffffff1916908160001a9053507f780000000000000000000000000000000000000000000000000000000000000081600181518110612cc557612cc4613de4565b5b60200101907effffffffffffffffffffffffffffffffffffffffffffffffffffffffffffff1916908160001a90535060006001846002612d059190614bfe565b612d0f9190613cee565b90505b6001811115612daf577f3031323334353637383961626364656600000000000000000000000000000000600f861660108110612d5157612d50613de4565b5b1a60f81b828281518110612d6857612d67613de4565b5b60200101907effffffffffffffffffffffffffffffffffffffffffffffffffffffffffffff1916908160001a905350600485901c945080612da890614c87565b9050612d12565b5060008414612df3576040517f08c379a0000000000000000000000000000000000000000000000000000000008152600401612dea90614cfc565b60405180910390fd5b8091505092915050565b600073ffffffffffffffffffffffffffffffffffffffff168273ffffffffffffffffffffffffffffffffffffffff1603612e6c576040517f08c379a0000000000000000000000000000000000000000000000000000000008152600401612e6390614d68565b60405180910390fd5b612e7860008383612347565b8060026000828254612e8a9190613cee565b92505081905550806000808473ffffffffffffffffffffffffffffffffffffffff1673ffffffffffffffffffffffffffffffffffffffff1681526020019081526020016000206000828254612edf9190613cee565b925050819055508173ffffffffffffffffffffffffffffffffffffffff16600073ffffffffffffffffffffffffffffffffffffffff167fddf252ad1be2c89b69c2b068fc378daa952ba7f163c4a11628f55a4df523b3ef83604051612f449190613706565b60405180910390a3612f58600083836123eb565b5050565b60007bffffffffffffffffffffffffffffffffffffffffffffffffffffffff905090565b60008183612f8e9190613cee565b905092915050565b600080600085805490509050600081146130045785600182612fb89190613db0565b81548110612fc957612fc8613de4565b5b9060005260206000200160000160049054906101000a90047bffffffffffffffffffffffffffffffffffffffffffffffffffffffff16613007565b60005b7bffffffffffffffffffffffffffffffffffffffffffffffffffffffff16925061303583858763ffffffff16565b9150600081118015613088575043866001836130519190613db0565b8154811061306257613061613de4565b5b9060005260206000200160000160009054906101000a900463ffffffff1663ffffffff16145b1561311557613096826133ff565b866001836130a49190613db0565b815481106130b5576130b4613de4565b5b9060005260206000200160000160046101000a8154817bffffffffffffffffffffffffffffffffffffffffffffffffffffffff02191690837bffffffffffffffffffffffffffffffffffffffffffffffffffffffff160217905550613205565b85604051806040016040528061312a436121e0565b63ffffffff16815260200161313e856133ff565b7bffffffffffffffffffffffffffffffffffffffffffffffffffffffff168152509080600181540180825580915050600190039060005260206000200160009091909190915060008201518160000160006101000a81548163ffffffff021916908363ffffffff16021790555060208201518160000160046101000a8154817bffffffffffffffffffffffffffffffffffffffffffffffffffffffff02191690837bffffffffffffffffffffffffffffffffffffffffffffffffffffffff16021790555050505b50935093915050565b6000818361321c9190613db0565b905092915050565b600073ffffffffffffffffffffffffffffffffffffffff168273ffffffffffffffffffffffffffffffffffffffff1603613293576040517f08c379a000000000000000000000000000000000000000000000000000000000815260040161328a90614dfa565b60405180910390fd5b61329f82600083612347565b60008060008473ffffffffffffffffffffffffffffffffffffffff1673ffffffffffffffffffffffffffffffffffffffff16815260200190815260200160002054905081811015613325576040517f08c379a000000000000000000000000000000000000000000000000000000000815260040161331c90614e8c565b60405180910390fd5b8181036000808573ffffffffffffffffffffffffffffffffffffffff1673ffffffffffffffffffffffffffffffffffffffff16815260200190815260200160002081905550816002600082825461337c9190613db0565b92505081905550600073ffffffffffffffffffffffffffffffffffffffff168373ffffffffffffffffffffffffffffffffffffffff167fddf252ad1be2c89b69c2b068fc378daa952ba7f163c4a11628f55a4df523b3ef846040516133e19190613706565b60405180910390a36133f5836000846123eb565b505050565b505050565b60007bffffffffffffffffffffffffffffffffffffffffffffffffffffffff8016821115613462576040517f08c379a000000000000000000000000000000000000000000000000000000000815260040161345990614f1e565b60405180910390fd5b819050919050565b6040518060400160405280600063ffffffff16815260200160007bffffffffffffffffffffffffffffffffffffffffffffffffffffffff1681525090565b600080fd5b60007fffffffff0000000000000000000000000000000000000000000000000000000082169050919050565b6134e2816134ad565b81146134ed57600080fd5b50565b6000813590506134ff816134d9565b92915050565b60006020828403121561351b5761351a6134a8565b5b6000613529848285016134f0565b91505092915050565b60008115159050919050565b61354781613532565b82525050565b6000602082019050613562600083018461353e565b92915050565b600081519050919050565b600082825260208201905092915050565b60005b838110156135a2578082015181840152602081019050613587565b838111156135b1576000848401525b50505050565b6000601f19601f8301169050919050565b60006135d382613568565b6135dd8185613573565b93506135ed818560208601613584565b6135f6816135b7565b840191505092915050565b6000602082019050818103600083015261361b81846135c8565b905092915050565b600073ffffffffffffffffffffffffffffffffffffffff82169050919050565b600061364e82613623565b9050919050565b61365e81613643565b811461366957600080fd5b50565b60008135905061367b81613655565b92915050565b6000819050919050565b61369481613681565b811461369f57600080fd5b50565b6000813590506136b18161368b565b92915050565b600080604083850312156136ce576136cd6134a8565b5b60006136dc8582860161366c565b92505060206136ed858286016136a2565b9150509250929050565b61370081613681565b82525050565b600060208201905061371b60008301846136f7565b92915050565b60008060006060848603121561373a576137396134a8565b5b60006137488682870161366c565b93505060206137598682870161366c565b925050604061376a868287016136a2565b9150509250925092565b6000819050919050565b61378781613774565b811461379257600080fd5b50565b6000813590506137a48161377e565b92915050565b6000602082840312156137c0576137bf6134a8565b5b60006137ce84828501613795565b91505092915050565b6137e081613774565b82525050565b60006020820190506137fb60008301846137d7565b92915050565b60008060408385031215613818576138176134a8565b5b600061382685828601613795565b92505060206138378582860161366c565b9150509250929050565b600060ff82169050919050565b61385781613841565b82525050565b6000602082019050613872600083018461384e565b92915050565b60006020828403121561388e5761388d6134a8565b5b600061389c848285016136a2565b91505092915050565b6000602082840312156138bb576138ba6134a8565b5b60006138c98482850161366c565b91505092915050565b6138db81613643565b82525050565b60006020820190506138f660008301846138d2565b92915050565b600063ffffffff82169050919050565b613915816138fc565b82525050565b6000602082019050613930600083018461390c565b92915050565b61393f81613841565b811461394a57600080fd5b50565b60008135905061395c81613936565b92915050565b60008060008060008060c0878903121561397f5761397e6134a8565b5b600061398d89828a0161366c565b965050602061399e89828a016136a2565b95505060406139af89828a016136a2565b94505060606139c089828a0161394d565b93505060806139d189828a01613795565b92505060a06139e289828a01613795565b9150509295509295509295565b600080600080600080600060e0888a031215613a0e57613a0d6134a8565b5b6000613a1c8a828b0161366c565b9750506020613a2d8a828b0161366c565b9650506040613a3e8a828b016136a2565b9550506060613a4f8a828b016136a2565b9450506080613a608a828b0161394d565b93505060a0613a718a828b01613795565b92505060c0613a828a828b01613795565b91505092959891949750929550565b60008060408385031215613aa857613aa76134a8565b5b6000613ab68582860161366c565b9250506020613ac78582860161366c565b9150509250929050565b613ada816138fc565b8114613ae557600080fd5b50565b600081359050613af781613ad1565b92915050565b60008060408385031215613b1457613b136134a8565b5b6000613b228582860161366c565b9250506020613b3385828601613ae8565b9150509250929050565b613b46816138fc565b82525050565b60007bffffffffffffffffffffffffffffffffffffffffffffffffffffffff82169050919050565b613b7d81613b4c565b82525050565b604082016000820151613b996000850182613b3d565b506020820151613bac6020850182613b74565b50505050565b6000604082019050613bc76000830184613b83565b92915050565b7f4e487b7100000000000000000000000000000000000000000000000000000000600052602260045260246000fd5b60006002820490506001821680613c1457607f821691505b602082108103613c2757613c26613bcd565b5b50919050565b7f416363657373436f6e74726f6c3a2063616e206f6e6c792072656e6f756e636560008201527f20726f6c657320666f722073656c660000000000000000000000000000000000602082015250565b6000613c89602f83613573565b9150613c9482613c2d565b604082019050919050565b60006020820190508181036000830152613cb881613c7c565b9050919050565b7f4e487b7100000000000000000000000000000000000000000000000000000000600052601160045260246000fd5b6000613cf982613681565b9150613d0483613681565b9250827fffffffffffffffffffffffffffffffffffffffffffffffffffffffffffffffff03821115613d3957613d38613cbf565b5b828201905092915050565b7f4552433230566f7465733a20626c6f636b206e6f7420796574206d696e656400600082015250565b6000613d7a601f83613573565b9150613d8582613d44565b602082019050919050565b60006020820190508181036000830152613da981613d6d565b9050919050565b6000613dbb82613681565b9150613dc683613681565b925082821015613dd957613dd8613cbf565b5b828203905092915050565b7f4e487b7100000000000000000000000000000000000000000000000000000000600052603260045260246000fd5b7f45524332303a2064656372656173656420616c6c6f77616e63652062656c6f7760008201527f207a65726f000000000000000000000000000000000000000000000000000000602082015250565b6000613e6f602583613573565b9150613e7a82613e13565b604082019050919050565b60006020820190508181036000830152613e9e81613e62565b9050919050565b7f4552433230566f7465733a207369676e61747572652065787069726564000000600082015250565b6000613edb601d83613573565b9150613ee682613ea5565b602082019050919050565b60006020820190508181036000830152613f0a81613ece565b9050919050565b6000608082019050613f2660008301876137d7565b613f3360208301866138d2565b613f4060408301856136f7565b613f4d60608301846136f7565b95945050505050565b7f4552433230566f7465733a20696e76616c6964206e6f6e636500000000000000600082015250565b6000613f8c601983613573565b9150613f9782613f56565b602082019050919050565b60006020820190508181036000830152613fbb81613f7f565b9050919050565b7f45524332305065726d69743a206578706972656420646561646c696e65000000600082015250565b6000613ff8601d83613573565b915061400382613fc2565b602082019050919050565b6000602082019050818103600083015261402781613feb565b9050919050565b600060c08201905061404360008301896137d7565b61405060208301886138d2565b61405d60408301876138d2565b61406a60608301866136f7565b61407760808301856136f7565b61408460a08301846136f7565b979650505050505050565b7f45524332305065726d69743a20696e76616c6964207369676e61747572650000600082015250565b60006140c5601e83613573565b91506140d08261408f565b602082019050919050565b600060208201905081810360008301526140f4816140b8565b9050919050565b7f45524332303a20617070726f76652066726f6d20746865207a65726f2061646460008201527f7265737300000000000000000000000000000000000000000000000000000000602082015250565b6000614157602483613573565b9150614162826140fb565b604082019050919050565b600060208201905081810360008301526141868161414a565b9050919050565b7f45524332303a20617070726f766520746f20746865207a65726f20616464726560008201527f7373000000000000000000000000000000000000000000000000000000000000602082015250565b60006141e9602283613573565b91506141f48261418d565b604082019050919050565b60006020820190508181036000830152614218816141dc565b9050919050565b7f45524332303a20696e73756666696369656e7420616c6c6f77616e6365000000600082015250565b6000614255601d83613573565b91506142608261421f565b602082019050919050565b6000602082019050818103600083015261428481614248565b9050919050565b7f45524332303a207472616e736665722066726f6d20746865207a65726f20616460008201527f6472657373000000000000000000000000000000000000000000000000000000602082015250565b60006142e7602583613573565b91506142f28261428b565b604082019050919050565b60006020820190508181036000830152614316816142da565b9050919050565b7f45524332303a207472616e7366657220746f20746865207a65726f206164647260008201527f6573730000000000000000000000000000000000000000000000000000000000602082015250565b6000614379602383613573565b91506143848261431d565b604082019050919050565b600060208201905081810360008301526143a88161436c565b9050919050565b7f45524332303a207472616e7366657220616d6f756e742065786365656473206260008201527f616c616e63650000000000000000000000000000000000000000000000000000602082015250565b600061440b602683613573565b9150614416826143af565b604082019050919050565b6000602082019050818103600083015261443a816143fe565b9050919050565b7f53616665436173743a2076616c756520646f65736e27742066697420696e203360008201527f3220626974730000000000000000000000000000000000000000000000000000602082015250565b600061449d602683613573565b91506144a882614441565b604082019050919050565b600060208201905081810360008301526144cc81614490565b9050919050565b7f56654d61696e546f6b656e3a20697320696e7472616e7366657261626c65207560008201527f6e6c657373207468652073656e6465722069732077686974656c697374656400602082015250565b600061452f603f83613573565b915061453a826144d3565b604082019050919050565b6000602082019050818103600083015261455e81614522565b9050919050565b600081905092915050565b7f416363657373436f6e74726f6c3a206163636f756e7420000000000000000000600082015250565b60006145a6601783614565565b91506145b182614570565b601782019050919050565b60006145c782613568565b6145d18185614565565b93506145e1818560208601613584565b80840191505092915050565b7f206973206d697373696e6720726f6c6520000000000000000000000000000000600082015250565b6000614623601183614565565b915061462e826145ed565b601182019050919050565b600061464482614599565b915061465082856145bc565b915061465b82614616565b915061466782846145bc565b91508190509392505050565b600060a08201905061468860008301886137d7565b61469560208301876137d7565b6146a260408301866137d7565b6146af60608301856136f7565b6146bc60808301846138d2565b9695505050505050565b7f4e487b7100000000000000000000000000000000000000000000000000000000600052601260045260246000fd5b600061470082613681565b915061470b83613681565b92508261471b5761471a6146c6565b5b828206905092915050565b600061473182613681565b915061473c83613681565b92508261474c5761474b6146c6565b5b828204905092915050565b7f5061757361626c653a206e6f7420706175736564000000000000000000000000600082015250565b600061478d601483613573565b915061479882614757565b602082019050919050565b600060208201905081810360008301526147bc81614780565b9050919050565b7f4552433230566f7465733a20746f74616c20737570706c79207269736b73206f60008201527f766572666c6f77696e6720766f74657300000000000000000000000000000000602082015250565b600061481f603083613573565b915061482a826147c3565b604082019050919050565b6000602082019050818103600083015261484e81614812565b9050919050565b600060408201905061486a60008301856136f7565b61487760208301846136f7565b9392505050565b7f5061757361626c653a2070617573656400000000000000000000000000000000600082015250565b60006148b4601083613573565b91506148bf8261487e565b602082019050919050565b600060208201905081810360008301526148e3816148a7565b9050919050565b7f1901000000000000000000000000000000000000000000000000000000000000600082015250565b6000614920600283614565565b915061492b826148ea565b600282019050919050565b6000819050919050565b61495161494c82613774565b614936565b82525050565b600061496282614913565b915061496e8285614940565b60208201915061497e8284614940565b6020820191508190509392505050565b60006080820190506149a360008301876137d7565b6149b0602083018661384e565b6149bd60408301856137d7565b6149ca60608301846137d7565b95945050505050565b7f4e487b7100000000000000000000000000000000000000000000000000000000600052602160045260246000fd5b7f45434453413a20696e76616c6964207369676e61747572650000000000000000600082015250565b6000614a38601883613573565b9150614a4382614a02565b602082019050919050565b60006020820190508181036000830152614a6781614a2b565b9050919050565b7f45434453413a20696e76616c6964207369676e6174757265206c656e67746800600082015250565b6000614aa4601f83613573565b9150614aaf82614a6e565b602082019050919050565b60006020820190508181036000830152614ad381614a97565b9050919050565b7f45434453413a20696e76616c6964207369676e6174757265202773272076616c60008201527f7565000000000000000000000000000000000000000000000000000000000000602082015250565b6000614b36602283613573565b9150614b4182614ada565b604082019050919050565b60006020820190508181036000830152614b6581614b29565b9050919050565b7f45434453413a20696e76616c6964207369676e6174757265202776272076616c60008201527f7565000000000000000000000000000000000000000000000000000000000000602082015250565b6000614bc8602283613573565b9150614bd382614b6c565b604082019050919050565b60006020820190508181036000830152614bf781614bbb565b9050919050565b6000614c0982613681565b9150614c1483613681565b9250817fffffffffffffffffffffffffffffffffffffffffffffffffffffffffffffffff0483118215151615614c4d57614c4c613cbf565b5b828202905092915050565b7f4e487b7100000000000000000000000000000000000000000000000000000000600052604160045260246000fd5b6000614c9282613681565b915060008203614ca557614ca4613cbf565b5b600182039050919050565b7f537472696e67733a20686578206c656e67746820696e73756666696369656e74600082015250565b6000614ce6602083613573565b9150614cf182614cb0565b602082019050919050565b60006020820190508181036000830152614d1581614cd9565b9050919050565b7f45524332303a206d696e7420746f20746865207a65726f206164647265737300600082015250565b6000614d52601f83613573565b9150614d5d82614d1c565b602082019050919050565b60006020820190508181036000830152614d8181614d45565b9050919050565b7f45524332303a206275726e2066726f6d20746865207a65726f2061646472657360008201527f7300000000000000000000000000000000000000000000000000000000000000602082015250565b6000614de4602183613573565b9150614def82614d88565b604082019050919050565b60006020820190508181036000830152614e1381614dd7565b9050919050565b7f45524332303a206275726e20616d6f756e7420657863656564732062616c616e60008201527f6365000000000000000000000000000000000000000000000000000000000000602082015250565b6000614e76602283613573565b9150614e8182614e1a565b604082019050919050565b60006020820190508181036000830152614ea581614e69565b9050919050565b7f53616665436173743a2076616c756520646f65736e27742066697420696e203260008201527f3234206269747300000000000000000000000000000000000000000000000000602082015250565b6000614f08602783613573565b9150614f1382614eac565b604082019050919050565b60006020820190508181036000830152614f3781614efb565b905091905056fea2646970667358221220bb7b44c077de16f677ae0e591b44e73589121ab567fb299f84d0ce7141b5f1a064736f6c634300080d0033",
  "linkReferences": {},
  "deployedLinkReferences": {}
}